:020000040800F2
:10000000C8430020D5010008DB2F0008D32F0008CB
:10001000D72F0008A510000839350008000000009F
:100020000000000000000000000000000530000893
:100030000111000800000000EB010008ED010008BC
:10004000EF010008EF010008EF010008EF010008D0
:10005000EF010008EF010008EF010008EF010008C0
:10006000EF010008EF010008EF010008A9100008E7
:10007000EF010008EF010008EF010008EF010008A0
:10008000EF010008EF010008EF010008EF01000890
:10009000EF010008EF010008EF010008EF01000880
:1000A000EF010008EF010008EF010008EF01000870
:1000B000EF01000809300008EF010008EF01000817
:1000C000EF010008EF010008EF010008EF01000850
:1000D000EF01000811340008EF0100083534000872
:1000E000EF010008EF010008EF010008EF01000830
:1000F000EF010008EF010008EF010008EF01000820
:10010000EF010008EF010008EF010008EF0100080F
:10011000EF010008EF010008EF010008EF010008FF
:10012000EF010008EF010008EF010008EF010008EF
:1001300000F002F800F03FF80AA090E8000C8244BA
:100140008344AAF10107DA4501D100F034F8AFF297
:10015000090EBAE80F0013F0010F18BFFB1A43F0A5
:10016000010318470433010024330100103A24BF6F
:1001700078C878C1FAD8520724BF30C830C144BF0C
:1001800004680C607047000000230024002500264E
:10019000103A28BF78C1FBD8520728BF30C148BFEA
:1001A0000B607047782900F0CA84002070471FB5A3
:1001B0001FBD10B510BD00F09DFE1146FFF7F7FF03
:1001C00007F05EFA00F0BBFE03B4FFF7F2FF03BCDA
:1001D00003F0D7F90948804709480047FEE7FEE7E2
:1001E000FEE7FEE7FEE7FEE7FEE7FEE7FEE7FEE7E7
:1001F00004480549054A064B7047000007300008CF
:1002000031010008C83D0020C8430020C83F00203D
:10021000C83F0020002A08BF70472DE9F047154667
:100220000E4604464FF0000854F8047B54F8040BC3
:10023000014608F029FB81463946084608F024FBB0
:10024000494608F04BFA3746361D10F1FF4F28BFDC
:10025000C7F8008002D207F043FC38606D1EE3D17E
:10026000BDE8F0872DE9FF4F9BB004461C9D169515
:10027000012D9CBF1FB0BDE8F08F12950020AD0886
:100280000E900F90681E13900E9B1D9A0E980E995B
:1002900052F8332009921D9A400002EBC302014438
:1002A000526807921D9A52F830200C921D9A02EB68
:1002B000C00040680D9052F831000B9002EBC10075
:1002C00040680A901E990F9E58180E90771907EBF8
:1002D000050954F836A054F839B009EB0508594619
:1002E000504608F0FBF901905946504608F05CFC76
:1002F000049004EBC9001990D0F804B004EBC600D8
:100300001490D0F804A05946504608F0E7F9009040
:100310005946504608F048FC039054F8381054F8F9
:10032000370008F0DBF982460146019808F0D6F95B
:1003300044F836005146019808F036FC04EBC80B2F
:10034000019004EBC70ADBF80410DAF8040008F0A7
:10035000C5F901460690009808F0C0F901461498C6
:1003600041600699009808F01FFC0090DBF804102B
:10037000DAF8040008F018FC089054F8381054F823
:10038000370008F011FC06900D99009808F07CFAEF
:1003900015900C99019808F077FA159908F09EF9D4
:1003A00044F837000D99019808F06EFA07460C9949
:1003B000009808F069FA394608F0F6FBCAF804001C
:1003C0000899049808F08AF907460899049808F0F3
:1003D000EBFB04900699039808F0E6FB0090069961
:1003E000039808F07BF903900799009808F04CFAFD
:1003F00082463846099908F047FA514608F06EF9E6
:1004000044F839003846079908F03EFA074609993A
:10041000009808F039FA394608F0C6FB01461998E9
:1004200041600A99039808F02FFA07460B9904983F
:1004300008F02AFA394608F051F944F838000A99C8
:10044000049808F021FA07460B99039808F01CFA63
:10045000394608F0A9FBCBF80400129806441C9812
:100460008642FFF433AF0F981399401C0F908842D7
:100470007FF60AAF1E984FF6FF7101EA80001E90CA
:1004800016988008169001283FF6F7AE1FB0BDE819
:10049000F08F2DE9FF4F9BB004461C9D1795042D4E
:1004A00040F20A8100200E95AD0812900F90681E50
:1004B0001490129B1D9A1298129952F833200B92A5
:1004C0001D9A400002EBC3020144526806921D9A35
:1004D0000F9E52F8302007921D9A02EBC000406830
:1004E000109052F831000C9002EBC10040680D9062
:1004F0001E9818441290771907EB050854F836A097
:1005000054F838B008EB05095946504608F0E6F8AB
:1005100001905946504608F047FB059004EBC8008F
:100520001990D0F804B004EBC6001590D0F804A0E0
:100530005946504608F0D2F800905946504608F007
:1005400033FB049054F8391054F8370008F0C6F81B
:1005500082460146019808F0C1F844F83600514639
:10056000019808F021FB04EBC90B019004EBC70ACA
:10057000DBF80410DAF8040008F0B0F8014608903F
:10058000009808F0ABF8014615984160089900986A
:1005900008F00AFB0090DBF80410DAF8040008F019
:1005A00003FB099054F8391054F8370008F0FCFAAE
:1005B00008901099009808F067F91690079901982B
:1005C00008F062F9169908F0EFFA44F8370010992C
:1005D000019808F059F907460799009808F054F96E
:1005E000394608F07BF8CAF804000999059808F024
:1005F000DBFA07460999059808F070F80590089904
:10060000049808F06BF800900899049808F0CCFA68
:1006100004900699009808F037F9824638460B99FD
:1006200008F032F9514608F0BFFA44F8380038466D
:10063000069908F029F907460B99009808F024F963
:10064000394608F04BF80146199841600D99049815
:1006500008F01AF907460C99059808F015F939467B
:1006600008F0A2FA44F839000D99059808F00CF941
:1006700007460C99049808F007F9394608F02EF857
:10068000CBF804000E9806441C988642FFF433AF62
:100690000F98401C0F90149988427FF60AAF1E985D
:1006A0004FF6FF7101EA80001E901798800817909E
:1006B00004283FF6F7AE00BF1C980026401B4FEA07
:1006C00095090E95CDF81C0006EB090505EB090709
:1006D00054F836A054F837B007EB0908594650468D
:1006E00007F0FCFF01905946504608F05DFA05906E
:1006F00004EBC7000B90D0F804B004EBC6000C90DC
:10070000D0F804A05946504607F0E8FF009059463B
:10071000504608F049FA049054F8381054F835005F
:1007200007F0DCFF82460146019807F0D7FF2899C1
:1007300008F0AAF844F836005146019808F034FA57
:1007400004EBC80B019004EBC50ADBF80410DAF8DF
:10075000040007F0C3FF01460890009807F0BEFFB1
:10076000289908F091F801460C9841600899009882
:1007700008F01AFA0090DBF80410DAF8040008F028
:1007800013FA099054F8381054F8350008F00CFAB0
:1007900008902899019808F077F844F835002899CE
:1007A000009808F071F8CAF804000999059808F053
:1007B000FBF982460999059807F090FF0590089982
:1007C000049807F08BFF00900899049808F0ECF962
:1007D00005465046289908F057F844F837002899FC
:1007E000009808F051F801460B9841602899059847
:1007F00008F04AF844F838002846289908F044F8E8
:10080000CBF804000E9806440798B042BFF45CAFE2
:100810001FB0BDE8F08F38B504460D4680782188BA
:10082000A389626801280FD02846FFF71BFDE078F6
:10083000012818BF38BDE2892188A36801B0284685
:10084000BDE8304000F05AB8206900902846FFF714
:1008500020FEECE710B40180224C446082704FF01F
:10086000000CC370B1F5807F20D004DC10292ED09D
:10087000402923D005E0B1F5806F0FD0B1F5805F3E
:1008800004D04FF0FF3C10BC6046704701218181CD
:10089000C181154981604FF0665116E004218181C4
:1008A000C181124981604FF06A510EE010218181AF
:1008B000C1810F4981604FF06E5106E04021818176
:1008C000C1810C4981604FF072510161DBE74FF447
:1008D00080718181C181084981604FF07651016149
:1008E000D1E700003C9800083C90000842900008C6
:1008F0005A900008BA9000083A9200082DE9F007D3
:100900004D0801244FF0000C04EB51066146A5F19F
:1009100002082CE061452AD250F8314050F83C7072
:1009200040F8317040F83C4000EBC10400EBCC07CC
:10093000D4F80490D7F804A0C4F804A0C7F8049031
:100940008F190CEB060450F8379050F834A040F89B
:1009500037A040F8349000EBC70700EBC404D7F889
:100960000490D4F804A0C7F804A0C4F8049000EBE5
:10097000C104AC44A76850F83C90C4F8089040F813
:100980003C7000EBCC0CE768DCF80490C4F80C90E9
:10099000CCF80470891CB3F800C089B203EB4203A1
:1009A0004145B7D9BDE8F00770472DE9F0074D087C
:1009B00001244FF0000C04EB51066146A5F102083A
:1009C0002BE0614529D250F8314050F83C7040F896
:1009D000317040F83C4000EBC10900EBCC04D9F881
:1009E0000470D4F804A0C9F804A067608C190CEB5B
:1009F000060750F8349050F837A040F834A040F87B
:100A0000379000EBC40400EBC707D4F80490D7F884
:100A100004A0C4F804A0C7F8049000EBC104AC44DF
:100A2000A76850F83C90C4F8089040F83C7000EB80
:100A3000CC0CE768DCF80490C4F80C90CCF8047097
:100A4000B3F800C0891C03EB42034145B9D9BDE8A6
:100A5000F00770472DE9F00F01244F0804EB51080F
:100A60004FF0000C7C0804BFBDE8F00F7047014652
:100A700000EB8805002614E0BCEB460F11D950F8B6
:100A80002CA0D1F80090C1F800A040F82C900CEBFD
:100A90000809D5F800A050F829B0C5F800B040F812
:100AA00029A0BC4451F8049F50F82CA041F804AB95
:100AB00040F82C90B3F800C003EB4203641E05F12C
:100AC000080506F10106D7D1BDE8F00F7047704761
:100AD0000FB4044910B503AA029800F0EDF910BC58
:100AE0005DF814FB90000020F0B40D460188090564
:100AF00002D5214C7C4402E01F4C7C440E34002182
:100B000000F1240608E002F00F071209E75D42EA4F
:100B100003721B097754491C52EA0307F3D1027888
:100B20000023120704D5702D06D009B10223113419
:100B30002246F0BC00F04EB901231034F8E770B53E
:100B400004460D4621461068AFF300800246294650
:100B50002046BDE870400023C6E7D21D22F00703FF
:100B6000D3E90023C0E70368126843F02003036061
:100B70000823C3610023B7E7440D01002DE9F05FAE
:100B8000894604464FF0000ADFF874B1FB44C0F810
:100B900020A02046E1688847002874D0252806D088
:100BA000D4E901219047206A401C2062F1E7002629
:100BB0005F462046E16888472028054607DB312D3F
:100BC00005D2781910F8200C08B10643F1E7B007F8
:100BD00001D526F00406C4F81CA00027C4F818A00C
:100BE0002A2D09D0284602F0C5FC38B304EB87084B
:100BF000303DC8F8185019E059F8041B204604EBA2
:100C000087029161E1688847012F054618D1E069A4
:100C1000002820DA26F020061DE0D8F8180000EBA6
:100C2000800005EB40003038C8F818002046E16825
:100C30008847054602F09EFC0028EED1012F0AD01D
:100C40002E2D08D12046E16888477F1C0546022FDB
:100C500046F02006C4DBA069002803DA404246F0D3
:100C60000106A061F00701D026F010066C2D0BD014
:100C7000682D09D04C2D39D06A2D35D0742D35D042
:100C80007A2D33D016E038E0E1682F4620468847B9
:100C9000B842054609D16C2F26D04FF48060E16838
:100CA000064320468847054604E06C2F1AD04FF4CF
:100CB000807006430DB3A5F14100192802D82035F4
:100CC00046F400664A462946204626604E46FFF70F
:100CD00069FA80B101280BD0F61D26F0070000F15B
:100CE000080956E74020E4E78020D8E70020D6E74F
:100CF00006F104094DE7284652E7206ABDE8F09F57
:100D0000D40C010010B5203AC0F00B80B1E81850A7
:100D1000203AA0E81850B1E81850A0E81850BFF4E5
:100D2000F5AF5FEA027C24BFB1E81850A0E8185084
:100D300044BF18C918C0BDE810405FEA827C24BFD8
:100D400051F8043B40F8043B08BF7047D20728BF66
:100D500031F8023B48BF11F8012B28BF20F8023BB5
:100D600048BF00F8012B70474FF0000200B5134652
:100D700094469646203922BFA0E80C50A0E80C50BB
:100D8000B1F12001BFF4F7AF090728BFA0E80C506C
:100D900048BF0CC05DF804EB890028BF40F8042B65
:100DA00008BF704748BF20F8022B11F0804F18BFD2
:100DB00000F8012B7047704770477047704710B5B7
:100DC00000F08CF8006810BD10B5044600F086F8FD
:100DD000046010BD2DE9F0470D4699469246044641
:100DE00000F124080168880604D5E06921F01001AB
:100DF000216000E00120A84201DD471B00E0002740
:100E0000A1697A1902EB0900081AA0612078C006CE
:100E100002D42046AFF30080002608E0D4E9012187
:100E20001AF806009047206A401C761C20624E4546
:100E3000F4DB2078C0060AD52046AFF3008006E038
:100E4000D4E9012130209047206A401C2062381EDE
:100E5000A7F10107F4DC07E0D4E9012118F8050047
:100E60009047206A401C2062281EA5F10105F3DC92
:100E70002046AFF300802078000602D50220BDE8AE
:100E8000F0870120FBE7000001694A1C0261087835
:100E9000704700B58FB0CDE90131002105910549BA
:100EA0007944CDE9031011466846FFF767FE0FB09D
:100EB00000BD0000E5FFFFFF074B70B50D467B440A
:100EC000FFF7E7FF0446284600F00CF810B14FF09A
:100ED000FF3070BD204670BD0B29000000487047F0
:100EE000683D0020007B00F080007047004870479C
:100EF000683D00207546FFF7F9FFAE4605006946DC
:100F0000534620F00700854618B020B5FFF770F96A
:100F1000BDE820404FF000064FF000074FF00008FA
:100F20004FF0000B21F00701AC46ACE8C009ACE87B
:100F3000C009ACE8C009ACE8C0098D46704710B5DF
:100F40000446AFF300802046BDE81040FFF73CB9EF
:100F500070B5044600252068806800F00100F0B1FB
:100F60002068806820F001002168886000F040FF60
:100F700005460EE000F03CFF401B022809D9A06A9C
:100F800040F01000A062E06A40F00100E062012041
:100F900070BD2068806800F001000028EAD10020C0
:100FA000F6E770B505466C6AA06A00F05000E0B93B
:100FB000A06A40F40070A0622068806800F460209D
:100FC000B0F5602F0DD1207B58B9A06A20F4807055
:100FD000A062A06A00F4805018B9A06A40F0010035
:100FE000A062204600F040FA03E0206A016B284628
:100FF000884770BD70B505466C6AA06A40F0400035
:10100000A062E06A40F00400E062204600F02EFAA0
:1010100070BD70B50446656A284600F026FA70BDBA
:1010200038B504460025002000902068806800F054
:10103000010080BB2068806840F001002168886062
:10104000164800681649B0FBF1F0009002E00098E5
:10105000401E009000980028F9D100F0C9FE054616
:1010600013E000F0C5FE401B02280ED9A06A40F034
:101070001000A062E06A40F00100E06200BF0020C2
:1010800084F8240000BF012038BD2068806800F08B
:1010900001000028E5D00020F6E700000000002055
:1010A00040420F0000BFFEE70848006800F0020061
:1010B00050B101200649087000BF0448406840F064
:1010C00002000249486000BF704700000000024073
:1010D000A100002030B590F840500124AC40C56B11
:1010E0006C60046863604468102C04D10468A260DA
:1010F0000468E16003E00468A1600468E26030BD58
:101100007047000070B50446B3F5804F13D1D1E9A4
:10111000000540EA05108D6840EA05208D692843E6
:101120008D8940EA054054F82250064E3540284348
:1011300044F8220003E06FF0704044F822000020E1
:1011400070BD00000000F0CF70B50246086852F88C
:10115000200020F001000E6842F826008868082868
:1011600001D1402300E00023486818438E683043D3
:10117000CE6830430E6930434E693043CE69304308
:101180000E6A30434E6A30438E6A3043CE6A304333
:101190000E6B40EA060488690443486B0443074D1C
:1011A00045F4806545F4E025086852F82000A8431E
:1011B00020430E6842F82600002070BD7FFB080027
:1011C00010B50346D1E9000440EA04108C6840EAF7
:1011D00004208C8940EA0444088A401E44EA0054F2
:1011E000087D801E44EA00608C692043541C53F83B
:1011F000244004F040442043541C43F824000020C1
:1012000010BD0000F8B5044600260020009000BF85
:1012100094F82400012801D10220F8BD012084F8AF
:10122000240000BF2046FFF793FE0646002E62D141
:10123000A06A20F4885040F00200A062022000F072
:101240007BFE30490968B1FBF0F04000009002E0FD
:101250000098401E009000980028F9D12046FFF722
:10126000DFFE2068806840F008002168886000F098
:10127000BFFD054611E000F0BBFD401B0A280CD95C
:10128000A06A20F0020040F01000A06200BF002021
:1012900084F8240000BF0120BFE72068806800F0C8
:1012A00008000028E7D12068806840F00400216829
:1012B000886000F09DFD054611E000F099FD401B9F
:1012C0000A280CD9A06A20F0020040F01000A062A9
:1012D00000BF002084F8240000BF01209DE72068A3
:1012E000806800F004000028E7D1A06A20F0020026
:1012F00040F00100A06200BF002084F8240000BF7D
:1013000030468AE70000002038B50246002300205E
:10131000009000BF92F82400012801D1022038BDBE
:10132000012082F8240000BF4868072812D2106804
:10133000406B0C79641E04EB84051F24AC40A04371
:101340000D796D1E05EB85050C68AC4020431468D3
:10135000606327E048680D2812D21068006B0C7992
:10136000E41F04EB84051F24AC40A0430D79ED1F5E
:1013700005EB85050C68AC4020431468206311E040
:101380001068C06A0C790D3C04EB84051F24AC4046
:10139000A0430D790D3D05EB85050C68AC4020435D
:1013A0001468E06208680A2812D31068C0680C78D4
:1013B0000A3C04EB44050724AC40A0430D780A3DE9
:1013C00005EB45058C68AC4020431468E0600FE0F5
:1013D000106800690C7804EB44050724AC40A04376
:1013E0000D7805EB45058C68AC40204314682061FE
:1013F0000868102802D00868112827D1174C1068F7
:10140000A0421ED11068806800F40000F0B9106896
:10141000806840F400001468A0600868102815D1A6
:101420000F4800680F4CB0FBF4F000EB8000400068
:10143000009002E00098401E009000980028F9D12A
:1014400004E0906A40F020009062012300BF002079
:1014500082F8240000BF184661E700000024014024
:101460000000002040420F007047704770470000A6
:101470002DE9F0410446002700250026A84614B9AE
:101480000120BDE8F081A06810B1207D00B100BF4F
:10149000A06A30B90020E06284F82400204600F001
:1014A00097F82046FFF754FD0746A06A00F01000A9
:1014B000002873D1002F7ED1A06A20F4885040F01C
:1014C0000200A0623F4AD4E90001904208D1E069DD
:1014D000B0F5402F02D14FF4002002E0E06900E0B7
:1014E000E0690143207B41EA40000643A068B0F573
:1014F000807F02D0A068012802D14FF4807000E004
:1015000000200543207D012811D1207B38B9A06936
:10151000401E4FF4006141EA4030054307E0A06AF5
:1015200040F02000A062E06A40F00100E062206824
:10153000406820F46940284321684860206880683A
:1015400021490840304321688860A068B0F5807F59
:1015500002D0A068012802D14FF4807000E0002082
:10156000B0F5807F03D1208A401E4FEA00582068E2
:10157000C06A20F4700040EA08002168C862206850
:10158000806812490840B04209D10020E062A06A98
:1015900020F0020040F00100A06211E00BE0A06A20
:1015A00020F0020040F01000A062E06A40F001006C
:1015B000E062012704E0A06A40F01000A062012769
:1015C00038465EE7003C0140FDF7E1FFFE0E1FFFDD
:1015D00010B58CB004461C492068884232D11821CD
:1015E00002A8FFF7C1FB00BF00BF1848806940F4A4
:1015F0000070164988610846806900F40070019007
:1016000000BF00BF00BF00BF00BF0846806940F0B8
:10161000040088610846806900F00400019000BF62
:1016200000BF00BF022002908003049002A800F0D7
:101630001DFD022008900320099008A9044800F02D
:1016400031FA00BF0CB010BD002401400010024070
:10165000000801402DE9F04104460D4616460027DA
:1016600057492068884203D056492068884205D1EE
:101670005348001D006800F4702000E0002000289E
:101680007ED100BF94F82400012802D10220BDE8D9
:10169000F081012084F8240000BF2046FFF7C0FC41
:1016A0000746002F6DD1A06A40F60161884340F4DF
:1016B0008070A06243492068884209D14048001DDB
:1016C000006800F4702008B9012002E0002000E06A
:1016D000012078B1A06A20F48010A06220684068E0
:1016E00000F4806000B3A06A20F4005040F4805001
:1016F000A06219E0A06A40F48010A062304920681E
:10170000884203D02F492068884205D12C48001D0B
:10171000006800F4806000E0002028B1A06A20F496
:10172000005040F48050A062A06A00F4805020B1C4
:10173000E06A20F00600E06201E00020E06200BF05
:10174000002084F8240000BF1F48216A88621F48D7
:10175000216AC8621E48216A08636FF0020021688E
:1017600008602068806840F4807021688860226882
:1017700002F14C0133462A46206A00F045F901E0A7
:101780001AE014E02068806800F46020B0F5602F53
:1017900006D12068806840F4A000216888600CE0D1
:1017A0002068806840F480102168886005E000BFF0
:1017B000002084F8240000E00127384667E7000095
:1017C0000024014000280140A30F00081310000866
:1017D000F50F000870B50446002594F82100022892
:1017E00003D00420A0630125C1E02068006820F038
:1017F0000E00216808602068006820F00100216860
:1018000008605C492068884252D95A497839206872
:10181000884201D1012047E0564964392068884256
:1018200001D1102040E0534950392068884201D14D
:10183000801539E04F493C392068884201D1801435
:1018400032E04C4928392068884202D14FF4803078
:101850002AE0484914392068884202D14FF48010A8
:1018600022E044492068884201D140041CE04249FA
:101870002068884201D1012016E03F4914312068D8
:10188000884201D110200FE03B492831206888426E
:1018900001D1801508E038493C312068884201D1E7
:1018A000801401E04FF480303349091F086051E093
:1018B000304978392068884201D1012047E02D491C
:1018C00064392068884201D1102040E0294950390C
:1018D0002068884201D1801539E026493C392068CA
:1018E000884201D1801432E0224928392068884298
:1018F00002D14FF480302AE01E4914392068884212
:1019000002D14FF4801022E01A492068884201D1A8
:1019100040041CE018492068884201D1012016E0EB
:10192000154914312068884201D110200FE0124976
:1019300028312068884201D1801508E00E493C31E9
:101940002068884201D1801401E04FF480300949B9
:1019500080394860012084F8210000BF002084F80D
:10196000200000BF606B10B12046616B884728469D
:1019700070BD0000800002400804024001460022C1
:1019800009B9012070471E4B086898420BD21D4BC5
:101990000868C01A1423B0FBF3F0800008641948EB
:1019A0000838C8630AE0164B0868C01A1423B0FB55
:1019B000F3F08000086412480838C863022081F8F8
:1019C00021000868026843F6F0708243D1E9010300
:1019D0001843CB6818430B6918434B6918438B694C
:1019E0001843CB69184302430868026000208863EB
:1019F000012081F82100002081F8200000BFC1E70C
:101A000008040240080002402DE9F04104460D465A
:101A100016461F464FF0000800BF94F8200001282A
:101A200002D10220BDE8F081012084F8200000BF2F
:101A300094F8210001282CD1022084F821000020F4
:101A4000A0632068006820F00100216808603B4620
:101A5000324629462046FFF73DFBE06A30B1206858
:101A6000006840F00E00216808600BE02068006804
:101A700020F00400216808602068006840F00A0037
:101A8000216808602068006840F001002168086053
:101A900006E000BF002084F8200000BF4FF00208DD
:101AA0004046BFE72DE9F847024600239C467BE10C
:101AB0004FF0010808FA03F4D1F8008008EA0400A6
:101AC000A0427DD1DFF8F4A2D1F80480A8EB0A0986
:101AD000D0453AD014DCB8F1030F50D009DCB8F18E
:101AE000000F31D0B8F1010F1CD0B8F1020F49D16D
:101AF00020E0B8F1110F18D0B8F1120F42D11EE05A
:101B0000B9F5881F25D006DCB9F5803F20D0B9F59E
:101B1000801F37D11AE0B9F5001F18D0B9F5041F9E
:101B200030D117E0D1F80CC02DE0D1F80C8008F1CD
:101B3000040C28E0D1F80C8008F1080C23E0D1F85F
:101B40000C8008F10C0C1EE000BF00BF00BF00BFFE
:101B500000BF00BFD1F80880B8F1000F02D14FF0EC
:101B6000040C0BE0D1F80880B8F1010F03D14FF05D
:101B7000080C146102E04FF0080C546103E04FF0D0
:101B8000000C00E000BF00BFFF2801D8904601E034
:101B900002F104084646FF2802D84FEA830803E012
:101BA000A3F108084FEA88084746D6F800804FF0AE
:101BB0000F0909FA07F928EA09080CFA07F900E001
:101BC0007AE048EA0908C6F80080D1F8048008F0F5
:101BD0008058B8F1805F6FD100BFDFF8E481D8F89A
:101BE000188048F00108DFF8D891C9F81880C84675
:101BF000D8F8188008F00108CDF8008000BF00BFB9
:101C00004FEAB9384FEA930958F829504FEA8378D8
:101C10004FEA18794FF00F0808FA09F825EA080585
:101C2000DFF8A081424502D14FF0000824E0DFF840
:101C30009881424502D14FF001081DE0DFF88C8108
:101C4000424502D14FF0020816E0DFF88481424598
:101C500002D14FF003080FE0DFF87881424502D14E
:101C60004FF0040808E0DFF87081424502D14FF0E0
:101C7000050801E04FF006084FEA83794FEA197929
:101C800008FA09F848EA0505DFF850814FEA930998
:101C900048F82950D1F8048008F48038B8F5803F1E
:101CA0000BD1DFF83C81D8F8008048EA0008DFF863
:101CB0003091C9F800800AE075E0DFF82481D8F897
:101CC000008028EA0008DFF81891C9F80080D1F8F0
:101CD000048008F40038B8F5003F0ED1DFF8008129
:101CE00008F10408D8F8008048EA0008DFF8F0900E
:101CF00009F10409C9F800800DE0DFF8E48008F17B
:101D00000408D8F8008028EA0008DFF8D49009F128
:101D10000409C9F80080D1F8048008F48018B8F5E7
:101D2000801F0ED1DFF8B88008F10808D8F80080CD
:101D300048EA0008DFF8A89009F10809C9F800800E
:101D40000DE0DFF89C8008F10808D8F8008028EA48
:101D50000008DFF88C9009F10809C9F80080D1F873
:101D6000048008F40018B8F5001F0ED1DFF8708069
:101D700008F10C08D8F8008048EA0008DFF8609005
:101D800009F10C09C9F800800DE0DFF8548008F172
:101D90000C08D8F8008028EA0008DFF8449009F120
:101DA0000C09C9F800805B1CD1F8008028FA03F800
:101DB000B8F1000F7FF47CAEBDE8F8870000111089
:101DC0000010024000080140000C014000100140DA
:101DD0000014014000180140001C014008000140AF
:101DE000000401400AB1016101E00B040361704786
:101DF00001480068704700009800002010B50848AE
:101E0000006840F0100006490860052000F080F8E6
:101E10000F2000F007F800F02BF8002010BD0000A4
:101E20000020024070B504460E4800784FF47A71E5
:101E3000B1FBF0F00C490968B1FBF0F5284600F061
:101E4000A5FD08B1012070BD102C07D2002221464B
:101E5000501E00F01EF80548046001E00120F2E782
:101E60000020F0E7A0000020000000209C000020DF
:101E7000704701460846002809DB00F01F030122D5
:101E80009A4043099B0003F1E023C3F8002100BFFF
:101E900070472DE9F05F80460D461646002701F099
:101EA0004DFB074639462A46334601F00700C0F18C
:101EB000070ABAF1040F02D94FF0040A01E0C0F199
:101EC000070AD14600F1040ABAF1070F02D24FF017
:101ED000000A01E0A0F1030AD4464FF0010A0AFA11
:101EE00009FAAAF1010A0AEA020A0AFA0CFA4FF000
:101EF000010B0BFA0CFBABF1010B0BEA030B4AEAEB
:101F00000B042146404601F021FBBDE8F09F000094
:101F100000BF00F00702064B19684FF6FF03194097
:101F2000044B0B4343EA0221014B196000BF704789
:101F30000CED00E00000FA052DE9F04385B00646FF
:101F400042A30FCB01AC0FC444A0006800904FF037
:101F50000008002500270024A146042E36D004DC0A
:101F6000012E3BD0022E6BD15FE0082E32D0102E16
:101F700066D13B484468006800F0807000B301A857
:101F8000C4F38341475C04F4803070B13448406846
:101F9000C0F340401DF8008004F4803040B1314867
:101FA000B0FBF8F000FB07F502E02F4807FB00F557
:101FB0002B48406800F48000B0F5800F01D1A9469D
:101FC00003E068000321B0FBF1F93AE000F0D2F938
:101FD000814636E000F0CEF9814632E02048046ABE
:101FE00004F44070B0F5807F05D104F0020010B118
:101FF0004FF4004918E004F44070B0F5007F07D1B9
:102000001748406A00F0020010B149F640490BE061
:1020100004F44070B0F5407F06D11148006800F428
:10202000003008B14FF224490BE000F093F90C495D
:102030004968C1F38131491C4900B0FBF1F900E066
:1020400000BF00BF484605B0BDE8F08302030405A9
:10205000060708090A0B0C0D0E0F101001020000F4
:102060000010024000127A0000093D00F8B5044655
:1020700000260025207800F0010000286BD0002702
:102080004348C06900F0805070B900BF4048C06943
:1020900040F080503E49C8610846C06900F0805059
:1020A000009000BF00BF01273A48006800F480702C
:1020B000B0B93848006840F4807036490860FFF7CE
:1020C00097FE064606E0FFF793FE801B642801D9C1
:1020D0000320F8BD2F48006800F480700028F2D07B
:1020E0002B48006A00F440752DB3A08800F44070BE
:1020F000A84220D02648006A20F4407501202649D5
:102100000860002008602248056205F0010090B1D7
:10211000FFF76EFE064608E0FFF76AFE801B41F2FD
:102120008831884201D90320D3E71948006A00F0BA
:1021300002000028F0D01648006A20F44070616860
:10214000084313490862012F04D10846C06920F0F2
:102150008050C86100BF207800F00200022807D13B
:102160000B48406820F44040A16808430849486093
:10217000207800F01000102807D10548406820F4AE
:10218000800061690843024948600020A1E700001F
:1021900000100240007000404004424270B5044606
:1021A0000D460CB9012070BD5A48006800F00700C8
:1021B000A8420ED25748006820F00700284355492E
:1021C00008600846006800F00700A84201D001201E
:1021D000E9E7207800F0020002281DD1207800F005
:1021E0000400042805D14C48406840F4E0604A49A6
:1021F0004860207800F00800082805D1464840686B
:1022000040F46050444948604348406820F0F00082
:10221000A168084340494860207800F0010078B385
:102220006068012806D13C48006800F4003090B98D
:102230000120B8E76068022806D13748006800F03E
:10224000007040B90120AEE73348006800F002009A
:1022500008B90120A7E73048406820F00300616812
:1022600008432D494860FFF7C3FD064609E0FFF724
:10227000BFFD801B41F28831884202D9032092E7DA
:1022800007E02548406800F00C006168B0EB810F62
:10229000EDD12048006800F00700A8420ED91D4883
:1022A000006820F0070028431A49086008460068C3
:1022B00000F00700A84201D0012074E7207800F068
:1022C0000400042807D11448406820F4E060E16865
:1022D000084311494860207800F00800082808D118
:1022E0000D48406820F46050216940EAC1000A4965
:1022F000486000F03FF808494968C1F30311074AF4
:10230000515CC8400649086006480068FFF78AFD2E
:10231000002048E70020024000100240928C000894
:10232000000000209C000020014800687047000069
:102330000000002000B5FFF7F7FF04494968C1F32A
:102340000221034A515CC84000BD00000010024059
:10235000A28C000800B5FFF7E7FF04494968C1F304
:10236000C221034A515CC84000BD00000010024079
:10237000A28C0008F0B585B00FF26C0C9CE8E01060
:1023800001A8A0E8E0101CA52D68009500210022FE
:10239000002300240020194D696801F00C05F5B1F7
:1023A000042D02D0082D19D101E0154819E001AD26
:1023B000C1F38346AC5D01F4803555B10F4D6D68B6
:1023C000C5F340451DF805200D4D6543B5FBF2F3FF
:1023D00002E00C4D04FB05F3184602E000BF08487C
:1023E00000BF00BF05B0F0BD0203040506070809E1
:1023F0000A0B0C0D0E0F101001020000001002401D
:1024000000127A0000093D00F8B504460CB901201D
:10241000F8BD207800F00100002878D0F848406826
:1024200000F00C0004280CD0F548406800F00C00C7
:10243000082811D1F248406800F48030B0F5803FA0
:102440000AD1EF48006800F4003000285FD06068CF
:1024500000285CD10120DBE700BF6068B0F5803F59
:1024600006D1E748006840F48030E549086028E07C
:10247000606858B9E248006820F48030E04908609C
:102480000846006820F4802008601AE06068B0F513
:10249000A02F0BD1DA48006840F48020D8490860AA
:1024A0000846006840F4803008600AE0D4480068BC
:1024B00020F48030D24908600846006820F480206B
:1024C000086000BF606888B1FFF792FC054606E02F
:1024D000FFF78EFC401B642801D9032098E7C84809
:1024E000006800F400300028F2D010E0FFF780FC14
:1024F000054606E0FFF77CFC401B642801D9032059
:1025000086E7BF48006800F400300028F2D1207848
:1025100000F00200022857D1B948406800F00C00D2
:1025200050B1B748406800F00C00082818D1B448F2
:10253000406800F4803098B9B148006800F00200AB
:1025400020B12069012801D0012061E7AC48006872
:1025500020F0F800616940EAC100A949086033E051
:102560002069E8B10120A7490860FFF741FC054652
:1025700006E0FFF73DFC401B022801D9032047E796
:102580009F48006800F002000028F2D09C480068D4
:1025900020F0F800616940EAC1009949086013E041
:1025A000002098490860FFF723FC054606E0FFF786
:1025B0001FFC401B022801D9032029E7904800682E
:1025C00000F002000028F2D1207800F0080008286E
:1025D0002DD1A069B8B101208B490860FFF708FC34
:1025E000054606E0FFF704FC401B022801D9032042
:1025F0000EE78348406A00F002000028F2D0012074
:1026000000F0ECFC13E000207F490860FFF7F0FBCE
:10261000054606E0FFF7ECFB401B022801D903202A
:10262000F6E67748406A00F002000028F2D12078F0
:1026300000F00400042873D100277148C06900F03D
:10264000805070B900BF6E48C06940F080506C493E
:10265000C8610846C06900F08050009000BF00BF0C
:1026600001276A48006800F48070B0B967480068C4
:1026700040F4807065490860FFF7BAFB054606E044
:10268000FFF7B6FB401B642801D90320C0E65F4872
:10269000006800F480700028F2D000BFE0680128D4
:1026A00006D15748006A40F001005549086227E00A
:1026B000E06858B95248006A20F0010050490862A9
:1026C0000846006A20F00400086219E0E068052866
:1026D0000BD14B48006A40F00400494908620846A3
:1026E000006A40F0010008620AE04548006A20F0F4
:1026F0000100434908620846006A20F004000862AD
:1027000000BFE068A0B1FFF773FB054609E0FFF7E3
:102710006FFB401B41F28831884202D9032077E6E3
:1027200022E03748006A00F002000028EFD012E0F3
:10273000FFF75EFB054608E0FFF75AFB401B41F23E
:102740008831884201D9032062E62D48006A00F0F2
:1027500002000028F0D1012F05D12948C06920F0DE
:1027600080502749C86100BFE069C8B32448406869
:1027700000F00C00082860D0E069022848D1002051
:1027800020490866FFF734FB054606E0FFF730FBFB
:10279000401B022801D903203AE61948006800F0DE
:1027A00000700028F2D1206AB0F5803F07D11448AC
:1027B000406820F40030A168084311494860D4E91A
:1027C000080108430E49496821F4741108430C4973
:1027D000486001200B490866FFF70AFB054607E041
:1027E0003DE0FFF705FB401B022801D903200FE65F
:1027F0000348006800F000700028F2D02FE00000CD
:10280000001002400000424280044242007000403A
:10281000002014490866FFF7EBFA054606E0FFF7CB
:10282000E7FA401B022801D90320F1E50E480068B1
:1028300000F000700028F2D111E0E069012800D119
:10284000E6E50948466806F48031206A814204D1F1
:1028500006F47011606A814201D00120D8E50020A1
:10286000D6E50000000042420010024070B5044668
:102870000E4615461CB1A069B0F5807F01D101203C
:1028800070BD94F8410028B9002084F8400020462B
:1028900000F020F804F108012068FEF755FC3146ED
:1028A000A2682068FEF78CFC2946236BD4E901025C
:1028B000FEF728FCA168206850F8210040F00100D4
:1028C000A268216841F82200012084F8410000201C
:1028D000D6E7000010B586B0044600BF1E48406928
:1028E00040F480701C4948610846406900F48070DB
:1028F000019000BF00BF00BF0846806940F0200083
:1029000088610846806900F02000019000BF00BF88
:1029100000BF0846806940F0400088610846806931
:1029200000F04000019000BF00BF4CF20370029025
:1029300002200390012004900320059002A907487B
:10294000FFF7B0F84FF68070029002A90448FFF735
:10295000A9F806B010BD00000010024000140140AC
:1029600000180140042808D14FF0E021096941F026
:1029700004014FF0E022116107E04FF0E021096906
:1029800021F004014FF0E0221161704770B5044658
:102990002546681EB0F1807F01D301200FE0681E3C
:1029A0004FF0E02148610F214FF0FF3000F0CEFDE5
:1029B00000204FF0E021886107200861002070BDF1
:1029C00010B504460CB9012010BD94F83D0028B99B
:1029D000002084F83C00204600F025F8022084F80E
:1029E0003D00211D206800F067FB012084F84600AF
:1029F00000BF84F83E0001213F20015540200155D1
:102A00004120015500BF00BF012084F8420043204F
:102A10000155442001554520015500BF012084F88F
:102A20003D000020D0E77047014691F83D000128A5
:102A300001D001207047022081F83D000868C0687D
:102A400040F001000B68D860164B0868984213D01C
:102A5000154B086898420FD00868B0F1804F0BD032
:102A6000124B0868984207D0114B0868984203D06F
:102A7000104B086898420CD10868806800F0070283
:102A8000062A0CD00868006840F001000B68186046
:102A900005E00868006840F001000B68186000203D
:102AA000C8E70000002C0140003401400004004051
:102AB00000080040000C0040704700002DE9F0477E
:102AC0000446206805682068C668206847694FF09A
:102AD0000008C14605F00F08B8F1000F0AD105F053
:102AE000200038B106F0200020B1204600F05CFB49
:102AF000BDE8F087B8F1000F71D007F0010018B9F8
:102B000006F4907000286AD005F0010030B106F498
:102B1000807018B1E06B40F00100E06305F0040044
:102B200030B107F0010018B1E06B40F00200E06343
:102B300005F0020030B107F0010018B1E06B40F081
:102B40000400E06305F0080048B106F0200010B969
:102B500007F0010018B1E06B40F00800E063E06BA3
:102B600068B305F0200028B106F0200010B120461F
:102B700000F01AFB20684069C0F38019E06B00F098
:102B8000080010B9B9F1000F22D0204600F0ECFA8D
:102B90002068406900F04000B0B12068406920F032
:102BA000400021684861606B50B11848616B486310
:102BB000606BFEF70FFE10B1606B416B88470CE055
:102BC0002046FFF779FF08E02046FFF775FF04E095
:102BD0002046FFF771FF0020E06389E7FFE705F07B
:102BE000800030B106F0800018B1204600F0AAFB4A
:102BF0007EE705F0400030B106F0400018B12046F5
:102C000000F0C2FA74E700BF72E700005531000817
:102C100010B504460CB9012010BDA06900B100E058
:102C200000BF94F8390028B9002084F83800204605
:102C300000F028F8242084F839002068C06820F4C7
:102C400000502168C860204600F0FEFA2068006944
:102C500020F49040216808612068406920F02A0033
:102C6000216848612068C06840F400502168C8604D
:102C70000020E063202084F8390084F83A00002026
:102C8000CAE7000010B586B004465849206888425B
:102C90004BD100BF00BF5648806940F00400544942
:102CA00088610846806900F00400019000BF00BF01
:102CB00000BF00BF00BF0846806940F00400886183
:102CC0000846806900F00400019000BF00BF00BF0B
:102CD00000BF00BF0846806940F480408861084614
:102CE000806900F48040019000BF00BF00BF48151C
:102CF000029002200390012004900320059002A975
:102D00003C48FEF7CFFE4FF4806002900020039015
:102D100002A93848FEF7C6FE2520FFF7AAF80322CD
:102D200011462520FFF7B5F85DE033492068884259
:102D300059D100BF00BF2E48806940F008002C49DF
:102D400088610846806900F00800019000BF00BF5C
:102D500000BF00BF00BF0846806940F008008861DE
:102D60000846806900F00800019000BF00BF00BF66
:102D700000BF00BF0846C06940F48020C861084613
:102D8000C06900F48020019000BF00BF00BF08159B
:102D9000029002200390002004900320059002A9D5
:102DA0001648FEF77FFE4FF400600290002003906B
:102DB00004900320059002A91048FEF773FE00223C
:102DC00011462720FFF765F82720FFF752F8206803
:102DD000C06840F020002168C8602068C06840F0EA
:102DE00010002168C86006B010BD00000038014026
:102DF000001002400008014000480040000C014063
:102E00002DE9F84F04460E46174699464FF0000A42
:102E100094F83A0020285DD106B117B90120BDE829
:102E2000F88F00BF94F83800012801D10220F6E79E
:102E3000012084F8380000BF0020E063222084F8DD
:102E40003A00FEF7D5FF8246A785E785A068B0F572
:102E5000805F04D1206910B90025B04602E03546F4
:102E60004FF0000800BF002084F8380000BF29E0C0
:102E70005346002220212046CDF8009000F092FA1F
:102E800008B10320CBE745B920684068C0F30800CB
:102E9000A8F8000008F1020811E0A068B0F5805F12
:102EA00003D0A06828B9206918B920684068287044
:102EB00004E02068406800F07F0028706D1CE08D01
:102EC000401EE085E08D0028D2D1202084F83A0011
:102ED0000020A4E70220A2E710B5034693F83A00C9
:102EE00020282FD101B10AB9012010BD00BF93F8ED
:102EF0003800012801D10220F7E7012083F83800CB
:102F000000BF99629A85DA850020D863222083F871
:102F10003A0000BF002083F8380000BF1868C0687E
:102F200040F480701C68E0601868406940F001005F
:102F30001C6860611868C06840F020001C68E06090
:102F40000020D2E70220D0E71D4A0168914236D125
:102F50001C49098801F4004189BB1A49098801F418
:102F6000804171B1184909780A2903D00021154A16
:102F7000118024E01349098841F40041114A11806D
:102F80001DE0114909780D2906D10E49098841F43F
:102F900080410C4A118012E00B490978094A1288D5
:102FA000C2F30D02094B995406490988491C054A88
:102FB000118011460988C72901DD00211180704761
:102FC000003801409400002096000020181A0020CC
:102FD000704700BFFEE700BFFEE7704708B508492D
:102FE0000968C9084FF47A72B1FBF2F141430091CC
:102FF00000BF00BF00994A1E00920029F9D108BD08
:1030000000000020704770472DE9F0472348006812
:10301000006900F0010000283DD06FF001001F4959
:10302000096808611E48B0F800A000201D4908701A
:10303000012000F0A9FA1C48006800282ADB1A4881
:103040000068B0F5806F25DA504605F012F880462A
:103050004FF06632154B05F073F806464FF06632B6
:10306000134B05F051FA044604F098FD0E49096827
:103070004900104A42F8210000210B480068012253
:1030800002EB40000B4A42F8201007480068401C41
:103090000549086000BFBDE8F0870000201D002042
:1030A000A4000020A1000020A800002066664A3F7E
:1030B0006666FA3F681D002010B50268204B9842F2
:1030C0000ED0204B98420BD0B0F1804F08D01E4B51
:1030D000984205D01D4B984202D01D4B984203D117
:1030E00022F070024B681A43154B98420ED0154BD4
:1030F00098420BD0B0F1804F08D0134B984205D0C6
:10310000124B984202D0124B984203D122F44072E3
:10311000CB681A4322F080034C6943EA0402026040
:103120008B68C3620B688362054B984202D0054BE3
:10313000984201D10B6903630123436110BD000074
:10314000002C014000340140000400400008004011
:10315000000C004070B505466C6A0020E085E084F4
:103160002046FFF7A9FC70BD0168C96821F4907181
:103170000268D1600168496921F00101026851616A
:10318000202180F83A10704710B504462068C068C6
:1031900020F040002168C860202084F839002046D3
:1031A000FFF716FF002010BD70B5044694F83A00F2
:1031B000222847D1A068B0F5805F0CD1206950B9B2
:1031C0000025A66A20684068C0F308003080A06A25
:1031D000801CA06215E0A56A0026A068B0F5805F9B
:1031E00003D0A06828B9206918B920684068287001
:1031F00004E02068406800F07F002870A06A401C4E
:10320000A062E08D401E80B2E085C8B92068C06829
:1032100020F020002168C8602068C06820F4807019
:103220002168C8602068406920F001002168486179
:10323000202084F83A002046FFF786FE002070BD6B
:103240000020FCE70220FAE770B50446216809690E
:1032500021F44051E2681143226811612269A1689A
:103260001143626941EA02052168C96841F20C62B2
:10327000914329432268D1602168496921F4407152
:10328000A2691143226851612D4A2168914202D1FD
:10329000FFF760F801E0FFF74DF800EBC00101EB2C
:1032A000001162689200B1FBF2F100EBC00202EB88
:1032B000001263689B00B2FBF3F26423B2FBF3F2EB
:1032C00002EBC20303EB0212A1EB8201322202EBFA
:1032D00001116422B1FBF2F101F0F00100EBC00238
:1032E00002EB001263689B00B2FBF3F26423B2FBB3
:1032F000F3F201EB021200EBC00101EB0011636875
:103300009B00B1FBF3F100EBC00303EB0013666815
:10331000B600B3FBF6F36426B3FBF6F303EBC30688
:1033200006EB0313A1EB8301322303EB01116423AA
:10333000B1FBF3F101F00F0111442268916070BDFF
:1033400000380140014691F83900212828D18868C9
:10335000B0F5805F0BD1086948B90A6A1088C0F3DC
:1033600008000B685860086A801C086205E00B6A58
:10337000581C086218780B685860C88C401E80B2D0
:10338000C88458B90868C06820F080000B68D8600D
:103390000868C06840F040000B68D86000207047A3
:1033A0000220FCE72DE9F04104460D4617469846F9
:1033B000069E21E0701CF8B12EB1FEF719FDA0EBBE
:1033C0000800B04218D92068C06820F4D070216885
:1033D000C8602068406920F0010021684861202011
:1033E00084F8390084F83A0000BF002084F83800DF
:1033F00000BF0320BDE8F081206800682840A84293
:1034000001D1012000E00020B842D3D00020F1E734
:1034100010B50648FFF752FB00BF012204490348DC
:10342000FFF75AFD0028F8D110BD0000E01A002077
:10343000960000201CB53E4800680068C0F3C0003C
:1034400090B100BF002000903948006800680090EB
:10345000374800684068009000BF00BF34480068EB
:103460000068334800684068314800680068C0F36D
:10347000401010B34FF0FF33012201A92C48FFF791
:10348000BFFC2C48B0F88000C0F30E007F2815DA8E
:103490009DF804002749B1F88010C1F30E01254AB8
:1034A00050541046B0F88000401C1146B1F880100E
:1034B00060F30E011046A0F880101BE01D48B0F824
:1034C00080006FF30E001B49A1F880009DF80400F6
:1034D000B1F88010C1F30E01164A50541046B0F8EE
:1034E0008000401C1146B1F8801060F30E011046B8
:1034F000A0F880100E4800680068C0F30010B0B15A
:103500000C48B0F8800020F4004000F50040094964
:10351000A1F8800000BF0020009005480068006806
:103520000090034800684068009000BF00BF1CBDC9
:10353000781B0020B81B002000BFFEE7024800688F
:10354000C0F30220704700000CED00E010B5002829
:1035500004DB0A07130E054A135406E00A07140E8B
:10356000034A00F00F031B1FD45410BD00E400E019
:1035700018ED00E030380A2801D201207047002001
:10358000704700BF704700001249096821F001012F
:10359000104A11601049896821F001010E4A9160BA
:1035A00000BF0D49896801F001010029F9D10A49DC
:1035B000C860896841F00101074A916005490968BE
:1035C00041F00101034A11601146096841F480018C
:1035D00011607047082401400000024001B58EB020
:1035E000182104A8FDF7C0FB002001900290039071
:1035F00000BF00BF4448806940F4007042498861C0
:103600000846806900F40070009000BF00BF00BF52
:1036100000BF00BF0846806940F00400886108468A
:10362000806900F00400009000BF00BF00BF00BF31
:103630000846406940F0010048610846406900F0D2
:103640000100009000BF00BF02200490800306909C
:1036500004A8FEF70BFD02200A9003200B900AA994
:103660002A48FEF71FFA2A482A49086000204860C5
:103670000021284881608021C160490001618900E2
:103680004161002181614FF48051C161FEF776F9FB
:1036900000BF20482049086208461E49486200BF12
:1036A0001E481D4908600020486000211A488160BA
:1036B0000121017301610021017581614FF46021D5
:1036C000C161FDF7D5FE1448FDF79CFD0120019076
:1036D0000290039001A91048FDF716FE032211463F
:1036E0000B20FEF7D6FB0B20FEF7C3FB00230B4994
:1036F0004C3108480E9AFEF787F900220EA90648B9
:10370000FDF7A8FF0FB000BD001002400008014007
:1037100008000240AC1C0020F01C002000240140E6
:1037200010B5044600204FF0E0210861FFF71AF9B8
:103730002046E11704EB5171C1F3CF01014A11801A
:1037400010BD00008C00002070B504464FF47A7064
:1037500094FBF0F594FBF0F100FB114603E0074801
:1037600000F00EF86D1E002DF9D12EB14FF47A71D4
:1037700006FB01F000F004F870BD000040420F00AD
:103780000146114A12884A434FF0E0235A61002251
:103790009A611A46126942F001021A6100BF4FF0A5
:1037A000E022106900F001021AB100F48032002A10
:1037B000F5D04FF0E022126922F001024FF0E02331
:1037C0001A6100229A6170478C00002000BF054AF0
:1037D000126802F04002002AF9D0C2B2014B1B1D50
:1037E0001A6070470038014038B504460D4600BFE6
:1037F00000BF1248C06940F002001049C861084685
:10380000C06900F00200009000BF00BF00BF0C487C
:103810000C4908600846456000218160C460FFF7DC
:10382000CFF8032201211D20FEF733FB1D20FEF7F8
:1038300020FB0448FFF7F8F838BD000000100240F4
:1038400000040040201D0020F8B54BF286632822BA
:10385000B921462000F0AAFA44F2CF532322B9211D
:10386000462000F0A3FA6FF0130417E004F11400EF
:1038700000EBD07149104D1C47F6C15004F1B4065D
:10388000B3B205F14606B2B204F1B406B1B2C5F165
:1038900046060090B0B200F0BEFA641C142CE5DDC0
:1038A0004FF6625328225A21462000F07FFA4EF24A
:1038B000234323225A21462000F078FA4FF6E07085
:1038C00055235A224B210090322000F00BFB4FF67B
:1038D000E07069235A225F210090322000F002FB41
:1038E0004FF478432822B921AF2000F05FFA4AF262
:1038F00089132322B921AF2000F058FA49F265005C
:10390000C823BE22AA210090A02000F0EBFAF8BD47
:1039100070B5ADF5BE5DF422A74941F2CC606844B4
:10392000FDF7F0F9F422A54941F2D8506844FDF7BB
:10393000E9F9F422A24941F2E4406844FDF7E2F9D2
:10394000002419E041F2E4406844005DC0F51675BA
:1039500044F69F302B4641F2D8566E440090365DB7
:1039600006F12302294641F2CC666E44365D06F12B
:10397000230000F050FA641CF22CE3DBD8229149BA
:1039800041F20C406844FDF7BDF9D8228E4941F25E
:1039900034306844FDF7B6F9D8228C4941F25C20F6
:1039A0006844FDF7AFF9002419E041F25C20684457
:1039B000005D00F14B054FF66F2041F234366E4446
:1039C0000090365D06F20D232A4641F20C466E4405
:1039D000365D06F20D21284600F01DFA641CD72C36
:1039E000E3DBEC227A4941F270106844FDF78AF972
:1039F000EC22784941F284006844FDF783F9EC2217
:103A000075490DF69870FDF77DF9002418E00DF664
:103A10009870005DC0F519754CF6E0702B4641F2C8
:103A200084066E440090365D06F21312294641F278
:103A300070166E44365D06F2131000F0ECF9641C4B
:103A4000E92CE4DB782265490DF57260FDF75AF93F
:103A5000782263490DF6A860FDF754F97822614990
:103A60000DF56360FDF74EF9002416E00DF5636077
:103A7000005D00F59C7540F27F700DF6A866009021
:103A8000365D06F20F232A460DF57266365D06F2A4
:103A90000F21284600F0BFF9641C782CE6DBA82231
:103AA00051490DF68850FDF72DF9A8224F490DF523
:103AB0004E60FDF727F9A8224D490DF63840FDF775
:103AC00021F9002417E00DF63840005D40F267212F
:103AD0000D1A47F2AE300DF54E660090365D06F5D4
:103AE000D2722B4619460DF68856365D06F5D27011
:103AF00000F091F9641CA52CE5DB64223D490DF62C
:103B0000D430FDF7FFF864223B490DF53760FDF72F
:103B1000F9F8642239490DF60C30FDF7F3F800246A
:103B200016E00DF60C30005D00F261154BF2B65058
:103B30000DF537660090365D06F513732A460DF6CF
:103B4000D436365D06F51371284600F064F9641C1E
:103B5000612CE6DB4FF46A7229490DF26470FDF7BF
:103B6000D1F84FF46A722749EFA8FDF7CBF84FF46C
:103B70006A72254905A8FDF7C5F8002414E005A8D8
:103B8000005DC0F1F0054FF65D50ABB2EFAE0090B6
:103B9000365D06F59172A9B20DF26476365D06F5D2
:103BA000917000F038F9641C40F2A6308442E6DBE4
:103BB0000DF5BE5D70BD0000188E0008501B010899
:103BC000441C0108381D0108101E0108E81E0108E8
:103BD000C01F0108AC2001089821010884220108B7
:103BE000FC22010874230108EC2301089424010835
:103BF0003C250108E425010848260108AC260108F7
:103C000010270108B82A0108602E010870B5044683
:103C1000002609480588408845430021084603F0EE
:103C2000F9F903F0D3FC00BF02E004480480761CDD
:103C3000AE42FAD370BD0000681B00200008006C83
:103C400010B5044658488471002C58D1F0205649CC
:103C500008804FF4A07048800846808845F21051D3
:103C6000884210D14FF430504F4908814FF428500A
:103C700048814FF42C5088814FF4F07008804FF445
:103C8000487048801AE04848808841F663118842AD
:103C90000DD12C20444908812B2048812A2088817D
:103CA0004FF4F07008804FF44870488006E02C20F4
:103CB0003D4908812A2048812B2088813A48808804
:103CC00045F21031884205D03748808847F2967116
:103CD000884206D14FF4A070334908804FF4F07049
:103CE00048803148808849F60601884258D14FF40F
:103CF000F0702D4908804FF44870488050E04FF430
:103D0000A07029490880F02048800846808845F244
:103D10001051884210D14FF43050234908814FF49C
:103D2000285048814FF42C5088814FF44870088007
:103D30004FF4F070488020E01B48808841F6631102
:103D4000884205D01848808849F6060188420DD17E
:103D50002C20154908812A2048812B2088814FF486
:103D6000487008804FF4F070488006E02C200E491F
:103D700008812A2048812B2088810B48808845F2C1
:103D80001031884205D00848808847F296718842F1
:103D900006D14FF4F070044908804FF4A0704880B9
:103DA000002003F001F810BD681B00202DE9FF5F23
:103DB0000546894614469B462E1B27E0A9EB040ABC
:103DC0001FE0204604F06CF9CDE90201A9EB0A01DD
:103DD0004943AA1BAB1B02FB031004F04AF9074638
:103DE00003F058FECDE90001DDE9022304F06CF98F
:103DF00005D81FFA8AF1B0B25A4600F063F80AF10A
:103E0000010A09EB04005045DBDA761C2819B042A0
:103E1000D4DABDE8FF9F2DE9FF4F84B081468A4682
:103E20000020029083460698A0EB09050798A0EBB6
:103E30000A06CDF80490CDF800A0002D01DD012781
:103E400005E00DB9002702E04FF0FF376D42002E6C
:103E500002DD4FF0010806E016B94FF0000802E05D
:103E60004FF0FF387642B54201DD2C4600E0344683
:103E7000002003901EE0009A91B2019A90B2119A2C
:103E800000F020F8029828440290B3440298A0421F
:103E900005DD0298001B0290019838440190A3456B
:103EA00004DDABEB040B0098404400900398401CE9
:103EB00080B20390611C03988842DCDD08B0BDE845
:103EC000F08F000070B505460E4614463146284670
:103ED00003F0A0F803F07AFB01490C8070BD0000EC
:103EE0000008006C2DE9FC4F04460D4616461F469F
:103EF000B44201DD304600E020468246B44201DD96
:103F0000204600E030468346BD4201DD384600E0F1
:103F100028460190BD4201DD284600E03846009069
:103F2000D04610E0DDF8049008E01FFA89F11FFA8E
:103F300088F00B9AFFF7C6FF09F101090098814547
:103F4000F3DD08F10108D845ECDDBDE8FC8F10B5C4
:103F5000CF2003F02FFB002003F020FBC12003F053
:103F60001DFB302003F01AFBED2003F023FB64203F
:103F700003F014FB032003F011FB122003F00EFBEF
:103F8000812003F00BFBE82003F014FB852003F0F5
:103F900005FB102003F002FB7A2003F0FFFACB2090
:103FA00003F008FB392003F0F9FA2C2003F0F6FAAD
:103FB000002003F0F3FA342003F0F0FA022003F0BB
:103FC000EDFAF72003F0F6FA202003F0E7FAEA20F2
:103FD00003F0F0FA002003F0E1FA002003F0DEFA2B
:103FE000C02003F0E7FA1B2003F0D8FAC12003F049
:103FF000E1FA012003F0D2FAC52003F0DBFA302009
:1040000003F0CCFA302003F0C9FAC72003F0D2FA4B
:10401000B72003F0C3FA362003F0CCFA482003F0AF
:10402000BDFA3A2003F0C6FA552003F0B7FAB120E2
:1040300003F0C0FA002003F0B1FA1A2003F0AEFA40
:10404000B62003F0B7FA0A2003F0A8FAA22003F082
:10405000A5FAF22003F0AEFA002003F09FFA262022
:1040600003F0A8FA012003F099FAE02003F0A2FA85
:104070000F2003F093FA2A2003F090FA282003F08F
:104080008DFA082003F08AFA0E2003F087FA082040
:1040900003F084FA542003F081FAA92003F07EFA99
:1040A000432003F07BFA0A2003F078FA0F2003F094
:1040B00075FA002003F072FA002003F06FFA002076
:1040C00003F06CFA002003F069FAE12003F072FAC1
:1040D000002003F063FA152003F060FA172003F0C4
:1040E0005DFA072003F05AFA112003F057FA062070
:1040F00003F054FA2B2003F051FA562003F04EFA45
:104100003C2003F04BFA052003F048FA102003F09E
:1041100045FA0F2003F042FA3F2003F03FFA3F2018
:1041200003F03CFA0F2003F039FA2B2003F042FA97
:10413000002003F033FA002003F030FA012003F0EE
:104140002DFA3F2003F02AFA2A2003F033FA002048
:1041500003F024FA002003F021FA002003F01EFAF5
:10416000EF2003F01BFA112003F024FA7820FFF768
:10417000EBFA292003F01EFA10BD10B5FF2003F062
:1041800019FAFF2003F00AFA982003F007FA062034
:1041900003F004FABC2003F00DFA012003F0FEF94D
:1041A0000F2003F0FBF9612003F0F8F9FF2003F082
:1041B000F5F9012003F0F2F9012003F0EFF90B20EB
:1041C00003F0ECF9102003F0E9F9372003F0E6F9E9
:1041D000632003F0E3F9FF2003F0E0F9FF2003F090
:1041E000DDF9012003F0DAF9012003F0D7F900200E
:1041F00003F0D4F9002003F0D1F9FF2003F0CEF949
:10420000522003F0CBF9012003F0C8F9002003F09D
:10421000C5F9402003F0C2F9BD2003F0CBF901201D
:1042200003F0BCF9232003F0B9F9452003F0B6F9F7
:10423000672003F0B3F9012003F0B0F9232003F065
:10424000ADF9452003F0AAF9672003F0A7F9BE20D5
:1042500003F0B0F9002003F0A1F9012003F09EF96A
:10426000AB2003F09BF9602003F098F9222003F0C3
:1042700095F9222003F092F9222003F08FF92220F1
:1042800003F08CF9222003F089F9C72003F092F99A
:10429000362003F083F9ED2003F08CF97F2003F042
:1042A0007DF90F2003F07AF9C02003F083F90F2085
:1042B00003F074F90B2003F071F90A2003F06EF992
:1042C000FC2003F077F9082003F068F9DF2003F001
:1042D00071F9002003F062F9002003F05FF900207B
:1042E00003F05CF9002003F059F9002003F056F9BF
:1042F000202003F053F9F32003F05CF9742003F05D
:104300004DF9B42003F056F9002003F047F90020DE
:1043100003F044F9002003F041F9F72003F04AF9D3
:10432000822003F03BF9B12003F044F9002003F0B0
:1043300035F9132003F032F9132003F02FF9F2209E
:1043400003F038F9802003F029F9042003F026F95E
:10435000402003F023F9282003F020F9C12003F0C6
:1043600029F9172003F01AF9882003F017F988209B
:1043700003F014F9202003F011F9E02003F01AF9FA
:10438000002003F00BF90A2003F008F9122003F0D3
:1043900005F9102003F002F90E2003F0FFF82020A9
:1043A00003F0FCF8CC2003F0F9F8072003F0F6F84E
:1043B000062003F0F3F80B2003F0F0F80E2003F0D2
:1043C000EDF80F2003F0EAF80D2003F0E7F81520D0
:1043D00003F0E4F8102003F0E1F8002003F0DEF829
:1043E000E12003F0E7F8002003F0D8F80B2003F0F9
:1043F000D5F8132003F0D2F80D2003F0CFF80E20EB
:1044000003F0CCF81B2003F0C9F8712003F0C6F8C4
:10441000062003F0C3F8062003F0C0F80A2003F0DA
:10442000BDF80F2003F0BAF80E2003F0B7F80F2004
:1044300003F0B4F8152003F0B1F80C2003F0AEF847
:10444000002003F0ABF82A2003F0B4F8002003F0BA
:10445000A5F8002003F0A2F8012003F09FF8DF2068
:1044600003F09CF82B2003F0A5F8002003F096F849
:10447000002003F093F8032003F090F81F2003F0CE
:104480008DF83A2003F096F8552003F087F836208F
:1044900003F090F8002003F081F8112003F08AF86F
:1044A0007820FFF751F9292003F084F81420FFF752
:1044B0004BF92C2003F07EF810BD10B5ED2003F071
:1044C00079F8012003F06AF8FE2003F067F8EE2087
:1044D00003F070F8DE2003F061F8212003F05EF8AD
:1044E000F12003F067F8012003F058F8DF2003F013
:1044F00061F8102003F052F8C42003F05BF88F201D
:1045000003F04CF8C62003F055F8002003F046F8FD
:10451000E22003F043F8E22003F040F8E22003F049
:104520003DF8BF2003F046F8AA2003F037F8B0208A
:1045300003F040F80D2003F031F8002003F02EF8CE
:104540000D2003F02BF8002003F028F8112003F0D1
:1045500025F8002003F022F8192003F01FF80020AE
:1045600003F01CF8212003F019F8002003F016F8DE
:104570002D2003F013F8002003F010F83D2003F085
:104580000DF8002003F00AF85D2003F007F8002082
:1045900003F004F85D2003F001F8002002F0FEFFB4
:1045A000B12003F007F8802002F0F8FF002002F0AD
:1045B000F5FF8B2002F0F2FF002002F0EFFF9620C3
:1045C00002F0ECFF002002F0E9FFB22002F0F2FF5F
:1045D000002002F0E3FF002002F0E0FF022002F0E2
:1045E000DDFF002002F0DAFF032002F0D7FF0020F9
:1045F00002F0D4FFB32002F0DDFF002002F0CEFF76
:10460000002002F0CBFF002002F0C8FF002002F0E3
:10461000C5FF002002F0C2FF002002F0BFFF002013
:1046200002F0BCFF002002F0B9FF002002F0B6FF4C
:10463000002002F0B3FF002002F0B0FF002002F0E3
:10464000ADFF002002F0AAFF002002F0A7FF00202B
:1046500002F0A4FF002002F0A1FF002002F09EFF64
:10466000002002F09BFF002002F098FF002002F0E3
:1046700095FF002002F092FF002002F08FFF002043
:1046800002F08CFF002002F089FFB42002F092FFBC
:104690008B2002F083FF002002F080FF962002F0C2
:1046A0007DFF002002F07AFFA12002F077FF0020BA
:1046B00002F074FFB52002F07DFF022002F06EFFD1
:1046C000002002F06BFF032002F068FF002002F0E0
:1046D00065FF042002F062FF002002F05FFFB620B9
:1046E00002F068FF002002F059FF002002F056FFA0
:1046F000B72002F05FFF002002F050FF002002F020
:104700004DFF3F2002F04AFF002002F047FF5E20ED
:1047100002F044FF002002F041FF642002F03EFF5F
:10472000002002F03BFF8C2002F038FF002002F056
:1047300035FFAC2002F032FF002002F02FFFDC201A
:1047400002F02CFF002002F029FF702002F026FF6B
:10475000002002F023FF902002F020FF002002F052
:104760001DFFEB2002F01AFF002002F017FFDC20F3
:1047700002F014FF002002F011FFB82002F01AFF2F
:10478000002002F00BFF002002F008FF002002F0E2
:1047900005FF002002F002FF002002F0FFFE0020D3
:1047A00002F0FCFE002002F0F9FE002002F0F6FE0E
:1047B000BA2002F0FFFE242002F0F0FE002002F0FA
:1047C000EDFE002002F0EAFE002002F0E7FEC1202C
:1047D00002F0F0FE202002F0E1FE002002F0DEFEFA
:1047E000542002F0DBFE002002F0D8FEFF2002F091
:1047F000D5FE002002F0D2FEC22002F0DBFE0A202D
:1048000002F0CCFE002002F0C9FE042002F0C6FE39
:10481000002002F0C3FEC32002F0CCFE3C2002F0D8
:10482000BDFE002002F0BAFE3A2002F0B7FE0020E2
:1048300002F0B4FE392002F0B1FE002002F0AEFE1C
:10484000372002F0ABFE002002F0A8FE3C2002F070
:10485000A5FE002002F0A2FE362002F09FFE0020FE
:1048600002F09CFE322002F099FE002002F096FE3B
:104870002F2002F093FE002002F090FE2C2002F088
:104880008DFE002002F08AFE292002F087FE002023
:1048900002F084FE262002F081FE002002F07EFE5F
:1048A000242002F07BFE002002F078FE242002F09B
:1048B00075FE002002F072FE232002F06FFE002041
:1048C00002F06CFE3C2002F069FE002002F066FE61
:1048D000362002F063FE002002F060FE322002F07B
:1048E0005DFE002002F05AFE2F2002F057FE00204D
:1048F00002F054FE2C2002F051FE002002F04EFE89
:10490000292002F04BFE002002F048FE262002F093
:1049100045FE002002F042FE242002F03FFE00206F
:1049200002F03CFE242002F039FE002002F036FEA8
:10493000232002F033FE002002F030FEC42002F0FB
:1049400039FE622002F02AFE002002F027FE052038
:1049500002F024FE002002F021FE842002F01EFE60
:10496000002002F01BFEF02002F018FE002002F0F2
:1049700015FE182002F012FE002002F00FFEA42007
:1049800002F00CFE002002F009FE182002F006FEE4
:10499000002002F003FE502002F000FE002002F092
:1049A000FDFD0C2002F0FAFD002002F0F7FD1720BB
:1049B00002F0F4FD002002F0F1FD952002F0EEFD82
:1049C000002002F0EBFDF32002F0E8FD002002F0F1
:1049D000E5FDE62002F0E2FD002002F0DFFDC5204B
:1049E00002F0E8FD322002F0D9FD002002F0D6FDF1
:1049F000442002F0D3FD002002F0D0FD652002F03B
:104A0000CDFD002002F0CAFD762002F0C7FD002097
:104A100002F0C4FD882002F0C1FD002002F0BEFDBE
:104A2000C62002F0C7FD202002F0B8FD002002F0F1
:104A3000B5FD172002F0B2FD002002F0AFFD01200D
:104A400002F0ACFD002002F0A9FDC72002F0B2FD8B
:104A5000002002F0A3FD002002F0A0FD002002F0E3
:104A60009DFD002002F09AFDC82002F0A3FD002069
:104A700002F094FD002002F091FD002002F08EFD76
:104A8000002002F08BFDC92002F094FD002002F00E
:104A900085FD002002F082FD002002F07FFD002055
:104AA00002F07CFD002002F079FD002002F076FD8E
:104AB000002002F073FD002002F070FD002002F0E3
:104AC0006DFD002002F06AFD002002F067FD00206D
:104AD00002F064FD002002F061FD002002F05EFDA6
:104AE000002002F05BFD002002F058FDE02002F003
:104AF00061FD162002F052FD002002F04FFD1C2047
:104B000002F04CFD002002F049FD212002F046FD9C
:104B1000002002F043FD362002F040FD002002F0AC
:104B20003DFD462002F03AFD002002F037FD522004
:104B300002F034FD002002F031FD642002F02EFD71
:104B4000002002F02BFD7A2002F028FD002002F068
:104B500025FD8B2002F022FD002002F01FFD992090
:104B600002F01CFD002002F019FDA82002F016FD45
:104B7000002002F013FDB92002F010FD002002F029
:104B80000DFDC42002F00AFD002002F007FDCA203E
:104B900002F004FD002002F001FDD22002F0FEFC34
:104BA000002002F0FBFCD92002F0F8FC002002F00B
:104BB000F5FCE02002F0F2FC002002F0EFFCF32014
:104BC00002F0ECFC002002F0E9FCE12002F0F2FC33
:104BD000162002F0E3FC002002F0E0FC1C2002F0B2
:104BE000DDFC002002F0DAFC222002F0D7FC0020DD
:104BF00002F0D4FC362002F0D1FC002002F0CEFC02
:104C0000452002F0CBFC002002F0C8FC522002F04C
:104C1000C5FC002002F0C2FC642002F0BFFC0020B2
:104C200002F0BCFC7A2002F0B9FC002002F0B6FCD5
:104C30008B2002F0B3FC002002F0B0FC992002F0BF
:104C4000ADFC002002F0AAFCA82002F0A7FC002086
:104C500002F0A4FCB92002F0A1FC002002F09EFCAE
:104C6000C42002F09BFC002002F098FCCA2002F055
:104C700095FC002002F092FCD22002F08FFC002074
:104C800002F08CFCD82002F089FC002002F086FCA7
:104C9000E02002F083FC002002F080FCF32002F010
:104CA0007DFC002002F07AFCE22002F083FC05206B
:104CB00002F074FC002002F071FC0B2002F06EFC8C
:104CC000002002F06BFC1B2002F068FC002002F0C8
:104CD00065FC342002F062FC002002F05FFC4420FE
:104CE00002F05CFC002002F059FC4F2002F056FC60
:104CF000002002F053FC612002F050FC002002F082
:104D00004DFC792002F04AFC002002F047FC88208C
:104D100002F044FC002002F041FC972002F03EFC2F
:104D2000002002F03BFCA62002F038FC002002F03C
:104D300035FCB72002F032FC002002F02FFCC2202C
:104D400002F02CFC002002F029FCC72002F026FC17
:104D5000002002F023FCD12002F020FC002002F011
:104D60001DFCD62002F01AFC002002F017FCDD200A
:104D700002F014FC002002F011FCF32002F00EFC03
:104D8000002002F00BFCE32002F014FC052002F0EE
:104D900005FC002002F002FC0A2002F0FFFB0020CC
:104DA00002F0FCFB1C2002F0F9FB002002F0F6FBF5
:104DB000332002F0F3FB002002F0F0FB442002F06D
:104DC000EDFB002002F0EAFB502002F0E7FB0020A0
:104DD00002F0E4FB622002F0E1FB002002F0DEFBC7
:104DE000782002F0DBFB002002F0D8FB882002F0E4
:104DF000D5FB002002F0D2FB972002F0CFFB002071
:104E000002F0CCFBA62002F0C9FB002002F0C6FB9A
:104E1000B72002F0C3FB002002F0C0FBC22002F06A
:104E2000BDFB002002F0BAFBC72002F0B7FB002058
:104E300002F0B4FBD12002F0B1FB002002F0AEFB87
:104E4000D52002F0ABFB002002F0A8FBDD2002F031
:104E5000A5FB002002F0A2FBF32002F09FFB002044
:104E600002F09CFBE42002F0A5FB012002F096FB7F
:104E7000002002F093FB012002F090FB002002F0E2
:104E80008DFB022002F08AFB002002F087FB2A2023
:104E900002F084FB002002F081FB3C2002F07EFB4C
:104EA000002002F07BFB4B2002F078FB002002F098
:104EB00075FB5D2002F072FB002002F06FFB742096
:104EC00002F06CFB002002F069FB842002F066FB1C
:104ED000002002F063FB932002F060FB002002F050
:104EE0005DFBA22002F05AFB002002F057FBB3202A
:104EF00002F054FB002002F051FBBE2002F04EFBFA
:104F0000002002F04BFBC42002F048FB002002F01E
:104F100045FBCD2002F042FB002002F03FFBD320F6
:104F200002F03CFB002002F039FBDD2002F036FBF2
:104F3000002002F033FBF32002F030FB002002F0EF
:104F40002DFBE52002F036FB002002F027FB0020BD
:104F500002F024FB002002F021FB002002F01EFBE7
:104F6000022002F01BFB002002F018FB292002F0B7
:104F700015FB002002F012FB3C2002F00FFB00208A
:104F800002F00CFB4B2002F009FB002002F006FBB4
:104F90005D2002F003FB002002F000FB742002F011
:104FA000FDFA002002F0FAFA842002F0F7FA00205D
:104FB00002F0F4FA932002F0F1FA002002F0EEFA87
:104FC000A22002F0EBFA002002F0E8FAB32002F08F
:104FD000E5FA002002F0E2FABE2002F0DFFA00203B
:104FE00002F0DCFAC42002F0D9FA002002F0D6FA6E
:104FF000CD2002F0D3FA002002F0D0FAD32002F044
:10500000CDFA002002F0CAFADC2002F0C7FA002034
:1050100002F0C4FAF32002F0C1FA002002F0BEFA56
:10502000E62002F0C7FA112002F0B8FA002002F0E0
:10503000B5FA342002F0B2FA002002F0AFFA56209E
:1050400002F0ACFA002002F0A9FA762002F0A6FAEB
:10505000002002F0A3FA772002F0A0FA002002F06C
:105060009DFA662002F09AFA002002F097FA882052
:1050700002F094FA002002F091FA992002F08EFAE0
:10508000002002F08BFABB2002F088FA002002F028
:1050900085FA992002F082FA002002F07FFA662059
:1050A00002F07CFA002002F079FA552002F076FA3C
:1050B000002002F073FA552002F070FA002002F08E
:1050C0006DFA452002F06AFA002002F067FA4320E8
:1050D00002F064FA002002F061FA442002F05EFA65
:1050E000002002F05BFAE72002F064FA322002F0BE
:1050F00055FA002002F052FA552002F04FFA002033
:1051000002F04CFA762002F049FA002002F046FA4A
:10511000662002F043FA002002F040FA672002F015
:105120003DFA002002F03AFA672002F037FA002038
:1051300002F034FA872002F031FA002002F02EFA51
:10514000992002F02BFA002002F028FABB2002F08E
:1051500025FA002002F022FA992002F01FFA00201E
:1051600002F01CFA772002F019FA002002F016FA79
:10517000442002F013FA002002F010FA562002F048
:105180000DFA002002F00AFA232002F007FA0020AC
:1051900002F004FA332002F001FA002002F0FEF9D6
:1051A000452002F0FBF9002002F0F8F9E82002F0B7
:1051B00001FA002002F0F2F9002002F0EFF9992044
:1051C00002F0ECF9002002F0E9F9872002F0E6F99C
:1051D000002002F0E3F9882002F0E0F9002002F05C
:1051E000DDF9772002F0DAF9002002F0D7F9662025
:1051F00002F0D4F9002002F0D1F9882002F0CEF9B3
:10520000002002F0CBF9AA2002F0C8F9002002F039
:10521000C5F9BB2002F0C2F9002002F0BFF99920C5
:1052200002F0BCF9002002F0B9F9662002F0B6F9EC
:10523000002002F0B3F9552002F0B0F9002002F08E
:10524000ADF9552002F0AAF9002002F0A7F9442098
:1052500002F0A4F9002002F0A1F9442002F09EF926
:10526000002002F09BF9552002F098F9002002F08E
:1052700095F9E92002F09EF9AA2002F08FF90020AA
:1052800002F08CF9002002F089F9002002F086F982
:10529000002002F08FF9AA2002F080F9CF2002F05E
:1052A00089F9002002F07AF9002002F077F9002055
:1052B00002F074F9002002F071F9002002F06EF99A
:1052C000002002F06BF9002002F068F9002002F0E3
:1052D00065F9002002F062F9002002F05FF9002079
:1052E00002F05CF9002002F059F9002002F056F9B2
:1052F000002002F053F9002002F050F9002002F0E3
:105300004DF9002002F04AF9F02002F053F9002094
:1053100002F044F9502002F041F9002002F03EF979
:10532000002002F03BF9002002F038F9F32002F0EF
:1053300041F9002002F032F9F92002F03BF9062091
:1053400002F02CF9102002F029F9292002F026F9A8
:10535000002002F023F93A2002F02CF9552002F047
:105360001DF9112002F026F96420FEF7EDF929203D
:1053700002F020F9352002F01DF9002002F00EF9AC
:10538000512002F017F9FF2002F008F9532002F033
:1053900011F92C2002F002F9552002F00BF98220BD
:1053A00002F0FCF82C2002F005F910BD10B55521D3
:1053B0004FF4704002F014F9AA214FF2010002F0FC
:1053C0000FF952214FF2020002F00AF908214FF2C0
:1053D000030002F005F901214FF2040002F000F988
:1053E0000D214FF4304002F0FBF80D214BF201008B
:1053F00002F0F6F80D214BF2020002F0F1F8342130
:105400004FF4364002F0ECF834214BF2016002F028
:10541000E7F834214BF2026002F0E2F80D214FF47C
:10542000314002F0DDF80D214BF2011002F0D8F806
:105430000D214BF2021002F0D3F834214FF4374023
:1054400002F0CEF834214BF2017002F0C9F8342199
:105450004BF2027002F0C4F800214FF4324002F027
:10546000BFF800214BF2012002F0BAF800214BF204
:10547000022002F0B5F824214FF4384002F0B0F8D1
:1054800024214BF6010002F0ABF824214BF6020078
:1054900002F0A6F801214FF43F4002F0A1F80F21DD
:1054A0004FF4334002F09CF80F214BF2013002F030
:1054B00097F80F214BF2023002F092F834214FF4AA
:1054C000394002F08DF834214BF6011002F088F8D3
:1054D00034214BF6021002F083F808214FF43540D6
:1054E00002F07EF808214BF2015002F079F8082111
:1054F0004BF2025002F074F803214FF4424002F0E4
:105500006FF824214FF43A4002F06AF824214BF658
:10551000012002F065F824214BF6022002F060F829
:1055200000214FF43C4002F05BF878214BF601403B
:1055300002F056F800214BF6024002F051F800212B
:105540004FF43D4002F04CF878214BF6015002F048
:1055500047F800214BF6025002F042F800214FF4C8
:105560003E4002F03DF864214BF6016002F038F84D
:1055700000214FF4514002F033F833214DF2011075
:1055800002F02EF800214DF2021002F029F8342129
:105590004DF2031002F024F800214DF2041002F045
:1055A0001FF83A214DF2051002F01AF800214DF2D1
:1055B000061002F015F84A214DF2071002F010F81B
:1055C00000214DF2081002F00BF85C214DF2091099
:1055D00002F006F800214DF20A1002F001F88121D4
:1055E0004DF20B1001F0FCFF00214DF20C1001F008
:1055F000F7FFA6214DF20D1001F0F2FF00214DF250
:105600000E1001F0EDFFE5214DF20F1001F0E8FF63
:1056100001214DF2101001F0E3FF13214DF21110A2
:1056200001F0DEFF01214DF2121001F0D9FF5421EB
:105630004DF2131001F0D4FF01214DF2141001F0CE
:10564000CFFF82214DF2151001F0CAFF01214DF26A
:10565000161001F0C5FFCA214DF2171001F0C0FF6E
:1056600002214DF2181001F0BBFF00214DF219107C
:1056700001F0B6FF02214DF21A1001F0B1FF012135
:105680004DF21B1001F0ACFF02214DF21C1001F095
:10569000A7FF34214DF21D1001F0A2FF02214DF2AF
:1056A0001E1001F09DFF67214DF21F1001F098FFC1
:1056B00002214DF2201001F093FF84214DF22110C0
:1056C00001F08EFF02214DF2221001F089FFA4218A
:1056D0004DF2231001F084FF02214DF2241001F05D
:1056E0007FFFB7214DF2251001F07AFF02214DF224
:1056F000261001F075FFCF214DF2271001F070FF49
:1057000002214DF2281001F06BFFDE214DF229102D
:1057100001F066FF02214DF22A1001F061FFF22133
:105720004DF22B1001F05CFF02214DF22C1001F024
:1057300057FFFE214DF22D1001F052FF03214DF2D3
:105740002E1001F04DFF10214DF22F1001F048FFF7
:1057500003214DF2301001F043FF33214DF231109F
:1057600001F03EFF03214DF2321001F039FF6D21AF
:105770004DF2331001F034FF00214FF4524001F09C
:105780002FFF33214DF2012001F02AFF00214DF2BD
:10579000022001F025FF34214DF2032001F020FF0B
:1057A00000214DF2042001F01BFF3A214DF20520AB
:1057B00001F016FF00214DF2062001F011FF4A21F1
:1057C0004DF2072001F00CFF00214DF2082001F0FE
:1057D00007FF5C214DF2092001F002FF00214DF28C
:1057E0000A2001F0FDFE81214DF20B2001F0F8FEB0
:1057F00000214DF20C2001F0F3FEA6214DF20D2008
:1058000001F0EEFE00214DF20E2001F0E9FEE5214F
:105810004DF20F2001F0E4FE01214DF2102001F0C5
:10582000DFFE13214DF2112001F0DAFE01214DF2CD
:10583000122001F0D5FE54214DF2132001F0D0FECC
:1058400001214DF2142001F0CBFE82214DF21520F2
:1058500001F0C6FE01214DF2162001F0C1FECA2161
:105860004DF2172001F0BCFE02214DF2182001F08C
:10587000B7FE00214DF2192001F0B2FE02214DF2D7
:105880001A2001F0ADFE01214DF21B2001F0A8FE0F
:1058900002214DF21C2001F0A3FE34214DF21D2007
:1058A00001F09EFE02214DF21E2001F099FE6721BB
:1058B0004DF21F2001F094FE02214DF2202001F054
:1058C0008FFE84214DF2212001F08AFE02214DF24B
:1058D000222001F085FEA4214DF2232001F080FE5C
:1058E00002214DF2242001F07BFEB7214DF225204C
:1058F00001F076FE02214DF2262001F071FECF214B
:105900004DF2272001F06CFE02214DF2282001F01B
:1059100067FEDE214DF2292001F062FE02214DF2E8
:105920002A2001F05DFEF2214DF22B2001F058FEFD
:1059300002214DF22C2001F053FEFE214DF22D20CC
:1059400001F04EFE03214DF22E2001F049FE102100
:105950004DF22F2001F044FE03214DF2302001F0E2
:105960003FFE33214DF2312001F03AFE03214DF28A
:10597000322001F035FE6D214DF2332001F030FE72
:1059800000214FF4534001F02BFE33214DF2013042
:1059900001F026FE00214DF2023001F021FE3421FB
:1059A0004DF2033001F01CFE00214DF2043001F0F5
:1059B00017FE3A214DF2053001F012FE00214DF2A2
:1059C000063001F00DFE4A214DF2073001F008FECD
:1059D00000214DF2083001F003FE5C214DF2093048
:1059E00001F0FEFD00214DF20A3001F0F9FD8121A8
:1059F0004DF20B3001F0F4FD00214DF20C3001F0BE
:105A0000EFFDA6214DF20D3001F0EAFD00214DF22F
:105A10000E3001F0E5FDE5214DF20F3001F0E0FD23
:105A200001214DF2103001F0DBFD13214DF2113058
:105A300001F0D6FD01214DF2123001F0D1FD5421CB
:105A40004DF2133001F0CCFD01214DF2143001F084
:105A5000C7FD82214DF2153001F0C2FD01214DF24A
:105A6000163001F0BDFDCA214DF2173001F0B8FD2E
:105A700002214DF2183001F0B3FD00214DF2193032
:105A800001F0AEFD02214DF21A3001F0A9FD012115
:105A90004DF21B3001F0A4FD02214DF21C3001F04B
:105AA0009FFD34214DF21D3001F09AFD02214DF28F
:105AB0001E3001F095FD67214DF21F3001F090FD81
:105AC00002214DF2203001F08BFD84214DF2213076
:105AD00001F086FD02214DF2223001F081FDA4216A
