:020000040800F2
:1000000040430020D5010008DB2F0008D32F000853
:10001000D72F0008A510000839350008000000009F
:100020000000000000000000000000000530000893
:100030000111000800000000EB010008ED010008BC
:10004000EF010008EF010008EF010008EF010008D0
:10005000EF010008EF010008EF010008EF010008C0
:10006000EF010008EF010008EF010008A9100008E7
:10007000EF010008EF010008EF010008EF010008A0
:10008000EF010008EF010008EF010008EF01000890
:10009000EF010008EF010008EF010008EF01000880
:1000A000EF010008EF010008EF010008EF01000870
:1000B000EF01000809300008EF010008EF01000817
:1000C000EF010008EF010008EF010008EF01000850
:1000D000EF01000811340008EF0100083534000872
:1000E000EF010008EF010008EF010008EF01000830
:1000F000EF010008EF010008EF010008EF01000820
:10010000EF010008EF010008EF010008EF0100080F
:10011000EF010008EF010008EF010008EF010008FF
:10012000EF010008EF010008EF010008EF010008EF
:1001300000F002F800F03FF80AA090E8000C8244BA
:100140008344AAF10107DA4501D100F034F8AFF297
:10015000090EBAE80F0013F0010F18BFFB1A43F0A5
:10016000010318477C2701009C270100103A24BF97
:1001700078C878C1FAD8520724BF30C830C144BF0C
:1001800004680C607047000000230024002500264E
:10019000103A28BF78C1FBD8520728BF30C148BFEA
:1001A0000B607047782900F0CA84002070471FB5A3
:1001B0001FBD10B510BD00F09DFE1146FFF7F7FF03
:1001C00007F016FA00F0BBFE03B4FFF7F2FF03BC22
:1001D00003F0D7F90948804709480047FEE7FEE7E2
:1001E000FEE7FEE7FEE7FEE7FEE7FEE7FEE7FEE7E7
:1001F00004480549054A064B7047000007300008CF
:1002000031010008403D002040430020403F0020D5
:10021000403F0020002A08BF70472DE9F0471546EF
:100220000E4604464FF0000854F8047B54F8040BC3
:10023000014608F0E1FA81463946084608F0DCFA42
:10024000494608F003FA3746361D10F1FF4F28BF24
:10025000C7F8008002D207F0FBFB38606D1EE3D1C7
:10026000BDE8F0872DE9FF4F9BB004461C9D169515
:10027000012D9CBF1FB0BDE8F08F12950020AD0886
:100280000E900F90681E13900E9B1D9A0E980E995B
:1002900052F8332009921D9A400002EBC302014438
:1002A000526807921D9A52F830200C921D9A02EB68
:1002B000C00040680D9052F831000B9002EBC10075
:1002C00040680A901E990F9E58180E90771907EBF8
:1002D000050954F836A054F839B009EB0508594619
:1002E000504608F0B3F901905946504608F014FC06
:1002F000049004EBC9001990D0F804B004EBC600D8
:100300001490D0F804A05946504608F09FF9009088
:100310005946504608F000FC039054F8381054F841
:10032000370008F093F982460146019808F08EF9EB
:1003300044F836005146019808F0EEFB04EBC80B78
:10034000019004EBC70ADBF80410DAF8040008F0A7
:100350007DF901460690009808F078F90146149856
:1003600041600699009808F0D7FB0090DBF8041074
:10037000DAF8040008F0D0FB089054F8381054F86C
:10038000370008F0C9FB06900D99009808F034FA80
:1003900015900C99019808F02FFA159908F056F964
:1003A00044F837000D99019808F026FA07460C9991
:1003B000009808F021FA394608F0AEFBCAF80400AC
:1003C0000899049808F042F907460899049808F03B
:1003D000A3FB04900699039808F09EFB00900699F1
:1003E000039808F033F903900799009808F004FA8D
:1003F00082463846099908F0FFF9514608F026F977
:1004000044F839003846079908F0F6F90746099983
:10041000009808F0F1F9394608F07EFB014619987A
:1004200041600A99039808F0E7F907460B99049888
:1004300008F0E2F9394608F009F944F838000A9959
:10044000049808F0D9F907460B99039808F0D4F9F5
:10045000394608F061FBCBF80400129806441C985A
:100460008642FFF433AF0F981399401C0F908842D7
:100470007FF60AAF1E984FF6FF7101EA80001E90CA
:1004800016988008169001283FF6F7AE1FB0BDE819
:10049000F08F2DE9FF4F9BB004461C9D1795042D4E
:1004A00040F20A8100200E95AD0812900F90681E50
:1004B0001490129B1D9A1298129952F833200B92A5
:1004C0001D9A400002EBC3020144526806921D9A35
:1004D0000F9E52F8302007921D9A02EBC000406830
:1004E000109052F831000C9002EBC10040680D9062
:1004F0001E9818441290771907EB050854F836A097
:1005000054F838B008EB05095946504608F09EF8F3
:1005100001905946504608F0FFFA059004EBC800D8
:100520001990D0F804B004EBC6001590D0F804A0E0
:100530005946504608F08AF800905946504608F04F
:10054000EBFA049054F8391054F8370008F07EF8AC
:1005500082460146019808F079F844F83600514681
:10056000019808F0D9FA04EBC90B019004EBC70A13
:10057000DBF80410DAF8040008F068F80146089087
:10058000009808F063F801461598416008990098B2
:1005900008F0C2FA0090DBF80410DAF8040008F062
:1005A000BBFA099054F8391054F8370008F0B4FA3F
:1005B00008901099009808F01FF916900799019873
:1005C00008F01AF9169908F0A7FA44F837001099BC
:1005D000019808F011F907460799009808F00CF9FE
:1005E000394608F033F8CAF804000999059808F06C
:1005F00093FA07460999059808F028F80590089994
:10060000049808F023F800900899049808F084FAF8
:1006100004900699009808F0EFF8824638460B9946
:1006200008F0EAF8514608F077FA44F838003846FE
:10063000069908F0E1F807460B99009808F0DCF8F5
:10064000394608F003F80146199841600D9904985D
:1006500008F0D2F807460C99059808F0CDF839460D
:1006600008F05AFA44F839000D99059808F0C4F8D2
:1006700007460C99049808F0BFF8394607F0E6FFE2
:10068000CBF804000E9806441C988642FFF433AF62
:100690000F98401C0F90149988427FF60AAF1E985D
:1006A0004FF6FF7101EA80001E901798800817909E
:1006B00004283FF6F7AE00BF1C980026401B4FEA07
:1006C00095090E95CDF81C0006EB090505EB090709
:1006D00054F836A054F837B007EB0908594650468D
:1006E00007F0B4FF01905946504608F015FA0590FE
:1006F00004EBC7000B90D0F804B004EBC6000C90DC
:10070000D0F804A05946504607F0A0FF0090594683
:10071000504608F001FA049054F8381054F83500A7
:1007200007F094FF82460146019807F08FFF289951
:1007300008F062F844F836005146019808F0ECF9E8
:1007400004EBC80B019004EBC50ADBF80410DAF8DF
:10075000040007F07BFF01460890009807F076FF41
:10076000289908F049F801460C98416008990098CA
:1007700008F0D2F90090DBF80410DAF8040008F071
:10078000CBF9099054F8381054F8350008F0C4F942
:1007900008902899019808F02FF844F83500289916
:1007A000009808F029F8CAF804000999059808F09B
:1007B000B3F982460999059807F048FF0590089912
:1007C000049807F043FF00900899049808F0A4F9F2
:1007D00005465046289908F00FF844F83700289944
:1007E000009808F009F801460B984160289905988F
:1007F00008F002F844F838002846289907F0FCFF72
:10080000CBF804000E9806440798B042BFF45CAFE2
:100810001FB0BDE8F08F38B504460D4680782188BA
:10082000A389626801280FD02846FFF71BFDE078F6
:10083000012818BF38BDE2892188A36801B0284685
:10084000BDE8304000F05AB8206900902846FFF714
:1008500020FEECE710B40180224C446082704FF01F
:10086000000CC370B1F5807F20D004DC10292ED09D
:10087000402923D005E0B1F5806F0FD0B1F5805F3E
:1008800004D04FF0FF3C10BC6046704701218181CD
:10089000C181154981604FF0665116E004218181C4
:1008A000C181124981604FF06A510EE010218181AF
:1008B000C1810F4981604FF06E5106E04021818176
:1008C000C1810C4981604FF072510161DBE74FF447
:1008D00080718181C181084981604FF07651016149
:1008E000D1E70000AC970008AC8F0008B28F000879
:1008F000CA8F00082A900008AA9100082DE9F00785
:100900004D0801244FF0000C04EB51066146A5F19F
:1009100002082CE061452AD250F8314050F83C7072
:1009200040F8317040F83C4000EBC10400EBCC07CC
:10093000D4F80490D7F804A0C4F804A0C7F8049031
:100940008F190CEB060450F8379050F834A040F89B
:1009500037A040F8349000EBC70700EBC404D7F889
:100960000490D4F804A0C7F804A0C4F8049000EBE5
:10097000C104AC44A76850F83C90C4F8089040F813
:100980003C7000EBCC0CE768DCF80490C4F80C90E9
:10099000CCF80470891CB3F800C089B203EB4203A1
:1009A0004145B7D9BDE8F00770472DE9F0074D087C
:1009B00001244FF0000C04EB51066146A5F102083A
:1009C0002BE0614529D250F8314050F83C7040F896
:1009D000317040F83C4000EBC10900EBCC04D9F881
:1009E0000470D4F804A0C9F804A067608C190CEB5B
:1009F000060750F8349050F837A040F834A040F87B
:100A0000379000EBC40400EBC707D4F80490D7F884
:100A100004A0C4F804A0C7F8049000EBC104AC44DF
:100A2000A76850F83C90C4F8089040F83C7000EB80
:100A3000CC0CE768DCF80490C4F80C90CCF8047097
:100A4000B3F800C0891C03EB42034145B9D9BDE8A6
:100A5000F00770472DE9F00F01244F0804EB51080F
:100A60004FF0000C7C0804BFBDE8F00F7047014652
:100A700000EB8805002614E0BCEB460F11D950F8B6
:100A80002CA0D1F80090C1F800A040F82C900CEBFD
:100A90000809D5F800A050F829B0C5F800B040F812
:100AA00029A0BC4451F8049F50F82CA041F804AB95
:100AB00040F82C90B3F800C003EB4203641E05F12C
:100AC000080506F10106D7D1BDE8F00F7047704761
:100AD0000FB4044910B503AA029800F0EDF910BC58
:100AE0005DF814FB08000020F0B40D4601880905EC
:100AF00002D5214C7C4402E01F4C7C440E34002182
:100B000000F1240608E002F00F071209E75D42EA4F
:100B100003721B097754491C52EA0307F3D1027888
:100B20000023120704D5702D06D009B10223113419
:100B30002246F0BC00F04EB901231034F8E770B53E
:100B400004460D4621461068AFF300800246294650
:100B50002046BDE870400023C6E7D21D22F00703FF
:100B6000D3E90023C0E70368126843F02003036061
:100B70000823C3610023B7E7B40C01002DE9F05F3F
:100B8000894604464FF0000ADFF874B1FB44C0F810
:100B900020A02046E1688847002874D0252806D088
:100BA000D4E901219047206A401C2062F1E7002629
:100BB0005F462046E16888472028054607DB312D3F
:100BC00005D2781910F8200C08B10643F1E7B007F8
:100BD00001D526F00406C4F81CA00027C4F818A00C
:100BE0002A2D09D0284602F0C5FC38B304EB87084B
:100BF000303DC8F8185019E059F8041B204604EBA2
:100C000087029161E1688847012F054618D1E069A4
:100C1000002820DA26F020061DE0D8F8180000EBA6
:100C2000800005EB40003038C8F818002046E16825
:100C30008847054602F09EFC0028EED1012F0AD01D
:100C40002E2D08D12046E16888477F1C0546022FDB
:100C500046F02006C4DBA069002803DA404246F0D3
:100C60000106A061F00701D026F010066C2D0BD014
:100C7000682D09D04C2D39D06A2D35D0742D35D042
:100C80007A2D33D016E038E0E1682F4620468847B9
:100C9000B842054609D16C2F26D04FF48060E16838
:100CA000064320468847054604E06C2F1AD04FF4CF
:100CB000807006430DB3A5F14100192802D82035F4
:100CC00046F400664A462946204626604E46FFF70F
:100CD00069FA80B101280BD0F61D26F0070000F15B
:100CE000080956E74020E4E78020D8E70020D6E74F
:100CF00006F104094DE7284652E7206ABDE8F09F57
:100D0000440C010010B5203AC0F00B80B1E8185037
:100D1000203AA0E81850B1E81850A0E81850BFF4E5
:100D2000F5AF5FEA027C24BFB1E81850A0E8185084
:100D300044BF18C918C0BDE810405FEA827C24BFD8
:100D400051F8043B40F8043B08BF7047D20728BF66
:100D500031F8023B48BF11F8012B28BF20F8023BB5
:100D600048BF00F8012B70474FF0000200B5134652
:100D700094469646203922BFA0E80C50A0E80C50BB
:100D8000B1F12001BFF4F7AF090728BFA0E80C506C
:100D900048BF0CC05DF804EB890028BF40F8042B65
:100DA00008BF704748BF20F8022B11F0804F18BFD2
:100DB00000F8012B7047704770477047704710B5B7
:100DC00000F08CF8006810BD10B5044600F086F8FD
:100DD000046010BD2DE9F0470D4699469246044641
:100DE00000F124080168880604D5E06921F01001AB
:100DF000216000E00120A84201DD471B00E0002740
:100E0000A1697A1902EB0900081AA0612078C006CE
:100E100002D42046AFF30080002608E0D4E9012187
:100E20001AF806009047206A401C761C20624E4546
:100E3000F4DB2078C0060AD52046AFF3008006E038
:100E4000D4E9012130209047206A401C2062381EDE
:100E5000A7F10107F4DC07E0D4E9012118F8050047
:100E60009047206A401C2062281EA5F10105F3DC92
:100E70002046AFF300802078000602D50220BDE8AE
:100E8000F0870120FBE7000001694A1C0261087835
:100E9000704700B58FB0CDE90131002105910549BA
:100EA0007944CDE9031011466846FFF767FE0FB09D
:100EB00000BD0000E5FFFFFF074B70B50D467B440A
:100EC000FFF7E7FF0446284600F00CF810B14FF09A
:100ED000FF3070BD204670BD0B29000000487047F0
:100EE000E03C0020007B00F0800070470048704725
:100EF000E03C00207546FFF7F9FFAE460500694665
:100F0000534620F00700854618B020B5FFF770F96A
:100F1000BDE820404FF000064FF000074FF00008FA
:100F20004FF0000B21F00701AC46ACE8C009ACE87B
:100F3000C009ACE8C009ACE8C0098D46704710B5DF
:100F40000446AFF300802046BDE81040FFF73CB9EF
:100F500070B5044600252068806800F00100F0B1FB
:100F60002068806820F001002168886000F040FF60
:100F700005460EE000F03CFF401B022809D9A06A9C
:100F800040F01000A062E06A40F00100E062012041
:100F900070BD2068806800F001000028EAD10020C0
:100FA000F6E770B505466C6AA06A00F05000E0B93B
:100FB000A06A40F40070A0622068806800F460209D
:100FC000B0F5602F0DD1207B58B9A06A20F4807055
:100FD000A062A06A00F4805018B9A06A40F0010035
:100FE000A062204600F040FA03E0206A016B284628
:100FF000884770BD70B505466C6AA06A40F0400035
:10100000A062E06A40F00400E062204600F02EFAA0
:1010100070BD70B50446656A284600F026FA70BDBA
:1010200038B504460025002000902068806800F054
:10103000010080BB2068806840F001002168886062
:10104000164800681649B0FBF1F0009002E00098E5
:10105000401E009000980028F9D100F0C9FE054616
:1010600013E000F0C5FE401B02280ED9A06A40F034
:101070001000A062E06A40F00100E06200BF0020C2
:1010800084F8240000BF012038BD2068806800F08B
:1010900001000028E5D00020F6E700000000002055
:1010A00040420F0000BFFEE70848006800F0020061
:1010B00050B101200649087000BF0448406840F064
:1010C00002000249486000BF704700000000024073
:1010D0001900002030B590F840500124AC40C56B99
:1010E0006C60046863604468102C04D10468A260DA
:1010F0000468E16003E00468A1600468E26030BD58
:101100007047000070B50446B3F5804F13D1D1E9A4
:10111000000540EA05108D6840EA05208D692843E6
:101120008D8940EA054054F82250064E3540284348
:1011300044F8220003E06FF0704044F822000020E1
:1011400070BD00000000F0CF70B50246086852F88C
:10115000200020F001000E6842F826008868082868
:1011600001D1402300E00023486818438E683043D3
:10117000CE6830430E6930434E693043CE69304308
:101180000E6A30434E6A30438E6A3043CE6A304333
:101190000E6B40EA060488690443486B0443074D1C
:1011A00045F4806545F4E025086852F82000A8431E
:1011B00020430E6842F82600002070BD7FFB080027
:1011C00010B50346D1E9000440EA04108C6840EAF7
:1011D00004208C8940EA0444088A401E44EA0054F2
:1011E000087D801E44EA00608C692043541C53F83B
:1011F000244004F040442043541C43F824000020C1
:1012000010BD0000F8B5044600260020009000BF85
:1012100094F82400012801D10220F8BD012084F8AF
:10122000240000BF2046FFF793FE0646002E62D141
:10123000A06A20F4885040F00200A062022000F072
:101240007BFE30490968B1FBF0F04000009002E0FD
:101250000098401E009000980028F9D12046FFF722
:10126000DFFE2068806840F008002168886000F098
:10127000BFFD054611E000F0BBFD401B0A280CD95C
:10128000A06A20F0020040F01000A06200BF002021
:1012900084F8240000BF0120BFE72068806800F0C8
:1012A00008000028E7D12068806840F00400216829
:1012B000886000F09DFD054611E000F099FD401B9F
:1012C0000A280CD9A06A20F0020040F01000A062A9
:1012D00000BF002084F8240000BF01209DE72068A3
:1012E000806800F004000028E7D1A06A20F0020026
:1012F00040F00100A06200BF002084F8240000BF7D
:1013000030468AE70000002038B50246002300205E
:10131000009000BF92F82400012801D1022038BDBE
:10132000012082F8240000BF4868072812D2106804
:10133000406B0C79641E04EB84051F24AC40A04371
:101340000D796D1E05EB85050C68AC4020431468D3
:10135000606327E048680D2812D21068006B0C7992
:10136000E41F04EB84051F24AC40A0430D79ED1F5E
:1013700005EB85050C68AC4020431468206311E040
:101380001068C06A0C790D3C04EB84051F24AC4046
:10139000A0430D790D3D05EB85050C68AC4020435D
:1013A0001468E06208680A2812D31068C0680C78D4
:1013B0000A3C04EB44050724AC40A0430D780A3DE9
:1013C00005EB45058C68AC4020431468E0600FE0F5
:1013D000106800690C7804EB44050724AC40A04376
:1013E0000D7805EB45058C68AC40204314682061FE
:1013F0000868102802D00868112827D1174C1068F7
:10140000A0421ED11068806800F40000F0B9106896
:10141000806840F400001468A0600868102815D1A6
:101420000F4800680F4CB0FBF4F000EB8000400068
:10143000009002E00098401E009000980028F9D12A
:1014400004E0906A40F020009062012300BF002079
:1014500082F8240000BF184661E700000024014024
:101460000000002040420F007047704770470000A6
:101470002DE9F0410446002700250026A84614B9AE
:101480000120BDE8F081A06810B1207D00B100BF4F
:10149000A06A30B90020E06284F82400204600F001
:1014A00097F82046FFF754FD0746A06A00F01000A9
:1014B000002873D1002F7ED1A06A20F4885040F01C
:1014C0000200A0623F4AD4E90001904208D1E069DD
:1014D000B0F5402F02D14FF4002002E0E06900E0B7
:1014E000E0690143207B41EA40000643A068B0F573
:1014F000807F02D0A068012802D14FF4807000E004
:1015000000200543207D012811D1207B38B9A06936
:10151000401E4FF4006141EA4030054307E0A06AF5
:1015200040F02000A062E06A40F00100E062206824
:10153000406820F46940284321684860206880683A
:1015400021490840304321688860A068B0F5807F59
:1015500002D0A068012802D14FF4807000E0002082
:10156000B0F5807F03D1208A401E4FEA00582068E2
:10157000C06A20F4700040EA08002168C862206850
:10158000806812490840B04209D10020E062A06A98
:1015900020F0020040F00100A06211E00BE0A06A20
:1015A00020F0020040F01000A062E06A40F001006C
:1015B000E062012704E0A06A40F01000A062012769
:1015C00038465EE7003C0140FDF7E1FFFE0E1FFFDD
:1015D00010B58CB004461C492068884232D11821CD
:1015E00002A8FFF7C1FB00BF00BF1848806940F4A4
:1015F0000070164988610846806900F40070019007
:1016000000BF00BF00BF00BF00BF0846806940F0B8
:10161000040088610846806900F00400019000BF62
:1016200000BF00BF022002908003049002A800F0D7
:101630001DFD022008900320099008A9044800F02D
:1016400031FA00BF0CB010BD002401400010024070
:10165000000801402DE9F04104460D4616460027DA
:1016600057492068884203D056492068884205D1EE
:101670005348001D006800F4702000E0002000289E
:101680007ED100BF94F82400012802D10220BDE8D9
:10169000F081012084F8240000BF2046FFF7C0FC41
:1016A0000746002F6DD1A06A40F60161884340F4DF
:1016B0008070A06243492068884209D14048001DDB
:1016C000006800F4702008B9012002E0002000E06A
:1016D000012078B1A06A20F48010A06220684068E0
:1016E00000F4806000B3A06A20F4005040F4805001
:1016F000A06219E0A06A40F48010A062304920681E
:10170000884203D02F492068884205D12C48001D0B
:10171000006800F4806000E0002028B1A06A20F496
:10172000005040F48050A062A06A00F4805020B1C4
:10173000E06A20F00600E06201E00020E06200BF05
:10174000002084F8240000BF1F48216A88621F48D7
:10175000216AC8621E48216A08636FF0020021688E
:1017600008602068806840F4807021688860226882
:1017700002F14C0133462A46206A00F045F901E0A7
:101780001AE014E02068806800F46020B0F5602F53
:1017900006D12068806840F4A000216888600CE0D1
:1017A0002068806840F480102168886005E000BFF0
:1017B000002084F8240000E00127384667E7000095
:1017C0000024014000280140A30F00081310000866
:1017D000F50F000870B50446002594F82100022892
:1017E00003D00420A0630125C1E02068006820F038
:1017F0000E00216808602068006820F00100216860
:1018000008605C492068884252D95A497839206872
:10181000884201D1012047E0564964392068884256
:1018200001D1102040E0534950392068884201D14D
:10183000801539E04F493C392068884201D1801435
:1018400032E04C4928392068884202D14FF4803078
:101850002AE0484914392068884202D14FF48010A8
:1018600022E044492068884201D140041CE04249FA
:101870002068884201D1012016E03F4914312068D8
:10188000884201D110200FE03B492831206888426E
:1018900001D1801508E038493C312068884201D1E7
:1018A000801401E04FF480303349091F086051E093
:1018B000304978392068884201D1012047E02D491C
:1018C00064392068884201D1102040E0294950390C
:1018D0002068884201D1801539E026493C392068CA
:1018E000884201D1801432E0224928392068884298
:1018F00002D14FF480302AE01E4914392068884212
:1019000002D14FF4801022E01A492068884201D1A8
:1019100040041CE018492068884201D1012016E0EB
:10192000154914312068884201D110200FE0124976
:1019300028312068884201D1801508E00E493C31E9
:101940002068884201D1801401E04FF480300949B9
:1019500080394860012084F8210000BF002084F80D
:10196000200000BF606B10B12046616B884728469D
:1019700070BD0000800002400804024001460022C1
:1019800009B9012070471E4B086898420BD21D4BC5
:101990000868C01A1423B0FBF3F0800008641948EB
:1019A0000838C8630AE0164B0868C01A1423B0FB55
:1019B000F3F08000086412480838C863022081F8F8
:1019C00021000868026843F6F0708243D1E9010300
:1019D0001843CB6818430B6918434B6918438B694C
:1019E0001843CB69184302430868026000208863EB
:1019F000012081F82100002081F8200000BFC1E70C
:101A000008040240080002402DE9F04104460D465A
:101A100016461F464FF0000800BF94F8200001282A
:101A200002D10220BDE8F081012084F8200000BF2F
:101A300094F8210001282CD1022084F821000020F4
:101A4000A0632068006820F00100216808603B4620
:101A5000324629462046FFF73DFBE06A30B1206858
:101A6000006840F00E00216808600BE02068006804
:101A700020F00400216808602068006840F00A0037
:101A8000216808602068006840F001002168086053
:101A900006E000BF002084F8200000BF4FF00208DD
:101AA0004046BFE72DE9F847024600239C467BE10C
:101AB0004FF0010808FA03F4D1F8008008EA0400A6
:101AC000A0427DD1DFF8F4A2D1F80480A8EB0A0986
:101AD000D0453AD014DCB8F1030F50D009DCB8F18E
:101AE000000F31D0B8F1010F1CD0B8F1020F49D16D
:101AF00020E0B8F1110F18D0B8F1120F42D11EE05A
:101B0000B9F5881F25D006DCB9F5803F20D0B9F59E
:101B1000801F37D11AE0B9F5001F18D0B9F5041F9E
:101B200030D117E0D1F80CC02DE0D1F80C8008F1CD
:101B3000040C28E0D1F80C8008F1080C23E0D1F85F
:101B40000C8008F10C0C1EE000BF00BF00BF00BFFE
:101B500000BF00BFD1F80880B8F1000F02D14FF0EC
:101B6000040C0BE0D1F80880B8F1010F03D14FF05D
:101B7000080C146102E04FF0080C546103E04FF0D0
:101B8000000C00E000BF00BFFF2801D8904601E034
:101B900002F104084646FF2802D84FEA830803E012
:101BA000A3F108084FEA88084746D6F800804FF0AE
:101BB0000F0909FA07F928EA09080CFA07F900E001
:101BC0007AE048EA0908C6F80080D1F8048008F0F5
:101BD0008058B8F1805F6FD100BFDFF8E481D8F89A
:101BE000188048F00108DFF8D891C9F81880C84675
:101BF000D8F8188008F00108CDF8008000BF00BFB9
:101C00004FEAB9384FEA930958F829504FEA8378D8
:101C10004FEA18794FF00F0808FA09F825EA080585
:101C2000DFF8A081424502D14FF0000824E0DFF840
:101C30009881424502D14FF001081DE0DFF88C8108
:101C4000424502D14FF0020816E0DFF88481424598
:101C500002D14FF003080FE0DFF87881424502D14E
:101C60004FF0040808E0DFF87081424502D14FF0E0
:101C7000050801E04FF006084FEA83794FEA197929
:101C800008FA09F848EA0505DFF850814FEA930998
:101C900048F82950D1F8048008F48038B8F5803F1E
:101CA0000BD1DFF83C81D8F8008048EA0008DFF863
:101CB0003091C9F800800AE075E0DFF82481D8F897
:101CC000008028EA0008DFF81891C9F80080D1F8F0
:101CD000048008F40038B8F5003F0ED1DFF8008129
:101CE00008F10408D8F8008048EA0008DFF8F0900E
:101CF00009F10409C9F800800DE0DFF8E48008F17B
:101D00000408D8F8008028EA0008DFF8D49009F128
:101D10000409C9F80080D1F8048008F48018B8F5E7
:101D2000801F0ED1DFF8B88008F10808D8F80080CD
:101D300048EA0008DFF8A89009F10809C9F800800E
:101D40000DE0DFF89C8008F10808D8F8008028EA48
:101D50000008DFF88C9009F10809C9F80080D1F873
:101D6000048008F40018B8F5001F0ED1DFF8708069
:101D700008F10C08D8F8008048EA0008DFF8609005
:101D800009F10C09C9F800800DE0DFF8548008F172
:101D90000C08D8F8008028EA0008DFF8449009F120
:101DA0000C09C9F800805B1CD1F8008028FA03F800
:101DB000B8F1000F7FF47CAEBDE8F8870000111089
:101DC0000010024000080140000C014000100140DA
:101DD0000014014000180140001C014008000140AF
:101DE000000401400AB1016101E00B040361704786
:101DF00001480068704700001000002010B5084836
:101E0000006840F0100006490860052000F080F8E6
:101E10000F2000F007F800F02BF8002010BD0000A4
:101E20000020024070B504460E4800784FF47A71E5
:101E3000B1FBF0F00C490968B1FBF0F5284600F061
:101E4000A5FD08B1012070BD102C07D2002221464B
:101E5000501E00F01EF80548046001E00120F2E782
:101E60000020F0E7180000200000002014000020EF
:101E7000704701460846002809DB00F01F030122D5
:101E80009A4043099B0003F1E023C3F8002100BFFF
:101E900070472DE9F05F80460D461646002701F099
:101EA0004DFB074639462A46334601F00700C0F18C
:101EB000070ABAF1040F02D94FF0040A01E0C0F199
:101EC000070AD14600F1040ABAF1070F02D24FF017
:101ED000000A01E0A0F1030AD4464FF0010A0AFA11
:101EE00009FAAAF1010A0AEA020A0AFA0CFA4FF000
:101EF000010B0BFA0CFBABF1010B0BEA030B4AEAEB
:101F00000B042146404601F021FBBDE8F09F000094
:101F100000BF00F00702064B19684FF6FF03194097
:101F2000044B0B4343EA0221014B196000BF704789
:101F30000CED00E00000FA052DE9F04385B00646FF
:101F400042A30FCB01AC0FC444A0006800904FF037
:101F50000008002500270024A146042E36D004DC0A
:101F6000012E3BD0022E6BD15FE0082E32D0102E16
:101F700066D13B484468006800F0807000B301A857
:101F8000C4F38341475C04F4803070B13448406846
:101F9000C0F340401DF8008004F4803040B1314867
:101FA000B0FBF8F000FB07F502E02F4807FB00F557
:101FB0002B48406800F48000B0F5800F01D1A9469D
:101FC00003E068000321B0FBF1F93AE000F0D2F938
:101FD000814636E000F0CEF9814632E02048046ABE
:101FE00004F44070B0F5807F05D104F0020010B118
:101FF0004FF4004918E004F44070B0F5007F07D1B9
:102000001748406A00F0020010B149F640490BE061
:1020100004F44070B0F5407F06D11148006800F428
:10202000003008B14FF224490BE000F093F90C495D
:102030004968C1F38131491C4900B0FBF1F900E066
:1020400000BF00BF484605B0BDE8F08302030405A9
:10205000060708090A0B0C0D0E0F101001020000F4
:102060000010024000127A0000093D00F8B5044655
:1020700000260025207800F0010000286BD0002702
:102080004348C06900F0805070B900BF4048C06943
:1020900040F080503E49C8610846C06900F0805059
:1020A000009000BF00BF01273A48006800F480702C
:1020B000B0B93848006840F4807036490860FFF7CE
:1020C00097FE064606E0FFF793FE801B642801D9C1
:1020D0000320F8BD2F48006800F480700028F2D07B
:1020E0002B48006A00F440752DB3A08800F44070BE
:1020F000A84220D02648006A20F4407501202649D5
:102100000860002008602248056205F0010090B1D7
:10211000FFF76EFE064608E0FFF76AFE801B41F2FD
:102120008831884201D90320D3E71948006A00F0BA
:1021300002000028F0D01648006A20F44070616860
:10214000084313490862012F04D10846C06920F0F2
:102150008050C86100BF207800F00200022807D13B
:102160000B48406820F44040A16808430849486093
:10217000207800F01000102807D10548406820F4AE
:10218000800061690843024948600020A1E700001F
:1021900000100240007000404004424270B5044606
:1021A0000D460CB9012070BD5A48006800F00700C8
:1021B000A8420ED25748006820F00700284355492E
:1021C00008600846006800F00700A84201D001201E
:1021D000E9E7207800F0020002281DD1207800F005
:1021E0000400042805D14C48406840F4E0604A49A6
:1021F0004860207800F00800082805D1464840686B
:1022000040F46050444948604348406820F0F00082
:10221000A168084340494860207800F0010078B385
:102220006068012806D13C48006800F4003090B98D
:102230000120B8E76068022806D13748006800F03E
:10224000007040B90120AEE73348006800F002009A
:1022500008B90120A7E73048406820F00300616812
:1022600008432D494860FFF7C3FD064609E0FFF724
:10227000BFFD801B41F28831884202D9032092E7DA
:1022800007E02548406800F00C006168B0EB810F62
:10229000EDD12048006800F00700A8420ED91D4883
:1022A000006820F0070028431A49086008460068C3
:1022B00000F00700A84201D0012074E7207800F068
:1022C0000400042807D11448406820F4E060E16865
:1022D000084311494860207800F00800082808D118
:1022E0000D48406820F46050216940EAC1000A4965
:1022F000486000F03FF808494968C1F30311074AF4
:10230000515CC8400649086006480068FFF78AFD2E
:10231000002048E70020024000100240028C000824
:1023200000000020140000200148006870470000F1
:102330000000002000B5FFF7F7FF04494968C1F32A
:102340000221034A515CC84000BD00000010024059
:10235000128C000800B5FFF7E7FF04494968C1F394
:10236000C221034A515CC84000BD00000010024079
:10237000128C0008F0B585B00FF26C0C9CE8E010F0
:1023800001A8A0E8E0101CA52D68009500210022FE
:10239000002300240020194D696801F00C05F5B1F7
:1023A000042D02D0082D19D101E0154819E001AD26
:1023B000C1F38346AC5D01F4803555B10F4D6D68B6
:1023C000C5F340451DF805200D4D6543B5FBF2F3FF
:1023D00002E00C4D04FB05F3184602E000BF08487C
:1023E00000BF00BF05B0F0BD0203040506070809E1
:1023F0000A0B0C0D0E0F101001020000001002401D
:1024000000127A0000093D00F8B504460CB901201D
:10241000F8BD207800F00100002878D0F848406826
:1024200000F00C0004280CD0F548406800F00C00C7
:10243000082811D1F248406800F48030B0F5803FA0
:102440000AD1EF48006800F4003000285FD06068CF
:1024500000285CD10120DBE700BF6068B0F5803F59
:1024600006D1E748006840F48030E549086028E07C
:10247000606858B9E248006820F48030E04908609C
:102480000846006820F4802008601AE06068B0F513
:10249000A02F0BD1DA48006840F48020D8490860AA
:1024A0000846006840F4803008600AE0D4480068BC
:1024B00020F48030D24908600846006820F480206B
:1024C000086000BF606888B1FFF792FC054606E02F
:1024D000FFF78EFC401B642801D9032098E7C84809
:1024E000006800F400300028F2D010E0FFF780FC14
:1024F000054606E0FFF77CFC401B642801D9032059
:1025000086E7BF48006800F400300028F2D1207848
:1025100000F00200022857D1B948406800F00C00D2
:1025200050B1B748406800F00C00082818D1B448F2
:10253000406800F4803098B9B148006800F00200AB
:1025400020B12069012801D0012061E7AC48006872
:1025500020F0F800616940EAC100A949086033E051
:102560002069E8B10120A7490860FFF741FC054652
:1025700006E0FFF73DFC401B022801D9032047E796
:102580009F48006800F002000028F2D09C480068D4
:1025900020F0F800616940EAC1009949086013E041
:1025A000002098490860FFF723FC054606E0FFF786
:1025B0001FFC401B022801D9032029E7904800682E
:1025C00000F002000028F2D1207800F0080008286E
:1025D0002DD1A069B8B101208B490860FFF708FC34
:1025E000054606E0FFF704FC401B022801D9032042
:1025F0000EE78348406A00F002000028F2D0012074
:1026000000F0ECFC13E000207F490860FFF7F0FBCE
:10261000054606E0FFF7ECFB401B022801D903202A
:10262000F6E67748406A00F002000028F2D12078F0
:1026300000F00400042873D100277148C06900F03D
:10264000805070B900BF6E48C06940F080506C493E
:10265000C8610846C06900F08050009000BF00BF0C
:1026600001276A48006800F48070B0B967480068C4
:1026700040F4807065490860FFF7BAFB054606E044
:10268000FFF7B6FB401B642801D90320C0E65F4872
:10269000006800F480700028F2D000BFE0680128D4
:1026A00006D15748006A40F001005549086227E00A
:1026B000E06858B95248006A20F0010050490862A9
:1026C0000846006A20F00400086219E0E068052866
:1026D0000BD14B48006A40F00400494908620846A3
:1026E000006A40F0010008620AE04548006A20F0F4
:1026F0000100434908620846006A20F004000862AD
:1027000000BFE068A0B1FFF773FB054609E0FFF7E3
:102710006FFB401B41F28831884202D9032077E6E3
:1027200022E03748006A00F002000028EFD012E0F3
:10273000FFF75EFB054608E0FFF75AFB401B41F23E
:102740008831884201D9032062E62D48006A00F0F2
:1027500002000028F0D1012F05D12948C06920F0DE
:1027600080502749C86100BFE069C8B32448406869
:1027700000F00C00082860D0E069022848D1002051
:1027800020490866FFF734FB054606E0FFF730FBFB
:10279000401B022801D903203AE61948006800F0DE
:1027A00000700028F2D1206AB0F5803F07D11448AC
:1027B000406820F40030A168084311494860D4E91A
:1027C000080108430E49496821F4741108430C4973
:1027D000486001200B490866FFF70AFB054607E041
:1027E0003DE0FFF705FB401B022801D903200FE65F
:1027F0000348006800F000700028F2D02FE00000CD
:10280000001002400000424280044242007000403A
:10281000002014490866FFF7EBFA054606E0FFF7CB
:10282000E7FA401B022801D90320F1E50E480068B1
:1028300000F000700028F2D111E0E069012800D119
:10284000E6E50948466806F48031206A814204D1F1
:1028500006F47011606A814201D00120D8E50020A1
:10286000D6E50000000042420010024070B5044668
:102870000E4615461CB1A069B0F5807F01D101203C
:1028800070BD94F8410028B9002084F8400020462B
:1028900000F020F804F108012068FEF755FC3146ED
:1028A000A2682068FEF78CFC2946236BD4E901025C
:1028B000FEF728FCA168206850F8210040F00100D4
:1028C000A268216841F82200012084F8410000201C
:1028D000D6E7000010B586B0044600BF1E48406928
:1028E00040F480701C4948610846406900F48070DB
:1028F000019000BF00BF00BF0846806940F0200083
:1029000088610846806900F02000019000BF00BF88
:1029100000BF0846806940F0400088610846806931
:1029200000F04000019000BF00BF4CF20370029025
:1029300002200390012004900320059002A907487B
:10294000FFF7B0F84FF68070029002A90448FFF735
:10295000A9F806B010BD00000010024000140140AC
:1029600000180140042808D14FF0E021096941F026
:1029700004014FF0E022116107E04FF0E021096906
:1029800021F004014FF0E0221161704770B5044658
:102990002546681EB0F1807F01D301200FE0681E3C
:1029A0004FF0E02148610F214FF0FF3000F0CEFDE5
:1029B00000204FF0E021886107200861002070BDF1
:1029C00010B504460CB9012010BD94F83D0028B99B
:1029D000002084F83C00204600F025F8022084F80E
:1029E0003D00211D206800F067FB012084F84600AF
:1029F00000BF84F83E0001213F20015540200155D1
:102A00004120015500BF00BF012084F8420043204F
:102A10000155442001554520015500BF012084F88F
:102A20003D000020D0E77047014691F83D000128A5
:102A300001D001207047022081F83D000868C0687D
:102A400040F001000B68D860164B0868984213D01C
:102A5000154B086898420FD00868B0F1804F0BD032
:102A6000124B0868984207D0114B0868984203D06F
:102A7000104B086898420CD10868806800F0070283
:102A8000062A0CD00868006840F001000B68186046
:102A900005E00868006840F001000B68186000203D
:102AA000C8E70000002C0140003401400004004051
:102AB00000080040000C0040704700002DE9F0477E
:102AC0000446206805682068C668206847694FF09A
:102AD0000008C14605F00F08B8F1000F0AD105F053
:102AE000200038B106F0200020B1204600F05CFB49
:102AF000BDE8F087B8F1000F71D007F0010018B9F8
:102B000006F4907000286AD005F0010030B106F498
:102B1000807018B1E06B40F00100E06305F0040044
:102B200030B107F0010018B1E06B40F00200E06343
:102B300005F0020030B107F0010018B1E06B40F081
:102B40000400E06305F0080048B106F0200010B969
:102B500007F0010018B1E06B40F00800E063E06BA3
:102B600068B305F0200028B106F0200010B120461F
:102B700000F01AFB20684069C0F38019E06B00F098
:102B8000080010B9B9F1000F22D0204600F0ECFA8D
:102B90002068406900F04000B0B12068406920F032
:102BA000400021684861606B50B11848616B486310
:102BB000606BFEF70FFE10B1606B416B88470CE055
:102BC0002046FFF779FF08E02046FFF775FF04E095
:102BD0002046FFF771FF0020E06389E7FFE705F07B
:102BE000800030B106F0800018B1204600F0AAFB4A
:102BF0007EE705F0400030B106F0400018B12046F5
:102C000000F0C2FA74E700BF72E700005531000817
:102C100010B504460CB9012010BDA06900B100E058
:102C200000BF94F8390028B9002084F83800204605
:102C300000F028F8242084F839002068C06820F4C7
:102C400000502168C860204600F0FEFA2068006944
:102C500020F49040216808612068406920F02A0033
:102C6000216848612068C06840F400502168C8604D
:102C70000020E063202084F8390084F83A00002026
:102C8000CAE7000010B586B004465849206888425B
:102C90004BD100BF00BF5648806940F00400544942
:102CA00088610846806900F00400019000BF00BF01
:102CB00000BF00BF00BF0846806940F00400886183
:102CC0000846806900F00400019000BF00BF00BF0B
:102CD00000BF00BF0846806940F480408861084614
:102CE000806900F48040019000BF00BF00BF48151C
:102CF000029002200390012004900320059002A975
:102D00003C48FEF7CFFE4FF4806002900020039015
:102D100002A93848FEF7C6FE2520FFF7AAF80322CD
:102D200011462520FFF7B5F85DE033492068884259
:102D300059D100BF00BF2E48806940F008002C49DF
:102D400088610846806900F00800019000BF00BF5C
:102D500000BF00BF00BF0846806940F008008861DE
:102D60000846806900F00800019000BF00BF00BF66
:102D700000BF00BF0846C06940F48020C861084613
:102D8000C06900F48020019000BF00BF00BF08159B
:102D9000029002200390002004900320059002A9D5
:102DA0001648FEF77FFE4FF400600290002003906B
:102DB00004900320059002A91048FEF773FE00223C
:102DC00011462720FFF765F82720FFF752F8206803
:102DD000C06840F020002168C8602068C06840F0EA
:102DE00010002168C86006B010BD00000038014026
:102DF000001002400008014000480040000C014063
:102E00002DE9F84F04460E46174699464FF0000A42
:102E100094F83A0020285DD106B117B90120BDE829
:102E2000F88F00BF94F83800012801D10220F6E79E
:102E3000012084F8380000BF0020E063222084F8DD
:102E40003A00FEF7D5FF8246A785E785A068B0F572
:102E5000805F04D1206910B90025B04602E03546F4
:102E60004FF0000800BF002084F8380000BF29E0C0
:102E70005346002220212046CDF8009000F092FA1F
:102E800008B10320CBE745B920684068C0F30800CB
:102E9000A8F8000008F1020811E0A068B0F5805F12
:102EA00003D0A06828B9206918B920684068287044
:102EB00004E02068406800F07F0028706D1CE08D01
:102EC000401EE085E08D0028D2D1202084F83A0011
:102ED0000020A4E70220A2E710B5034693F83A00C9
:102EE00020282FD101B10AB9012010BD00BF93F8ED
:102EF0003800012801D10220F7E7012083F83800CB
:102F000000BF99629A85DA850020D863222083F871
:102F10003A0000BF002083F8380000BF1868C0687E
:102F200040F480701C68E0601868406940F001005F
:102F30001C6860611868C06840F020001C68E06090
:102F40000020D2E70220D0E71D4A0168914236D125
:102F50001C49098801F4004189BB1A49098801F418
:102F6000804171B1184909780A2903D00021154A16
:102F7000118024E01349098841F40041114A11806D
:102F80001DE0114909780D2906D10E49098841F43F
:102F900080410C4A118012E00B490978094A1288D5
:102FA000C2F30D02094B995406490988491C054A88
:102FB000118011460988C72901DD00211180704761
:102FC000003801400C0000200E0000209019002065
:102FD000704700BFFEE700BFFEE7704708B508492D
:102FE0000968C9084FF47A72B1FBF2F141430091CC
:102FF00000BF00BF00994A1E00920029F9D108BD08
:1030000000000020704770472DE9F0472348006812
:10301000006900F0010000283DD06FF001001F4959
:10302000096808611E48B0F800A000201D4908701A
:10303000012000F0A9FA1C48006800282ADB1A4881
:103040000068B0F5806F25DA504604F0CAFF80466C
:103050004FF06632154B05F02BF806464FF06632FE
:10306000134B05F009FA044604F050FD0E490968B7
:103070004900104A42F8210000210B480068012253
:1030800002EB40000B4A42F8201007480068401C41
:103090000549086000BFBDE8F0870000981C0020CB
:1030A0001C000020190000202000002066664A3F16
:1030B0006666FA3FE01C002010B50268204B98427B
:1030C0000ED0204B98420BD0B0F1804F08D01E4B51
:1030D000984205D01D4B984202D01D4B984203D117
:1030E00022F070024B681A43154B98420ED0154BD4
:1030F00098420BD0B0F1804F08D0134B984205D0C6
:10310000124B984202D0124B984203D122F44072E3
:10311000CB681A4322F080034C6943EA0402026040
:103120008B68C3620B688362054B984202D0054BE3
:10313000984201D10B6903630123436110BD000074
:10314000002C014000340140000400400008004011
:10315000000C004070B505466C6A0020E085E084F4
:103160002046FFF7A9FC70BD0168C96821F4907181
:103170000268D1600168496921F00101026851616A
:10318000202180F83A10704710B504462068C068C6
:1031900020F040002168C860202084F839002046D3
:1031A000FFF716FF002010BD70B5044694F83A00F2
:1031B000222847D1A068B0F5805F0CD1206950B9B2
:1031C0000025A66A20684068C0F308003080A06A25
:1031D000801CA06215E0A56A0026A068B0F5805F9B
:1031E00003D0A06828B9206918B920684068287001
:1031F00004E02068406800F07F002870A06A401C4E
:10320000A062E08D401E80B2E085C8B92068C06829
:1032100020F020002168C8602068C06820F4807019
:103220002168C8602068406920F001002168486179
:10323000202084F83A002046FFF786FE002070BD6B
:103240000020FCE70220FAE770B50446216809690E
:1032500021F44051E2681143226811612269A1689A
:103260001143626941EA02052168C96841F20C62B2
:10327000914329432268D1602168496921F4407152
:10328000A2691143226851612D4A2168914202D1FD
:10329000FFF760F801E0FFF74DF800EBC00101EB2C
:1032A000001162689200B1FBF2F100EBC00202EB88
:1032B000001263689B00B2FBF3F26423B2FBF3F2EB
:1032C00002EBC20303EB0212A1EB8201322202EBFA
:1032D00001116422B1FBF2F101F0F00100EBC00238
:1032E00002EB001263689B00B2FBF3F26423B2FBB3
:1032F000F3F201EB021200EBC00101EB0011636875
:103300009B00B1FBF3F100EBC00303EB0013666815
:10331000B600B3FBF6F36426B3FBF6F303EBC30688
:1033200006EB0313A1EB8301322303EB01116423AA
:10333000B1FBF3F101F00F0111442268916070BDFF
:1033400000380140014691F83900212828D18868C9
:10335000B0F5805F0BD1086948B90A6A1088C0F3DC
:1033600008000B685860086A801C086205E00B6A58
:10337000581C086218780B685860C88C401E80B2D0
:10338000C88458B90868C06820F080000B68D8600D
:103390000868C06840F040000B68D86000207047A3
:1033A0000220FCE72DE9F04104460D4617469846F9
:1033B000069E21E0701CF8B12EB1FEF719FDA0EBBE
:1033C0000800B04218D92068C06820F4D070216885
:1033D000C8602068406920F0010021684861202011
:1033E00084F8390084F83A0000BF002084F83800DF
:1033F00000BF0320BDE8F081206800682840A84293
:1034000001D1012000E00020B842D3D00020F1E734
:1034100010B50648FFF752FB00BF012204490348DC
:10342000FFF75AFD0028F8D110BD0000581A0020FF
:103430000E0000201CB53E4800680068C0F3C000C4
:1034400090B100BF002000903948006800680090EB
:10345000374800684068009000BF00BF34480068EB
:103460000068334800684068314800680068C0F36D
:10347000401010B34FF0FF33012201A92C48FFF791
:10348000BFFC2C48B0F88000C0F30E007F2815DA8E
:103490009DF804002749B1F88010C1F30E01254AB8
:1034A00050541046B0F88000401C1146B1F880100E
:1034B00060F30E011046A0F880101BE01D48B0F824
:1034C00080006FF30E001B49A1F880009DF80400F6
:1034D000B1F88010C1F30E01164A50541046B0F8EE
:1034E0008000401C1146B1F8801060F30E011046B8
:1034F000A0F880100E4800680068C0F30010B0B15A
:103500000C48B0F8800020F4004000F50040094964
:10351000A1F8800000BF0020009005480068006806
:103520000090034800684068009000BF00BF1CBDC9
:10353000F01A0020301B002000BFFEE702480068A0
:10354000C0F30220704700000CED00E010B5002829
:1035500004DB0A07130E054A135406E00A07140E8B
:10356000034A00F00F031B1FD45410BD00E400E019
:1035700018ED00E030380A2801D201207047002001
:10358000704700BF704700001249096821F001012F
:10359000104A11601049896821F001010E4A9160BA
:1035A00000BF0D49896801F001010029F9D10A49DC
:1035B000C860896841F00101074A916005490968BE
:1035C00041F00101034A11601146096841F480018C
:1035D00011607047082401400000024001B58EB020
:1035E000182104A8FDF7C0FB002001900290039071
:1035F00000BF00BF4448806940F4007042498861C0
:103600000846806900F40070009000BF00BF00BF52
:1036100000BF00BF0846806940F00400886108468A
:10362000806900F00400009000BF00BF00BF00BF31
:103630000846406940F0010048610846406900F0D2
:103640000100009000BF00BF02200490800306909C
:1036500004A8FEF70BFD02200A9003200B900AA994
:103660002A48FEF71FFA2A482A49086000204860C5
:103670000021284881608021C160490001618900E2
:103680004161002181614FF48051C161FEF776F9FB
:1036900000BF20482049086208461E49486200BF12
:1036A0001E481D4908600020486000211A488160BA
:1036B0000121017301610021017581614FF46021D5
:1036C000C161FDF7D5FE1448FDF79CFD0120019076
:1036D0000290039001A91048FDF716FE032211463F
:1036E0000B20FEF7D6FB0B20FEF7C3FB00230B4994
:1036F0004C3108480E9AFEF787F900220EA90648B9
:10370000FDF7A8FF0FB000BD001002400008014007
:1037100008000240241C0020681C002000240140F6
:1037200010B5044600204FF0E0210861FFF71AF9B8
:103730002046E11704EB5171C1F3CF01014A11801A
:1037400010BD00000400002070B504464FF47A70EC
:1037500094FBF0F594FBF0F100FB114603E0074801
:1037600000F00EF86D1E002DF9D12EB14FF47A71D4
:1037700006FB01F000F004F870BD000040420F00AD
:103780000146114A12884A434FF0E0235A61002251
:103790009A611A46126942F001021A6100BF4FF0A5
:1037A000E022106900F001021AB100F48032002A10
:1037B000F5D04FF0E022126922F001024FF0E02331
:1037C0001A6100229A6170470400002000BF054A78
:1037D000126802F04002002AF9D0C2B2014B1B1D50
:1037E0001A6070470038014038B504460D4600BFE6
:1037F00000BF1248C06940F002001049C861084685
:10380000C06900F00200009000BF00BF00BF0C487C
:103810000C4908600846456000218160C460FFF7DC
:10382000CFF8032201211D20FEF733FB1D20FEF7F8
:1038300020FB0448FFF7F8F838BD000000100240F4
:1038400000040040981C0020F8B54BF28663282243
:103850009B21462000F056FA44F2CF5323229B21AD
:10386000462000F04FFA6FF0130417E004F1140043
:1038700000EBD07149104D1C47F6C15004F196067B
:10388000B3B205F14606B2B204F19606B1B2C5F183
:1038900046060090B0B200F06AFA641C142CE5DD14
:1038A0004FF6625328223C21462000F02BFA4EF2BC
:1038B000234323223C21462000F024FA4FF6E070F7
:1038C00037235A222D210090322000F0B7FA4FF60C
:1038D000E0704B235A2241210090322000F0AEFAD2
:1038E0004FF4784328229B21AF2000F00BFA4AF2D4
:1038F000891323229B21AF2000F004FA4AF602101C
:10390000AA23BE228C210090A02000F097FAF8BDD7
:1039100070B5ADF6B84DF42280490DF6C430FDF710
:10392000F1F9F4227E490DF52D60FDF7EBF9F42253
:103930007C490DF6DC10FDF7E5F9002416E00DF6E4
:10394000DC10005DC0F516754FF6FF702B460DF5C7
:103950002D660090365D06F1230229460DF6C43629
:10396000365D06F1230000F002FA641CF22CE6DB5F
:10397000D8226D490DF60410FDF7C4F9D8226B4921
:103980000DF62C00FDF7BEF9D82269490DF25470EE
:10399000FDF7B8F9002416E00DF25470005D00F157
:1039A0004B054FF6FF700DF62C060090365D06F2C3
:1039B0000D232A460DF60416365D06F20D21284623
:1039C00000F0D5F9641CD72CE6DBEC2259490DF543
:1039D000CD60FDF797F9EC2257490DF27C50FDF7C9
:1039E00091F9EC2255490DF59260FDF78BF9002411
:1039F00016E00DF59260005DC0F519754FF6FF7089
:103A00002B460DF27C560090365D06F213122946C5
:103A10000DF5CD66365D06F2131000F0A8F9641CB2
:103A2000E92CE6DB782246490DF58360FDF76AF95B
:103A300078224449E8A8FDF765F978224249CAA8E6
:103A4000FDF760F9002414E0CAA8005D00F59C753C
:103A50004FF6FF70E8AE0090365D06F20F232A465F
:103A60000DF58366365D06F20F21284600F07FF9DA
:103A7000641C782CE8DBA8223449A0A8FDF742F9A1
:103A8000A822334976A8FDF73DF9A82231494CA870
:103A9000FDF738F9002414E04CA8005D40F26721DE
:103AA0000D1A4FF6FF702B4676AE0090365D06F588
:103AB000D2722946A0AE365D06F5D27000F057F9F5
:103AC000641CA52CE8DB6422234933A8FDF71AF90E
:103AD000642222491AA8FDF715F96422204901A899
:103AE000FDF710F9002413E001A8005D00F2611554
:103AF0004FF6FF701AAE0090365D06F513732A4636
:103B000033AE365D06F51371284600F030F9641CBB
:103B1000612CE9DB0DF6B84D70BD0000888D000802
:103B2000C01A0108B41B0108A81C0108801D010867
:103B3000581E0108301F01081C2001080821010837
:103B4000F42101086C220108E42201085C23010829
:103B500004240108AC24010854250108B8250108F3
:103B60001C26010870B504460026094805884088CF
:103B700045430021084603F0F7F903F0DFFC00BFDE
:103B800002E004480480761CAE42FAD370BD000007
:103B9000E01A00200008006C10B5044658488471F3
:103BA000002C58D1F020564908804FF4A07048806E
:103BB0000846808845F21051884210D14FF43050A9
:103BC0004F4908814FF4285048814FF42C50888188
:103BD0004FF4F07008804FF4487048801AE048486D
:103BE000808841F6631188420DD12C204449088118
:103BF0002B2048812A2088814FF4F07008804FF4F0
:103C00004870488006E02C203D4908812A204881E0
:103C10002B2088813A48808845F21031884205D0AF
:103C20003748808847F29671884206D14FF4A070D9
:103C3000334908804FF4F07048803148808849F655
:103C40000601884258D14FF4F0702D4908804FF496
:103C50004870488050E04FF4A07029490880F02057
:103C600048800846808845F21051884210D14FF4B0
:103C70003050234908814FF4285048814FF42C508C
:103C800088814FF4487008804FF4F070488020E03D
:103C90001B48808841F66311884205D01848808807
:103CA00049F6060188420DD12C20154908812A20A9
:103CB00048812B2088814FF4487008804FF4F070C1
:103CC000488006E02C200E4908812A2048812B20BC
:103CD00088810B48808845F21031884205D0084819
:103CE000808847F29671884206D14FF4F0700449FB
:103CF00008804FF4A0704880002003F001F810BD48
:103D0000E01A00202DE9FF5F0546894614469B46D0
:103D10002E1B27E0A9EB040A1FE0204604F078F9E7
:103D2000CDE90201A9EB0A014943AA1BAB1B02FB27
:103D3000031004F056F9074603F064FECDE90001D4
:103D4000DDE9022304F078F905D81FFA8AF1B0B250
:103D50005A4600F063F80AF1010A09EB04005045E5
:103D6000DBDA761C2819B042D4DABDE8FF9F2DE9D2
:103D7000FF4F84B081468A46002002908346069811
:103D8000A0EB09050798A0EB0A06CDF80490CDF842
:103D900000A0002D01DD012705E00DB9002702E09C
:103DA0004FF0FF376D42002E02DD4FF0010806E0B4
:103DB00016B94FF0000802E04FF0FF387642B542E6
:103DC00001DD2C4600E03446002003901EE0009AFE
:103DD00091B2019A90B2119A00F020F8029828440A
:103DE0000290B3440298A04205DD0298001B0290A5
:103DF000019838440190A34504DDABEB040B009817
:103E0000404400900398401C80B20390611C0398CA
:103E10008842DCDD08B0BDE8F08F000070B50546D3
:103E20000E4614463146284603F09EF803F086FB02
:103E300001490C8070BD00000008006C2DE9FC4FAA
:103E400004460D4616461F46B44201DD304600E0EA
:103E500020468246B44201DD204600E030468346DB
:103E6000BD4201DD384600E028460190BD4201DD3B
:103E7000284600E038460090D04610E0DDF8049077
:103E800008E01FFA89F11FFA88F00B9AFFF7C6FFC6
:103E900009F1010900988145F3DD08F10108D845D1
:103EA000ECDDBDE8FC8F10B5CF2003F03BFB00201C
:103EB00003F02CFBC12003F029FB302003F026FB8C
:103EC000ED2003F02FFB642003F020FB032003F020
:103ED0001DFB122003F01AFB812003F017FBE820E2
:103EE00003F020FB852003F011FB102003F00EFBF4
:103EF0007A2003F00BFBCB2003F014FB392003F0F6
:103F000005FB2C2003F002FB002003F0FFFA342015
:103F100003F0FCFA022003F0F9FAF72003F002FBA9
:103F2000202003F0F3FAEA2003F0FCFA002003F06B
:103F3000EDFA002003F0EAFAC02003F0F3FA1B20A8
:103F400003F0E4FAC12003F0EDFA012003F0DEFAF9
:103F5000C52003F0E7FA302003F0D8FA302003F050
:103F6000D5FAC72003F0DEFAB72003F0CFFA3620E7
:103F700003F0D8FA482003F0C9FA3A2003F0D2FA45
:103F8000552003F0C3FAB12003F0CCFA002003F06F
:103F9000BDFA1A2003F0BAFAB62003F0C3FA0A20D9
:103FA00003F0B4FAA22003F0B1FAF22003F0BAFA57
:103FB000002003F0ABFA262003F0B4FA012003F04E
:103FC000A5FAE02003F0AEFA0F2003F09FFA2A20B2
:103FD00003F09CFA282003F099FA082003F096FADF
:103FE0000E2003F093FA082003F090FA542003F017
:103FF0008DFAA92003F08AFA432003F087FA0A20F9
:1040000003F084FA0F2003F081FA002003F07EFA17
:10401000002003F07BFA002003F078FA002003F080
:1040200075FAE12003F07EFA002003F06FFA152004
:1040300003F06CFA172003F069FA072003F066FA20
:10404000112003F063FA062003F060FA2B2003F03E
:104050005DFA562003F05AFA3C2003F057FA052087
:1040600003F054FA102003F051FA0F2003F04EFA37
:104070003F2003F04BFA3F2003F048FA0F2003F0F3
:1040800045FA2B2003F04EFA002003F03FFA0020FF
:1040900003F03CFA012003F039FA3F2003F036FA2E
:1040A0002A2003F03FFA002003F030FA002003F04A
:1040B0002DFA002003F02AFAEF2003F027FA11204E
:1040C00003F030FA7820FFF73FFB292003F02AFAAB
:1040D00010BD10B5FF2003F025FAFF2003F016FAFB
:1040E000982003F013FA062003F010FABC2003F026
:1040F00019FA012003F00AFA0F2003F007FA6120F1
:1041000003F004FAFF2003F001FA012003F0FEF9A6
:10411000012003F0FBF90B2003F0F8F9102003F065
:10412000F5F9372003F0F2F9632003F0EFF9FF20EF
:1041300003F0ECF9FF2003F0E9F9012003F0E6F9C0
:10414000012003F0E3F9002003F0E0F9002003F080
:10415000DDF9FF2003F0DAF9522003F0D7F901204E
:1041600003F0D4F9002003F0D1F9402003F0CEF998
:10417000BD2003F0D7F9012003F0C8F9232003F094
:10418000C5F9452003F0C2F9672003F0BFF901200B
:1041900003F0BCF9232003F0B9F9452003F0B6F988
:1041A000672003F0B3F9BE2003F0BCF9002003F050
:1041B000ADF9012003F0AAF9AB2003F0A7F96020C4
:1041C00003F0A4F9222003F0A1F9222003F09EF9C4
:1041D000222003F09BF9222003F098F9222003F01B
:1041E00095F9C72003F09EF9362003F08FF9ED20F2
:1041F00003F098F97F2003F089F90F2003F086F986
:10420000C02003F08FF90F2003F080F90B2003F09A
:104210007DF90A2003F07AF9FC2003F083F90820E5
:1042200003F074F9DF2003F07DF9002003F06EF94C
:10423000002003F06BF9002003F068F9002003F080
:1042400065F9002003F062F9202003F05FF9F32004
:1042500003F068F9742003F059F9B42003F062F90F
:10426000002003F053F9002003F050F9002003F080
:104270004DF9F72003F056F9822003F047F9B120F9
:1042800003F050F9002003F041F9132003F03EF948
:10429000132003F03BF9F22003F044F9802003F0EF
:1042A00035F9042003F032F9402003F02FF92820DB
:1042B00003F02CF9C12003F035F9172003F026F99B
:1042C000882003F023F9882003F020F9202003F050
:1042D0001DF9E02003F026F9002003F017F90A2069
:1042E00003F014F9122003F011F9102003F00EF975
:1042F0000E2003F00BF9202003F008F9CC2003F086
:1043000005F9072003F002F9062003F0FFF80B205F
:1043100003F0FCF80E2003F0F9F80F2003F0F6F894
:104320000D2003F0F3F8152003F0F0F8102003F04F
:10433000EDF8002003F0EAF8E12003F0F3F80020A4
:1043400003F0E4F80B2003F0E1F8132003F0DEF8AB
:104350000D2003F0DBF80E2003F0D8F81B2003F04B
:10436000D5F8712003F0D2F8062003F0CFF806202C
:1043700003F0CCF80A2003F0C9F80F2003F0C6F8C8
:104380000E2003F0C3F80F2003F0C0F8152003F04F
:10439000BDF80C2003F0BAF8002003F0B7F82A208B
:1043A00003F0C0F8002003F0B1F8002003F0AEF8ED
:1043B000012003F0ABF8DF2003F0A8F82B2003F076
:1043C000B1F8002003F0A2F8002003F09FF80320CA
:1043D00003F09CF81F2003F099F83A2003F0A2F8AC
:1043E000552003F093F8362003F09CF8002003F0EA
:1043F0008DF8112003F096F87820FFF7A5F9292011
:1044000003F090F81420FFF79FF92C2003F08AF8AE
:1044100010BD10B5ED2003F085F8012003F076F80B
:10442000FE2003F073F8EE2003F07CF8DE2003F0AA
:104430006DF8212003F06AF8F12003F073F80120F1
:1044400003F064F8DF2003F06DF8102003F05EF84D
:10445000C42003F067F88F2003F058F8C62003F05B
:1044600061F8002003F052F8E22003F04FF8E22058
:1044700003F04CF8E22003F049F8BF2003F052F8B3
:10448000AA2003F043F8B02003F04CF80D2003F00D
:104490003DF8002003F03AF80D2003F037F8002033
:1044A00003F034F8112003F031F8002003F02EF867
:1044B000192003F02BF8002003F028F8212003F046
:1044C00025F8002003F022F82D2003F01FF800202B
:1044D00003F01CF83D2003F019F8002003F016F853
:1044E0005D2003F013F8002003F010F85D2003F0C6
:1044F0000DF8002003F00AF8B12003F013F8802033
:1045000003F004F8002003F001F88B2002F0FEFF16
:10451000002002F0FBFF962002F0F8FF002002F0DE
:10452000F5FFB22002F0FEFF002002F0EFFF0020B6
:1045300002F0ECFF022002F0E9FF002002F0E6FFAB
:10454000032002F0E3FF002002F0E0FFB32002F0BE
:10455000E9FF002002F0DAFF002002F0D7FF002080
:1045600002F0D4FF002002F0D1FF002002F0CEFFC5
:10457000002002F0CBFF002002F0C8FF002002F074
:10458000C5FF002002F0C2FF002002F0BFFF0020A4
:1045900002F0BCFF002002F0B9FF002002F0B6FFDD
:1045A000002002F0B3FF002002F0B0FF002002F074
:1045B000ADFF002002F0AAFF002002F0A7FF0020BC
:1045C00002F0A4FF002002F0A1FF002002F09EFFF5
:1045D000002002F09BFF002002F098FF002002F074
:1045E00095FFB42002F09EFF8B2002F08FFF002089
:1045F00002F08CFF962002F089FF002002F086FF77
:10460000A12002F083FF002002F080FFB52002F01D
:1046100089FF022002F07AFF002002F077FF0320DA
:1046200002F074FF002002F071FF042002F06EFF20
:10463000002002F06BFFB62002F074FF002002F0B1
:1046400065FF002002F062FFB72002F06BFF002040
:1046500002F05CFF002002F059FF3F2002F056FFFD
:10466000002002F053FF5E2002F050FF002002F015
:104670004DFF642002F04AFF002002F047FF8C202B
:1046800002F044FF002002F041FFAC2002F03EFFA8
:10469000002002F03BFFDC2002F038FF002002F097
:1046A00035FF702002F032FF002002F02FFF902033
:1046B00002F02CFF002002F029FFEB2002F026FF81
:1046C000002002F023FFDC2002F020FF002002F097
:1046D0001DFFB82002F026FF002002F017FF002087
:1046E00002F014FF002002F011FF002002F00EFF84
:1046F000002002F00BFF002002F008FF002002F073
:1047000005FF002002F002FFBA2002F00BFF242078
:1047100002F0FCFE002002F0F9FE002002F0F6FE9E
:10472000002002F0F3FEC12002F0FCFE202002F087
:10473000EDFE002002F0EAFE542002F0E7FE002029
:1047400002F0E4FEFF2002F0E1FE002002F0DEFEB7
:10475000C22002F0E7FE0A2002F0D8FE002002F09C
:10476000D5FE042002F0D2FE002002F0CFFEC320CE
:1047700002F0D8FE3C2002F0C9FE002002F0C6FE86
:104780003A2002F0C3FE002002F0C0FE392002F001
:10479000BDFE002002F0BAFE372002F0B7FE002076
:1047A00002F0B4FE3C2002F0B1FE002002F0AEFEAA
:1047B000362002F0ABFE002002F0A8FE322002F00C
:1047C000A5FE002002F0A2FE2F2002F09FFE002096
:1047D00002F09CFE2C2002F099FE002002F096FED2
:1047E000292002F093FE002002F090FE262002F025
:1047F0008DFE002002F08AFE242002F087FE0020B9
:1048000002F084FE242002F081FE002002F07EFEF1
:10481000232002F07BFE002002F078FE3C2002F014
:1048200075FE002002F072FE362002F06FFE0020BE
:1048300002F06CFE322002F069FE002002F066FEFB
:104840002F2002F063FE002002F060FE2C2002F018
:104850005DFE002002F05AFE292002F057FE0020E3
:1048600002F054FE262002F051FE002002F04EFE1F
:10487000242002F04BFE002002F048FE242002F02B
:1048800045FE002002F042FE232002F03FFE002001
:1048900002F03CFEC42002F045FE622002F036FE2B
:1048A000002002F033FE052002F030FE002002F06E
:1048B0002DFE842002F02AFE002002F027FEF020C8
:1048C00002F024FE002002F021FE182002F01EFE5D
:1048D000002002F01BFEA42002F018FE002002F0CF
:1048E00015FE182002F012FE002002F00FFE5020EC
:1048F00002F00CFE002002F009FE0C2002F006FE81
:10490000002002F003FE172002F000FE002002F05B
:10491000FDFD952002F0FAFD002002F0F7FDF320E6
:1049200002F0F4FD002002F0F1FDE62002F0EEFDC1
:10493000002002F0EBFDC52002F0F4FD322002F071
:10494000E5FD002002F0E2FD442002F0DFFD002042
:1049500002F0DCFD652002F0D9FD002002F0D6FD5A
:10496000762002F0D3FD002002F0D0FD882002F076
:10497000CDFD002002F0CAFDC62002F0D3FD2020AC
:1049800002F0C4FD002002F0C1FD172002F0BEFDC0
:10499000002002F0BBFD012002F0B8FD002002F073
:1049A000B5FDC72002F0BEFD002002F0AFFD0020E3
:1049B00002F0ACFD002002F0A9FD002002F0A6FDEF
:1049C000C82002F0AFFD002002F0A0FD002002F0A0
:1049D0009DFD002002F09AFD002002F097FDC92005
:1049E00002F0A0FD002002F091FD002002F08EFDFB
:1049F000002002F08BFD002002F088FD002002F074
:104A000085FD002002F082FD002002F07FFD0020E5
:104A100002F07CFD002002F079FD002002F076FD1E
:104A2000002002F073FD002002F070FD002002F073
:104A30006DFD002002F06AFD002002F067FD0020FD
:104A400002F064FDE02002F06DFD162002F05EFD34
:104A5000002002F05BFD1C2002F058FD002002F057
:104A600055FD212002F052FD002002F04FFD3620BE
:104A700002F04CFD002002F049FD462002F046FD08
:104A8000002002F043FD522002F040FD002002F021
:104A90003DFD642002F03AFD002002F037FD7A204F
:104AA00002F034FD002002F031FD8B2002F02EFDDB
:104AB000002002F02BFD992002F028FD002002F0DA
:104AC00025FDA82002F022FD002002F01FFDB920E4
:104AD00002F01CFD002002F019FDC42002F016FDBA
:104AE000002002F013FDCA2002F010FD002002F0A9
:104AF0000DFDD22002F00AFD002002F007FDD920B2
:104B000002F004FD002002F001FDE02002F0FEFCB6
:104B1000002002F0FBFCF32002F0F8FC002002F081
:104B2000F5FCE12002F0FEFC162002F0EFFC002074
:104B300002F0ECFC1C2002F0E9FC002002F0E6FC94
:104B4000222002F0E3FC002002F0E0FC362002F01C
:104B5000DDFC002002F0DAFC452002F0D7FC00204A
:104B600002F0D4FC522002F0D1FC002002F0CEFC76
:104B7000642002F0CBFC002002F0C8FC7A2002F096
:104B8000C5FC002002F0C2FC8B2002F0BFFC00201C
:104B900002F0BCFC992002F0B9FC002002F0B6FC47
:104BA000A82002F0B3FC002002F0B0FCB92002F013
:104BB000ADFC002002F0AAFCC42002F0A7FC0020FB
:104BC00002F0A4FCCA2002F0A1FC002002F09EFC2E
:104BD000D22002F09BFC002002F098FCD82002F0CA
:104BE00095FC002002F092FCE02002F08FFC0020F7
:104BF00002F08CFCF32002F089FC002002F086FC1D
:104C0000E22002F08FFC052002F080FC002002F080
:104C10007DFC0B2002F07AFC002002F077FC1B20C8
:104C200002F074FC002002F071FC342002F06EFCF3
:104C3000002002F06BFC442002F068FC002002F02F
:104C400065FC4F2002F062FC002002F05FFC612056
:104C500002F05CFC002002F059FC792002F056FCC6
:104C6000002002F053FC882002F050FC002002F0EB
:104C70004DFC972002F04AFC002002F047FCA620E1
:104C800002F044FC002002F041FCB72002F03EFCA0
:104C9000002002F03BFCC22002F038FC002002F0B1
:104CA00035FCC72002F032FC002002F02FFCD1209E
:104CB00002F02CFC002002F029FCD62002F026FC99
:104CC000002002F023FCDD2002F020FC002002F096
:104CD0001DFCF32002F01AFC002002F017FCE32078
:104CE00002F020FC052002F011FC002002F00EFC76
:104CF0000A2002F00BFC002002F008FC1C2002F04D
:104D000005FC002002F002FC332002F0FFFB002033
:104D100002F0FCFB442002F0F9FB002002F0F6FB5D
:104D2000502002F0F3FB002002F0F0FB622002F0C2
:104D3000EDFB002002F0EAFB782002F0E7FB002008
:104D400002F0E4FB882002F0E1FB002002F0DEFB31
:104D5000972002F0DBFB002002F0D8FBA62002F037
:104D6000D5FB002002F0D2FBB72002F0CFFB0020E1
:104D700002F0CCFBC22002F0C9FB002002F0C6FB0F
:104D8000C72002F0C3FB002002F0C0FBD12002F0DC
:104D9000BDFB002002F0BAFBD52002F0B7FB0020DB
:104DA00002F0B4FBDD2002F0B1FB002002F0AEFB0C
:104DB000F32002F0ABFB002002F0A8FBE42002F09D
:104DC000B1FB012002F0A2FB002002F09FFB0120BA
:104DD00002F09CFB002002F099FB022002F096FBFF
:104DE000002002F093FB2A2002F090FB002002F04A
:104DF0008DFB3C2002F08AFB002002F087FB4B2059
:104E000002F084FB002002F081FB5D2002F07EFBBB
:104E1000002002F07BFB742002F078FB002002F0FF
:104E200075FB842002F072FB002002F06FFB9320E0
:104E300002F06CFB002002F069FBA22002F066FB8E
:104E4000002002F063FBB32002F060FB002002F0C0
:104E50005DFBBE2002F05AFB002002F057FBC4208D
:104E600002F054FB002002F051FBCD2002F04EFB7B
:104E7000002002F04BFBD32002F048FB002002F0A0
:104E800045FBDD2002F042FB002002F03FFBF32057
:104E900002F03CFB002002F039FBE52002F042FB6F
:104EA000002002F033FB002002F030FB002002F073
:104EB0002DFB002002F02AFB022002F027FB00203D
:104EC00002F024FB292002F021FB002002F01EFB4F
:104ED0003C2002F01BFB002002F018FB4B2002F0EC
:104EE00015FB002002F012FB5D2002F00FFB0020FA
:104EF00002F00CFB742002F009FB002002F006FB1C
:104F0000842002F003FB002002F000FB932002F05B
:104F1000FDFA002002F0FAFAA22002F0F7FA0020CF
:104F200002F0F4FAB32002F0F1FA002002F0EEFAF7
:104F3000BE2002F0EBFA002002F0E8FAC42002F0F2
:104F4000E5FA002002F0E2FACD2002F0DFFA0020BC
:104F500002F0DCFAD32002F0D9FA002002F0D6FAEF
:104F6000DC2002F0D3FA002002F0D0FAF32002F0A5
:104F7000CDFA002002F0CAFAE62002F0D3FA11209E
:104F800002F0C4FA002002F0C1FA342002F0BEFAA6
:104F9000002002F0BBFA562002F0B8FA002002F01E
:104FA000B5FA762002F0B2FA002002F0AFFA7720CC
:104FB00002F0ACFA002002F0A9FA662002F0A6FA8C
:104FC000002002F0A3FA882002F0A0FA002002F0EC
:104FD0009DFA992002F09AFA002002F097FABB207D
:104FE00002F094FA002002F091FA992002F08EFA71
:104FF000002002F08BFA662002F088FA002002F00E
:1050000085FA552002F082FA002002F07FFA55203E
:1050100002F07CFA002002F079FA452002F076FADC
:10502000002002F073FA432002F070FA002002F030
:105030006DFA442002F06AFA002002F067FAE720D5
:1050400002F070FA322002F061FA002002F05EFAFB
:10505000552002F05BFA002002F058FA762002F0A8
:1050600055FA002002F052FA662002F04FFA0020B2
:1050700002F04CFA672002F049FA002002F046FAEA
:10508000672002F043FA002002F040FA872002F085
:105090003DFA002002F03AFA992002F037FA002097
:1050A00002F034FABB2002F031FA002002F02EFAAE
:1050B000992002F02BFA002002F028FA772002F063
:1050C00025FA002002F022FA442002F01FFA002004
:1050D00002F01CFA562002F019FA002002F016FA2B
:1050E000232002F013FA002002F010FA332002F01D
:1050F0000DFA002002F00AFA452002F007FA00201B
:1051000002F004FAE82002F00DFA002002F0FEF9A5
:10511000002002F0FBF9992002F0F8F9002002F0DB
:10512000F5F9872002F0F2F9002002F0EFF988206B
:1051300002F0ECF9002002F0E9F9772002F0E6F93C
:10514000002002F0E3F9662002F0E0F9002002F00E
:10515000DDF9882002F0DAF9002002F0D7F9AA2060
:1051600002F0D4F9002002F0D1F9BB2002F0CEF910
:10517000002002F0CBF9992002F0C8F9002002F0DB
:10518000C5F9662002F0C2F9002002F0BFF95520EF
:1051900002F0BCF9002002F0B9F9552002F0B6F98E
:1051A000002002F0B3F9442002F0B0F9002002F030
:1051B000ADF9442002F0AAF9002002F0A7F9552029
:1051C00002F0A4F9002002F0A1F9E92002F0AAF906
:1051D000AA2002F09BF9002002F098F9002002F0CA
:1051E00095F9002002F092F9002002F09BF9AA2024
:1051F00002F08CF9CF2002F095F9002002F086F938
:10520000002002F083F9002002F080F9002002F073
:105210007DF9002002F07AF9002002F077F90020F1
:1052200002F074F9002002F071F9002002F06EF92A
:10523000002002F06BF9002002F068F9002002F073
:1052400065F9002002F062F9002002F05FF9002009
:1052500002F05CF9002002F059F9002002F056F942
:10526000F02002F05FF9002002F050F9502002F027
:105270004DF9002002F04AF9002002F047F9002021
:1052800002F044F9F32002F04DF9002002F03EF95B
:10529000F92002F047F9062002F038F9102002F058
:1052A00035F9292002F032F9002002F02FF93A20D6
:1052B00002F038F9552002F029F9112002F032F9F4
:1052C0006420FEF741FA292002F02CF9352002F083
:1052D00029F9002002F01AF9512002F023F9FF20E9
:1052E00002F014F9532002F01DF92C2002F00EF9FF
:1052F000552002F017F9822002F008F92C2002F064
:1053000011F910BD10B555214FF4704002F020F98D
:10531000AA214FF2010002F01BF952214FF20200C4
:1053200002F016F908214FF2030002F011F90121F1
:105330004FF2040002F00CF90D214FF4304002F05E
:1053400007F90D214BF2010002F002F90D214BF299
:10535000020002F0FDF834214FF4364002F0F8F874
:1053600034214BF2016002F0F3F834214BF2026079
:1053700002F0EEF80D214FF4314002F0E9F80D2172
:105380004BF2011002F0E4F80D214BF2021002F092
:10539000DFF834214FF4374002F0DAF834214BF2D1
:1053A000017002F0D5F834214BF2027002F0D0F80F
:1053B00000214FF4324002F0CBF800214BF20120E3
:1053C00002F0C6F800214BF2022002F0C1F82421BD
:1053D0004FF4384002F0BCF824214BF6010002F0F3
:1053E000B7F824214BF6020002F0B2F801214FF485
:1053F0003F4002F0ADF80F214FF4334002F0A8F81F
:105400000F214BF2013002F0A3F80F214BF20230D2
:1054100002F09EF834214FF4394002F099F834211B
:105420004BF6011002F094F834214BF6021002F012
:105430008FF808214FF4354002F08AF808214BF22A
:10544000015002F085F808214BF2025002F080F87A
:1054500003214FF4424002F07BF824214FF43A40FC
:1054600002F076F824214BF6012002F071F8242195
:105470004BF6022002F06CF800214FF43C4002F0A1
:1054800067F878214BF6014002F062F800214BF6F4
:10549000024002F05DF800214FF43D4002F058F860
:1054A00078214BF6015002F053F800214BF60250E0
:1054B00002F04EF800214FF43E4002F049F864211A
:1054C0004BF6016002F044F800214FF4514002F025
:1054D0003FF833214DF2011002F03AF800214DF26D
:1054E000021002F035F834214DF2031002F030F8CA
:1054F00000214DF2041002F02BF83A214DF2051074
:1055000002F026F800214DF2061002F021F84A219F
:105510004DF2071002F01CF800214DF2081002F0C5
:1055200017F85C214DF2091002F012F800214DF23B
:105530000A1002F00DF881214DF20B1002F008F86C
:1055400000214DF20C1002F003F8A6214DF20D10CF
:1055500001F0FEFF00214DF20E1001F0F9FFE521F0
:105560004DF20F1001F0F4FF01214DF2101001F087
:10557000EFFF13214DF2111001F0EAFF01214DF26E
:10558000121001F0E5FF54214DF2131001F0E0FF7D
:1055900001214DF2141001F0DBFF82214DF21510B4
:1055A00001F0D6FF01214DF2161001F0D1FFCA2102
:1055B0004DF2171001F0CCFF02214DF2181001F04E
:1055C000C7FF00214DF2191001F0C2FF02214DF278
:1055D0001A1001F0BDFF01214DF21B1001F0B8FFC0
:1055E00002214DF21C1001F0B3FF34214DF21D10C9
:1055F00001F0AEFF02214DF21E1001F0A9FF67215C
:105600004DF21F1001F0A4FF02214DF2201001F015
:105610009FFF84214DF2211001F09AFF02214DF2EB
:10562000221001F095FFA4214DF2231001F090FF0C
:1056300002214DF2241001F08BFFB7214DF225100D
:1056400001F086FF02214DF2261001F081FFCF21EB
:105650004DF2271001F07CFF02214DF2281001F0DD
:1056600077FFDE214DF2291001F072FF02214DF289
:105670002A1001F06DFFF2214DF22B1001F068FFAE
:1056800002214DF22C1001F063FFFE214DF22D108E
:1056900001F05EFF03214DF22E1001F059FF1021A1
:1056A0004DF22F1001F054FF03214DF2301001F0A4
:1056B0004FFF33214DF2311001F04AFF03214DF22B
:1056C000321001F045FF6D214DF2331001F040FF23
:1056D00000214FF4524001F03BFF33214DF20120F5
:1056E00001F036FF00214DF2022001F031FF34219C
:1056F0004DF2032001F02CFF00214DF2042001F0B7
:1057000027FF3A214DF2052001F022FF00214DF242
:10571000062001F01DFF4A214DF2072001F018FF7D
:1057200000214DF2082001F013FF5C214DF2092009
:1057300001F00EFF00214DF20A2001F009FF812146
:105740004DF20B2001F004FF00214DF20C2001F07E
:10575000FFFEA6214DF20D2001F0FAFE00214DF2D0
:105760000E2001F0F5FEE5214DF20F2001F0F0FED4
:1057700001214DF2102001F0EBFE13214DF211201A
:1057800001F0E6FE01214DF2122001F0E1FE54216C
:105790004DF2132001F0DCFE01214DF2142001F046
:1057A000D7FE82214DF2152001F0D2FE01214DF2EB
:1057B000162001F0CDFECA214DF2172001F0C8FEDF
:1057C00002214DF2182001F0C3FE00214DF21920F4
:1057D00001F0BEFE02214DF21A2001F0B9FE0121B6
:1057E0004DF21B2001F0B4FE02214DF21C2001F00D
:1057F000AFFE34214DF21D2001F0AAFE02214DF230
:105800001E2001F0A5FE67214DF21F2001F0A0FE31
:1058100002214DF2202001F09BFE84214DF2212037
:1058200001F096FE02214DF2222001F091FEA4210A
:105830004DF2232001F08CFE02214DF2242001F0D4
:1058400087FEB7214DF2252001F082FE02214DF2A4
:10585000262001F07DFECF214DF2272001F078FEB9
:1058600002214DF2282001F073FEDE214DF22920A5
:1058700001F06EFE02214DF22A2001F069FEF221B4
:105880004DF22B2001F064FE02214DF22C2001F09C
:105890005FFEFE214DF22D2001F05AFE03214DF254
:1058A0002E2001F055FE10214DF22F2001F050FE68
:1058B00003214DF2302001F04BFE33214DF2312017
:1058C00001F046FE03214DF2322001F041FE6D2130
:1058D0004DF2332001F03CFE00214FF4534001F023
:1058E00037FE33214DF2013001F032FE00214DF23E
:1058F000023001F02DFE34214DF2033001F028FE7C
:1059000000214DF2043001F023FE3A214DF2053022
:1059100001F01EFE00214DF2063001F019FE4A2171
:105920004DF2073001F014FE00214DF2083001F075
:105930000FFE5C214DF2093001F00AFE00214DF20C
:105940000A3001F005FE81214DF20B3001F000FE1E
:1059500000214DF20C3001F0FBFDA6214DF20D307F
:1059600001F0F6FD00214DF20E3001F0F1FDE521D0
:105970004DF20F3001F0ECFD01214DF2103001F03D
:10598000E7FD13214DF2113001F0E2FD01214DF24E
:10599000123001F0DDFD54214DF2133001F0D8FD3D
:1059A00001214DF2143001F0D3FD82214DF215306A
:1059B00001F0CEFD01214DF2163001F0C9FDCA21E2
:1059C0004DF2173001F0C4FD02214DF2183001F004
:1059D000BFFD00214DF2193001F0BAFD02214DF258
:1059E0001A3001F0B5FD01214DF21B3001F0B0FD80
:1059F00002214DF21C3001F0ABFD34214DF21D307F
:105A000001F0A6FD02214DF21E3001F0A1FD67213B
:105A10004DF21F3001F09CFD02214DF2203001F0CB
:105A200097FD84214DF2213001F092FD02214DF2CB
:105A3000223001F08DFDA4214DF2233001F088FDCC
:105A400002214DF2243001F083FDB7214DF22530C3
:105A500001F07EFD02214DF2263001F079FDCF21CB
:105A60004DF2273001F074FD02214DF2283001F093
:105A70006FFDDE214DF2293001F06AFD02214DF269
:105A80002A3001F065FDF2214DF22B3001F060FD6E
:105A900002214DF22C3001F05BFDFE214DF22D3044
:105AA00001F056FD03214DF22E3001F051FD102181
:105AB0004DF22F3001F04CFD03214DF2303001F05A
:105AC00047FD33214DF2313001F042FD03214DF20B
:105AD000323001F03DFD6D214DF2333001F038FDE3
