:020000040800F2
:1000000020440020F9010008673F00085F3F000816
:10001000633F000821200008C544000800000000DC
:10002000000000000000000000000000913F0008F8
:100030007D200008000000000F02000811020008E7
:10004000130200081302000813020008130200083C
:10005000130200081302000813020008130200082C
:1000600013020008130200081302000825200008EC
:10007000130200081302000813020008130200080C
:1000800013020008130200081302000813020008FC
:1000900013020008130200081302000813020008EC
:1000A00013020008130200081302000813020008DC
:1000B00013020008953F000813020008130200080D
:1000C00013020008130200081302000813020008BC
:1000D000130200089D43000813020008C1430008F2
:1000E000130200081302000813020008130200089C
:1000F000130200081302000813020008130200088C
:10010000130200081302000813020008130200087B
:10011000130200081302000813020008130200086B
:10012000130200081302000813020008130200085B
:1001300000F002F800F050F80AA090E8000C8244A9
:100140008344AAF10107DA4501D100F045F8AFF286
:10015000090EBAE80F0013F0010F18BFFB1A43F0A5
:10016000010318475494010074940100103A24BF0D
:1001700078C878C1FAD8520724BF30C830C144BF0C
:1001800004680C607047000000230024002500264E
:10019000103A28BF78C1FBD8520728BF30C148BFEA
:1001A0000B60704766290BF0C085642900F0EE846F
:1001B000782900F05285732901F07381002070477F
:1001C0001FB501F085F90400002000210AF004FCAD
:1001D000E0601FBD10B510BD01F082FA1146FFF7B7
:1001E000EFFF09F073FB01F0A0FA03B4FFF7F2FF91
:1001F00003BC04F0A0F90000094880470948004703
:10020000FEE7FEE7FEE7FEE7FEE7FEE7FEE7FEE7C6
:10021000FEE7FEE704480549054A064B7047000023
:10022000933F000831010008203E002020440020B8
:100230002040002020400020002A08BF70472DE900
:10024000F04715460E4604464FF0000854F8047B6C
:1002500054F8040B01460BF063FB8146394608460F
:100260000BF05EFB49460BF0A3F93746361D10F143
:10027000FF4F28BFC7F8008002D209F017FD386091
:100280006D1EE3D1BDE8F0872DE9FF4F9BB004461A
:100290001C9D1695012D9CBF1FB0BDE8F08F1295D7
:1002A0000020AD080E900F90681E13900E9B1D9AB3
:1002B0000E980E9952F8332009921D9A400002EBD5
:1002C000C3020144526807921D9A52F830200C92E2
:1002D0001D9A02EBC00040680D9052F831000B905F
:1002E00002EBC10040680A901E990F9E58180E90AC
:1002F000771907EB050954F836A054F839B009EB23
:100300000508594650460BF053F90190594650469E
:100310000BF096FC049004EBC9001990D0F804B0DF
:1003200004EBC6001490D0F804A0594650460BF0D8
:100330003FF90090594650460BF082FC039054F868
:10034000381054F837000BF033F982460146019813
:100350000BF02EF944F83600514601980BF070FC72
:1003600004EBC80B019004EBC70ADBF80410DAF8C1
:1003700004000BF01DF90146069000980BF018F9E7
:10038000014614984160069900980BF059FC0090C2
:10039000DBF80410DAF804000BF052FC089054F873
:1003A000381054F837000BF04BFC06900D9900986C
:1003B0000BF0B6FA15900C9901980BF0B1FA15995B
:1003C0000BF0F6F844F837000D9901980BF0A8FAF5
:1003D00007460C9900980BF0A3FA39460BF030FC55
:1003E000CAF80400089904980BF0E2F80746089947
:1003F00004980BF025FC0490069903980BF020FC60
:100400000090069903980BF0D3F803900799009891
:100410000BF086FA8246384609990BF081FA51466C
:100420000BF0C6F844F83900384607990BF078FA13
:100430000746099900980BF073FA39460BF000FC57
:100440000146199841600A9903980BF069FA07462A
:100450000B9904980BF064FA39460BF0A9F844F8AC
:1004600038000A9904980BF05BFA07460B99039839
:100470000BF056FA39460BF0E3FBCBF80400129868
:1004800006441C988642FFF433AF0F981399401C22
:100490000F9088427FF60AAF1E984FF6FF7101EA6F
:1004A00080001E9016988008169001283FF6F7AE3F
:1004B0001FB0BDE8F08F2DE9FF4F9BB004461C9D97
:1004C0001795042D40F20A8100200E95AD08129078
:1004D0000F90681E1490129B1D9A1298129952F850
:1004E00033200B921D9A400002EBC3020144526874
:1004F00006921D9A0F9E52F8302007921D9A02EB29
:10050000C0004068109052F831000C9002EBC1001E
:1005100040680D901E9818441290771907EB050853
:1005200054F836A054F838B008EB0509594650463F
:100530000BF03EF80190594650460BF081FB0590B8
:1005400004EBC8001990D0F804B004EBC600159075
:10055000D0F804A0594650460BF02AF800905946AE
:1005600050460BF06DFB049054F8391054F83700E6
:100570000BF01EF88246014601980BF019F844F87A
:100580003600514601980BF05BFB04EBC90B019060
:1005900004EBC70ADBF80410DAF804000BF008F8E3
:1005A0000146089000980BF003F801461598416049
:1005B000089900980BF044FB0090DBF80410DAF87F
:1005C00004000BF03DFB099054F8391054F8370043
:1005D0000BF036FB0890109900980BF0A1F91690DB
:1005E000079901980BF09CF916990BF029FB44F838
:1005F0003700109901980BF093F907460799009876
:100600000BF08EF939460AF0D3FFCAF804000999B5
:1006100005980BF015FB0746099905980AF0C8FFE5
:100620000590089904980AF0C3FF0090089904986F
:100630000BF006FB0490069900980BF071F98246C6
:1006400038460B990BF06CF951460BF0F9FA44F867
:100650003800384606990BF063F907460B99009865
:100660000BF05EF939460AF0A3FF01461998416084
:100670000D9904980BF054F907460C9905980BF066
:100680004FF939460BF0DCFA44F839000D9905981A
:100690000BF046F907460C9904980BF041F93946DE
:1006A0000AF086FFCBF804000E9806441C98864298
:1006B000FFF433AF0F98401C0F90149988427FF6D7
:1006C0000AAF1E984FF6FF7101EA80001E9017983E
:1006D0008008179004283FF6F7AE00BF1C9800264C
:1006E000401B4FEA95090E95CDF81C0006EB090555
:1006F00005EB090754F836A054F837B007EB0908A2
:10070000594650460AF054FF0190594650460BF0A6
:1007100097FA059004EBC7000B90D0F804B004EBF7
:10072000C6000C90D0F804A0594650460AF040FF8D
:100730000090594650460BF083FA049054F8381054
:1007400054F835000AF034FF8246014601980AF059
:100750002FFF28990BF0E4F844F836005146019831
:100760000BF06EFA04EBC80B019004EBC50ADBF842
:100770000410DAF804000AF01BFF01460890009804
:100780000AF016FF28990BF0CBF801460C9841604F
:10079000089900980BF054FA0090DBF80410DAF88E
:1007A00004000BF04DFA099054F8381054F8350055
:1007B0000BF046FA0890289901980BF0B1F844F82C
:1007C0003500289900980BF0ABF8CAF80400099995
:1007D00005980BF035FA8246099905980AF0E8FE6B
:1007E0000590089904980AF0E3FE0090089904988F
:1007F0000BF026FA0546504628990BF091F844F87C
:100800003700289900980BF08BF801460B9841604F
:10081000289905980BF084F844F838002846289960
:100820000BF07EF8CBF804000E9806440798B0420F
:10083000BFF45CAF1FB0BDE8F08F38B504460D467D
:1008400080782188A389626801280FD02846FFF7A5
:100850001BFDE078012818BF38BDE2892188A36814
:1008600001B02846BDE8304000F05AB82069009039
:100870002846FFF720FEECE710B40180224C4460CC
:1008800082704FF0000CC370B1F5807F20D004DC83
:1008900010292ED0402923D005E0B1F5806F0FD06C
:1008A000B1F5805F04D04FF0FF3C10BC604670474C
:1008B00001218181C181154981604FF0665116E0A7
:1008C00004218181C181124981604FF06A510EE09B
:1008D00010218181C1810F4981604FF06E5106E086
:1008E00040218181C1810C4981604FF072510161C9
:1008F000DBE74FF480718181C181084981604FF04D
:1009000076510161D1E700007CF800087CF0000816
:1009100082F000089AF00008FAF000087AF2000865
:100920002DE9F0074D0801244FF0000C04EB5106AF
:100930006146A5F102082CE061452AD250F8314009
:1009400050F83C7040F8317040F83C4000EBC10476
:1009500000EBCC07D4F80490D7F804A0C4F804A0A6
:10096000C7F804908F190CEB060450F8379050F834
:1009700034A040F837A040F8349000EBC70700EBF4
:10098000C404D7F80490D4F804A0C7F804A0C4F8AD
:10099000049000EBC104AC44A76850F83C90C4F844
:1009A000089040F83C7000EBCC0CE768DCF8049051
:1009B000C4F80C90CCF80470891CB3F800C089B25C
:1009C00003EB42034145B7D9BDE8F00770472DE975
:1009D000F0074D0801244FF0000C04EB510661466E
:1009E000A5F102082BE0614529D250F8314050F8BA
:1009F0003C7040F8317040F83C4000EBC10900EB1E
:100A0000CC04D9F80470D4F804A0C9F804A0676035
:100A10008C190CEB060750F8349050F837A040F8CA
:100A200034A040F8379000EBC40400EBC707D4F8BB
:100A30000490D7F804A0C4F804A0C7F8049000EB11
:100A4000C104AC44A76850F83C90C4F8089040F842
:100A50003C7000EBCC0CE768DCF80490C4F80C9018
:100A6000CCF80470B3F800C0891C03EB4203414585
:100A7000B9D9BDE8F00770472DE9F00F01244F0800
:100A800004EB51084FF0000C7C0804BFBDE8F00FE8
:100A90007047014600EB8805002614E0BCEB460FCA
:100AA00011D950F82CA0D1F80090C1F800A040F85E
:100AB0002C900CEB0809D5F800A050F829B0C5F827
:100AC00000B040F829A0BC4451F8049F50F82CA075
:100AD00041F804AB40F82C90B3F800C003EB42039C
:100AE000641E05F1080506F10106D7D1BDE8F00F37
:100AF000704770470FB4044910B503AA029800F07C
:100B0000D5FC10BC5DF814FB980000200FB41CB598
:100B1000084B06AA7B4469460090059800F097FCB4
:100B200004460020694600F0A5FC20461CBC5DF888
:100B300014FB00005D09000070B50C460546012A53
:100B400005D02878800600D5EA69002302E0012359
:100B500005E05B1C934202D2E05C0028F9D1A86951
:100B6000E618C01AA861286A184428622846AFF31C
:100B7000008004E0D5E9012114F8010B9047B4424C
:100B8000F8D32846AFF3008070BD00002DE9F04196
:100B90000646002410687529314616A510D0AFF31B
:100BA0000080002802DA404213A507E031688A0776
:100BB00001D512A502E0490704D511A5012401E0E1
:100BC000AFF3008000210A2206F1240709E0B0FB00
:100BD000F2FCB0FBF2F302FB1C00303078541846F4
:100BE000491C0028F3D123462A463046BDE8F0418F
:100BF00000F0BFB9000000002D0000002B00000035
:100C000020000000F0B40D460188090502D5214CF2
:100C10007C4402E01F4C7C440E34002100F1240689
:100C200008E002F00F071209E75D42EA03721B09B0
:100C30007754491C52EA0307F3D1027800231207C4
:100C400004D5702D06D009B1022311342246F0BC20
:100C500000F08FB901231034F8E770B504460D4653
:100C600021461068AFF30080024629462046BDE8C1
:100C700070400023C6E7D21D22F00703D3E900230A
:100C8000C0E70368126843F0200303600823C361D0
:100C90000023B7E7686C01002DE9F05F8946044640
:100CA0004FF0000ADFF874B1FB44C0F820A02046E2
:100CB000E1688847002874D0252806D0D4E90121AE
:100CC0009047206A401C2062F1E700265F462046DC
:100CD000E16888472028054607DB312D05D27819C1
:100CE00010F8200C08B10643F1E7B00701D526F053
:100CF0000406C4F81CA00027C4F818A02A2D09D0A7
:100D0000284603F011FC38B304EB8708303DC8F8DF
:100D1000185019E059F8041B204604EB8702916132
:100D2000E1688847012F054618D1E069002820DADC
:100D300026F020061DE0D8F8180000EB800005EB37
:100D400040003038C8F818002046E168884705465A
:100D500003F0EAFB0028EED1012F0AD02E2D08D196
:100D60002046E16888477F1C0546022F46F0200692
:100D7000C4DBA069002803DA404246F00106A06106
:100D8000F00701D026F010066C2D0BD0682D09D08D
:100D90004C2D39D06A2D35D0742D35D07A2D33D0E5
:100DA00016E038E0E1682F4620468847B8420546FD
:100DB00009D16C2F26D04FF48060E16806432046AD
:100DC0008847054604E06C2F1AD04FF48070064324
:100DD0000DB3A5F14100192802D8203546F400666C
:100DE0004A462946204626604E46FFF7DBF980B189
:100DF00001280BD0F61D26F0070000F1080956E780
:100E00004020E4E78020D8E70020D6E706F1040977
:100E10004DE7284652E7206ABDE8F09FF86B0100D5
:100E200010B5203AC0F00B80B1E81850203AA0E885
:100E30001850B1E81850A0E81850BFF4F5AF5FEAB9
:100E4000027C24BFB1E81850A0E8185044BF18C96C
:100E500018C0BDE810405FEA827C24BF51F8043B13
:100E600040F8043B08BF7047D20728BF31F8023B67
:100E700048BF11F8012B28BF20F8023B48BF00F8FB
:100E8000012B70474FF0000200B51346944696467A
:100E9000203922BFA0E80C50A0E80C50B1F120018D
:100EA000BFF4F7AF090728BFA0E80C5048BF0CC03B
:100EB0005DF804EB890028BF40F8042B08BF704799
:100EC00048BF20F8022B11F0804F18BF00F8012B0B
:100ED000704700004FF0013C50F8042B51F8043BE0
:100EE0009A4221D1A2EB0C03934313EACC1317D1FE
:100EF00050F8042B51F8043B9A4215D1A2EB0C0395
:100F0000934313EACC130BD150F8042B51F8043B54
:100F10009A4209D1A2EB0C03934313EACC13DBD022
:100F20004FF00000704700BFD01A01BAB1FA81F14A
:100F300001F0180122FA01F0CB40C1F12001DBB22F
:100F4000C0B2C01A2CFA01F3D11A914311EAC311AD
:100F5000E6D17047704770477047704710B500F092
:100F6000BBFA006810BD10B5044600F0B5FA046085
:100F700010BD2DE9F0470D4699469246044600F112
:100F800024080168880604D5E06921F01001216079
:100F900000E00120A84201DD471B00E00027A16915
:100FA0007A1902EB0900081AA0612078C00602D461
:100FB0002046AFF30080002608E0D4E901211AF8AA
:100FC00006009047206A401C761C20624E45F4DBE8
:100FD0002078C0060AD52046AFF3008006E0D4E9A9
:100FE000012130209047206A401C2062381EA7F162
:100FF0000107F4DC07E0D4E9012118F80500904767
:10100000206A401C2062281EA5F10105F3DC204661
:10101000AFF300802078000602D50220BDE8F087FB
:101020000120FBE770472DE9FF4F0C461E464FF0AD
:10103000FF378BB0D2E90001DDF860800A908A4664
:10104000C1F30A5505B93D46002108464FF000009E
:10105000BAF1000F00F4400005DA00EB80004FF415
:10106000400101EA50004FEA9059B9F1010F00DD4B
:10107000B9460A9850EA4A000ED044F61050A5F23C
:10108000FF3545432F14B8F1000F1ED07542291EBD
:101090001EDDC9F100021CE0B8F1010F4FF00000A5
:1010A00001D0302103E0F24305E02154401CB0425E
:1010B000FBDB30460022002121540B99C1F8088047
:1010C000C1E900200FB0BDE8F08FBD1B6D1CDEE74D
:1010D0004A4600DA694206A800F088FA06AB93E8AF
:1010E000070003AB83E8070050460A9900F026FB8F
:1010F0008DE80700A0F500501F3800900398002DE0
:101100000ADD42F21F014A460844002303A9039066
:10111000684600F08FFD09E0A0F500504A461F38F0
:10112000002303A90390684600F099FD8DE80700AD
:101130000004000C03D04FF0FF30410800E01046DF
:10114000B8F1000F03D00022009215461EE0751E74
:1011500005D400F0C5F9303262556D1EF9D5B3469D
:101160000122084302D000227F1C04E020783028AE
:1011700001D100227F1E002A099784D01DE0112D85
:1011800007DA00F0ADF9303262556D1C50EA010209
:10119000F5D1084302D00098C8B10EE00021681EC6
:1011A00005E0235C625C63542254401E491C81426A
:1011B000F7DBAB46A81B401E0990002004F80B008B
:1011C0000B98099AC0F80880C0E9002B7AE711262D
:1011D0004FF0000857E72DE9F04F88460446D21D2E
:1011E00022F0070191B0D1E90001CDE90A0103F035
:1011F0006BF902460B98C00F01D02D2007E0206844
:10120000810701D52B2002E0202101EAC000032A3A
:10121000099001D0072A05DB03464146204600F02D
:10122000A5F90BE12078800601D5E06900E00620F1
:10123000B8F1650F814606D0B8F1660F18D0B8F145
:10124000670F70D131E00020B9F1110F009001DB80
:10125000112301E009F101030AAA01A90CA8FFF773
:10126000E2FEDDE90C70002609F10105834647E046
:1012700001204B4600904FF000470AAA01A90CA894
:10128000FFF7D1FEDDE90DB00C995D46002610B9DF
:1012900009F101000D18B9EB050003D4C0F1FF36C8
:1012A00009F10105A5EB09002BE0B9F1010F01DA05
:1012B0004FF001090020B9F1110F0090484601DDFF
:1012C000112300E003460AAA01A90CA8FFF7ABFE10
:1012D000DDE90C704D4600268346207800070AD4CD
:1012E000AB4500DA5D4601A8012D04DD411911F876
:1012F000011C302907D04F4502DA17F1040F04DA38
:10130000012082460FE06D1EEEE7002F02DCED1B90
:101310003E4403E0781CA84200DD7D1CB81B00F1B0
:10132000010A4FF000472078000703D4AA4501DBEB
:101330004FF0FF3A0021B7F1004F0DF143088DF84F
:10134000431024D002202B23002F01DA7F422D23CB
:101350000A21021EA0F1010000DC5FB197FBF1FC45
:1013600097FBF1F201FB1C7C17460CF1300C08F8DE
:1013700001CDEEE7A8F1010003702188090501D530
:10138000452100E06521A0F1010800F8011C099841
:101390000FA9A1EB0807FF1D00B10120411901EBC6
:1013A000EA70A1693844081A401EA0612078C0067E
:1013B00002D42046AFF30080099828B1D4E9012176
:1013C0009047206A401C20622078C00622D5204623
:1013D000AFF300801EE0002E04DBB34502DD01A860
:1013E000805D00E03020D4E901219047206A401C54
:1013F0002062761CAAF101005FEA000A0AD100F01F
:1014000067F8C0680168405CD4E901219047206A10
:10141000401C2062281EA5F10105DCDC07E0D4E9B0
:10142000012118F8010B9047206A401C2062381EE9
:10143000A7F10107F3DC2046AFF30080032011B0D1
:1014400041E6000001694A1C02610878704700B556
:101450008FB0CDE901310021059105497944CDE9ED
:10146000031011466846FFF717FC0FB000BD0000DF
:10147000E5FFFFFF0A6802F8010B0A60704710B52C
:10148000436913B1AFF3008001E0FFF755FB012082
:1014900010BD127800F124010A7000224A70012266
:1014A000EDE711684FF0FF32E9E70000074B70B538
:1014B0000D467B44FFF7CBFF0446284600F008F9B1
:1014C00010B14FF0FF3070BD204670BD0F380000E6
:1014D00000487047DC3D002000487047BC3D0020BC
:1014E00030B5B0F10A024FEA900E71F100034EEAF6
:1014F000817EB0EB0E0061EB91014FEA101E4EEAC7
:10150000017E10EB0E0041EB11114FEA102E4EEA56
:10151000016E10EB0E0041EB11214FEA104E4EEA26
:10152000014E10EB0E0041EB1141401841F100015A
:101530004FEAD00040EA41704FEAD10110EB80053C
:101540004FEA810444EA907444EB01046D1944EBC2
:101550000404521BA3414FF0000348BF0A3200D5D8
:1015600030BD401C41F1000130BD00002DE9F041CB
:101570001F46044603260168072A01F4006004DBC5
:1015800008B116A505E016A503E008B115A500E011
:1015900015A521F010002060A069C01EA0610FB148
:1015A000401EA0612046AFF300804FB1D4E9012175
:1015B00038469047206A401C2062C01C206206E02A
:1015C000206AFAE7D4E9012115F8010B9047761E4D
:1015D000F8D22046AFF30080BDE8F0814E414E00C6
:1015E0006E616E00494E4600696E66002DE9F04757
:1015F000814616468AB0354878440DC88DE80D00FE
:1016000032487844801C03AC0DC884E80D0041F6D4
:101610009B300844372190FBF1F290FBF1F5A5F1E6
:10162000800501FB12041B3C02D56442012000E04E
:101630000020DFF898A080460027FA44AAF1BE0AED
:101640000EE0E0070AD03246684607EB4701012367
:101650000AEB810100F003FB8DE8070064107F1C9A
:10166000002CEED1194F7F44AE3F19E0E80715D0AA
:1016700007EB04100DF1180A90E80E008AE80E003E
:10168000C068F04201D1981908903246012306A99A
:1016900003A800F0E4FA03AB83E807006D10641CB4
:1016A000002DE3D14FF0010332466946B8F1000F37
:1016B00003A802D000F0BEFA01E000F0D0FAC9E9B8
:1016C0000001C9F808200AB0BDE8F08738630100BE
:1016D000007B00F08000704700487047BC3D002050
:1016E0007546FFF7F9FFAE4605006946534620F000
:1016F0000700854618B020B5FEF78CFDBDE82040F8
:101700004FF000064FF000074FF000084FF0000BBD
:1017100021F00701AC46ACE8C009ACE8C009ACE870
:10172000C009ACE8C0098D46704710B50446AFF358
:1017300000802046BDE81040FEF757BD5FEA400C30
:1017400008BF91F0000F4FEA8C234FEAC12243EA11
:1017500051514FEA1C5018BF00F5F0404FEA3000DD
:1017600018BF41F000415FEA6C5C00F02980BCF1D9
:10177000FF3F08BF40F080407047130C06BF1204C3
:101780004FF0100C4FF0000C130E04BF12020CF1BE
:10179000080C130F04BF12010CF1040C930F04BFCB
:1017A00092000CF1020CD30F04BF52000CF1010C9B
:1017B00011464FF00002A0F11F00A0EB0C00704793
:1017C00011F0004F08BF704731F000413FF4D5AF32
:1017D0000B0C06BF09044FF0100C4FF0000C0B0E61
:1017E00004BF09020CF1080C0B0F04BF09010CF136
:1017F000040C8B0F04BF89000CF1020CCB0F04BF4B
:1018000049000CF1010CCCF12003A0EB0C0022FAF2
:1018100003F302FA0CF241EA030100F10100704700
:1018200020F07F4C80EA030023F07F47ACEB0703F6
:1018300003F57C5300F0004003F1FF032DE98049DC
:101840004FEA154B09B44FEA144325EA0B4E24EA3C
:1018500003480FF2042606EB132749083E785FEA97
:10186000320203FB0667C7F5000707FB06F64FEADF
:1018700054374FEAD64606F1020607FB066CCCF158
:10188000005C4FEA1C472CEA074C07FB06F40CFBF4
:1018900006F504EB15464FEA961634BF00204FF0CC
:1018A00000404FEAD13706FB07FC4FEA1C4C0CFB0B
:1018B0000BF7D21B03FB0CF761EB07010CFB0EF7D8
:1018C000B0EB074072EB17420CFB08F734BFA2EBFA
:1018D0000742B2EB074261EB17414FEA0C444FEA73
:1018E000910706FB07FC4FEA1C4C0CFB0BF7B0EB17
:1018F000C74072EB573203FB0CF734BFA2EBC74271
:10190000B2EBC74261EB57310CFB0EF7B0EBC700EF
:1019100072EB57720CFB08F734BFA2EBC702B2EBB5
:10192000C70261EB5771039F4FEA816141EA92114F
:1019300004EBCC044FEAD1374FEA826206FB07FC86
:1019400042EA90124FEA80604FEA1C4C0CFB0BF706
:10195000D21B03FB0CF761EB07010CFB0EF7B0EB9E
:10196000074072EB17420CFB08F734BFA2EB0742AB
:10197000B2EB074261EB17414FEA8C554FEA9107F2
:1019800004EB9C2406FB07FC4FEA1C4C0CFB0BF7FA
:10199000B0EBC74072EB573203FB0CF734BFA2EB3E
:1019A000C742B2EBC74261EB57310CFB0EF7B0EB0D
:1019B000C70072EB57720CFB08F734BFA2EBC702EB
:1019C000B2EBC70261EB577115EB4C254FEA816111
:1019D00041EA92114FEA82624FEAD13742EA90120D
:1019E00006FB07FC44F100044FEA80604FEA1C4C00
:1019F0000CFB0BF7D21B03FB0CF761EB07010CFB95
:101A00000EF7B0EB074072EB17420CFB08F734BF40
:101A1000A2EB0742B2EB074261EB174115EB1C1535
:101A20004FEA813141EA92414FEA823242EA9042E2
:101A30004FEA80304FEA0C7644F1000448EA034351
:101A40004EEA0B484FF0000EB2EB080C71EB0307A7
:101A500024BF624639464EEB0E0E4FF0000B0018C5
:101A6000524149414BEB0B0BB2EB080C71EB0307F6
:101A70007BF1000B24BF624639464EEB0E0E4FF051
:101A8000000B0018524149414BEB0B0BB2EB080C19
:101A900071EB03077BF1000B24BF624639464EEB26
:101AA0000E0E51EA020718BF46F0010616EB0E763D
:101AB00055F1000254F1000103D5BDE88901BDE8EC
:101AC0000088BDE88901BDE80048B619524141EBE4
:101AD0000101A3F10103704780807F7E7D7C7B7ACA
:101AE0007978777676757473727171706F6E6E6DCA
:101AF0006C6C6B6A6A696868676666656464636370
:101B000062616160605F5F5E5E5D5D5C5C5B5B5AF5
:101B10005A59595858575756565555555454535362
:101B200052525251515050504F4F4F4E4E4D4D4DBD
:101B30004C4C4C4B4B4B4A4A4A4949494848484708
:101B40004747474646464545454444444443434346
:101B50004342424242414141002B9C4630D47700EF
:101B60002BD01CB54FEA370703B44FF010004FF0ED
:101B70001001BAF1000F06D0BCF1000FDCBF40F03D
:101B8000080040F008014FF000000FBCBDE8104015
:101B90000BF1010BBBF1010F08BF5FEA170722BF72
:101BA00012F1010211F101014FF0004143F1000374
:101BB00000F0004043EA00007047F9D35708D0E72F
:101BC00046EA064613F1400F4FEA16461FDD13F1B1
:101BD000200FDFBF16430A46002120335B42BED0F0
:101BE000C3F1200746EA064602FA07F74FEA16460F
:101BF00046EA0706C3F1200722FA03F201FA07F7C3
:101C000021FA03F14FF0000342EA0702A7E746EA90
:101C1000020646EA06464FEA164646EA0106BCBFF9
:101C200046EA0646360C4FF000034FF000024FF034
:101C3000000194E72DE9804C9A46934670B491E8F0
:101C4000380007C831EA400C48BF34EA430C03D5DA
:101C5000FFF7E6FDFFF780FFF0BCBDE8008C2DE943
:101C6000804C9A46934670B491E8380007C810F04B
:101C7000804F08BF13F0804F03D100F005F8FFF745
:101C80006BFFF0BCBDE8008C20F07F4780EA0300CA
:101C900023F07F4C07EB0C03A3F57C5300F00040CE
:101CA000A3F1FE0392F0000F00F0B38095F0000F57
:101CB00000F077802DE901494FEA11404FEA1446C0
:101CC00021EA004800FB06FC24EA064708FB06F66A
:101CD00007FB08F800FB07F718EB06484CEB164C1F
:101CE0004FEA124B18EB07484FEA15464CEB1740EA
:101CF00022EA0B4E0BFB06FC25EA06470EFB06F616
:101D000007FB0EFE0BFB07F71EEB064E4CEB164CCB
:101D10004FF000061EEB074E4CEB174B18EB0B0871
:101D200040F1000018EB0E0B58EB000840F10000EA
:101D30008F1A4FF000013CBFC943661B14BFB5EBBF
:101D4000040C00213CBFC943F61B4FEA17444EEA7E
:101D50008E0E27EA04454FEA1C4704FB07622CEA73
:101D6000074C05FB07F70CFB05F604FB0CFC16EB18
:101D7000074642EB174216EB0C4642EB1C421BEBAC
:101D8000060658EB0202414146EA9E0601D5BDE82F
:101D90000189B619524141EB0101A3F10103BDE8EC
:101DA00001894FEA14454FEA114724EA054621EA22
:101DB000074C05FB07F406FB07F70CFB06F105FBD8
:101DC0000CFC11EB074144EB17444FEA124711EBAF
:101DD0000C4144EB1C4422EA074C05FB07F206FBCE
:101DE00007F70CFB06F605FB0CFC16EB074642EB6F
:101DF000174216EB0C4642EB1C456A1854F10001E1
:101E000048BF7047B619524141EB0101A3F10103EC
:101E1000704795F0000F37D04FEA11424FEA144750
:101E200021EA024624EA074C02FB07F106FB07F70A
:101E30000CFB06F402FB0CFC14EB074441EB1741CE
:101E40004FEA154714EB0C4441EB1C4125EA074CC3
:101E500002FB07F506FB07F70CFB06F602FB0CFC82
:101E600016EB074645EB174516EB0C4645EB1C42B7
:101E7000121951F1000148BF7047B619524141EBA8
:101E80000101A3F1010370474FEA14454FEA1147DE
:101E900024EA054621EA074C05FB07F106FB07F794
:101EA0000CFB06F24FF0000605FB0CFC12EB0742A0
:101EB00041EB174112EB0C4251EB1C4148BF7047FC
:101EC000921841EB0101A3F10103704770B504467C
:101ED00000252068806800F00100F0B1206880686B
:101EE00020F001002168886000F048FF05460EE000
:101EF00000F044FF401B022809D9A06A40F01000FE
:101F0000A062E06A40F00100E062012070BD20683C
:101F1000806800F001000028EAD10020F6E770B5E3
:101F200005466C6AA06A00F05000E0B9A06A40F46F
:101F30000070A0622068806800F46020B0F5602F17
:101F40000DD1207B58B9A06A20F48070A062A06AED
:101F500000F4805018B9A06A40F00100A062204649
:101F600000F040FA03E0206A016B2846884770BD04
:101F700070B505466C6AA06A40F04000A062E06A55
:101F800040F00400E062204600F02EFA70BD70B50B
:101F90000446656A284600F026FA70BD38B5044646
:101FA0000025002000902068806800F0010080BBC0
:101FB0002068806840F00100216888601648006849
:101FC0001649B0FBF1F0009002E00098401E00902E
:101FD00000980028F9D100F0D1FE054613E000F08A
:101FE000CDFE401B02280ED9A06A40F01000A0626E
:101FF000E06A40F00100E06200BF002084F82400A5
:1020000000BF012038BD2068806800F00100002872
:10201000E5D00020F6E700000000002040420F005D
:1020200000BFFEE70848006800F0020050B1012040
:102030000649087000BF0448406840F002000249A9
:10204000486000BF7047000000000240A900002067
:1020500030B590F840500124AC40C56B6C6004680A
:1020600063604468102C04D10468A2600468E160D5
:1020700003E00468A1600468E26030BD70470000BE
:1020800070B50446B3F5804F13D1D1E9000540EA9D
:1020900005108D6840EA05208D6928438D8940EA46
:1020A000054054F82250064E3540284344F822009B
:1020B00003E06FF0704044F82200002070BD000083
:1020C0000000F0CF70B50246086852F8200020F0FA
:1020D00001000E6842F826008868082801D14023D4
:1020E00000E00023486818438E683043CE683043D0
:1020F0000E6930434E693043CE6930430E6A304337
:102100004E6A30438E6A3043CE6A30430E6B40EAEB
:10211000060488690443486B0443074D45F4806511
:1021200045F4E025086852F82000A84320430E68D3
:1021300042F82600002070BD7FFB080010B5034662
:10214000D1E9000440EA04108C6840EA04208C893C
:1021500040EA0444088A401E44EA0054087D801E78
:1021600044EA00608C692043541C53F8244004F076
:1021700040442043541C43F82400002010BD0000BC
:10218000F8B5044600260020009000BF94F8240013
:10219000012801D10220F8BD012084F8240000BFED
:1021A0002046FFF793FE0646002E62D1A06A20F477
:1021B000885040F00200A062022000F083FE304907
:1021C0000968B1FBF0F04000009002E00098401E6A
:1021D000009000980028F9D12046FFF7DFFE206824
:1021E000806840F008002168886000F0C7FD05465F
:1021F00011E000F0C3FD401B0A280CD9A06A20F0B2
:10220000020040F01000A06200BF002084F824000B
:1022100000BF0120BFE72068806800F008000028A8
:10222000E7D12068806840F004002168886000F0F1
:10223000A5FD054611E000F0A1FD401B0A280CD9C0
:10224000A06A20F0020040F01000A06200BF002051
:1022500084F8240000BF01209DE72068806800F01A
:1022600004000028E7D1A06A20F0020040F001003D
:10227000A06200BF002084F8240000BF30468AE737
:102280000000002038B5024600230020009000BF67
:1022900092F82400012801D1022038BD012082F8E3
:1022A000240000BF4868072812D21068406B0C79E0
:1022B000641E04EB84051F24AC40A0430D796D1E01
:1022C00005EB85050C68AC4020431468606327E08B
:1022D00048680D2812D21068006B0C79E41F04EBDB
:1022E00084051F24AC40A0430D79ED1F05EB850547
:1022F0000C68AC4020431468206311E01068C06A89
:102300000C790D3C04EB84051F24AC40A0430D79EF
:102310000D3D05EB85050C68AC4020431468E06278
:1023200008680A2812D31068C0680C780A3C04EBCD
:1023300044050724AC40A0430D780A3D05EB450554
:102340008C68AC4020431468E0600FE010680069BE
:102350000C7804EB44050724AC40A0430D7805EB52
:1023600045058C68AC40204314682061086810283B
:1023700002D00868112827D1174C1068A0421ED13E
:102380001068806800F40000F0B91068806840F4BC
:1023900000001468A0600868102815D10F48006874
:1023A0000F4CB0FBF4F000EB80004000009002E026
:1023B0000098401E009000980028F9D104E0906A2F
:1023C00040F020009062012300BF002082F824002A
:1023D00000BF184661E70000002401400000002013
:1023E00040420F0070477047704700002DE9F041F0
:1023F0000446002700250026A84614B90120BDE8A0
:10240000F081A06810B1207D00B100BFA06A30B992
:102410000020E06284F82400204600F097F820466F
:10242000FFF754FD0746A06A00F01000002873D1A2
:10243000002F7ED1A06A20F4885040F00200A062F4
:102440003F4AD4E90001904208D1E069B0F5402F3D
:1024500002D14FF4002002E0E06900E0E0690143AE
:10246000207B41EA40000643A068B0F5807F02D09F
:10247000A068012802D14FF4807000E000200543DD
:10248000207D012811D1207B38B9A069401E4FF46E
:10249000006141EA4030054307E0A06A40F02000B7
:1024A000A062E06A40F00100E0622068406820F429
:1024B00069402843216848602068806821490840B5
:1024C000304321688860A068B0F5807F02D0A068A2
:1024D000012802D14FF4807000E00020B0F5807F29
:1024E00003D1208A401E4FEA00582068C06A20F4B9
:1024F000700040EA08002168C862206880681249BC
:102500000840B04209D10020E062A06A20F0020039
:1025100040F00100A06211E00BE0A06A20F0020090
:1025200040F01000A062E06A40F00100E062012784
:1025300004E0A06A40F01000A062012738465EE780
:10254000003C0140FDF7E1FFFE0E1FFF10B58CB00F
:1025500004461C492068884232D1182102A8FEF79F
:1025600091FC00BF00BF1848806940F40070164914
:1025700088610846806900F40070019000BF00BFC8
:1025800000BF00BF00BF0846806940F004008861BA
:102590000846806900F00400019000BF00BF00BF42
:1025A000022002908003049002A800F025FD022082
:1025B00008900320099008A9044800F031FA00BFF0
:1025C0000CB010BD00240140001002400008014082
:1025D0002DE9F04104460D4616460027574920686C
:1025E000884203D056492068884205D15348001DCF
:1025F000006800F4702000E0002000287ED100BFB9
:1026000094F82400012802D10220BDE8F0810120C5
:1026100084F8240000BF2046FFF7C0FC0746002FC7
:102620006DD1A06A40F60161884340F48070A062D9
:1026300043492068884209D14048001D006800F4E1
:10264000702008B9012002E0002000E0012078B1EC
:10265000A06A20F48010A0622068406800F48060C6
:1026600000B3A06A20F4005040F48050A06219E04A
:10267000A06A40F48010A06230492068884203D0EC
:102680002F492068884205D12C48001D006800F4BD
:10269000806000E0002028B1A06A20F4005040F4DF
:1026A0008050A062A06A00F4805020B1E06A20F05F
:1026B0000600E06201E00020E06200BF002084F834
:1026C000240000BF1F48216A88621F48216AC8622F
:1026D0001E48216A08636FF00200216808602068C4
:1026E000806840F4807021688860226802F14C01A3
:1026F00033462A46206A00F045F901E01AE014E06A
:102700002068806800F46020B0F5602F06D1206852
:10271000806840F4A000216888600CE02068806830
:1027200040F480102168886005E000BF002084F834
:10273000240000E00127384667E70000002401403C
:10274000002801401F1F00088F1F0008711F00088C
:1027500070B50446002594F82100022803D0042017
:10276000A0630125C1E02068006820F00E00216808
:1027700008602068006820F00100216808605C495A
:102780002068884252D95A4978392068884201D154
:10279000012047E0564964392068884201D1102061
:1027A00040E0534950392068884201D1801539E012
:1027B0004F493C392068884201D1801432E04C49AD
:1027C00028392068884202D14FF480302AE04849F5
:1027D00014392068884202D14FF4801022E0444925
:1027E0002068884201D140041CE0424920688842A8
:1027F00001D1012016E03F4914312068884201D1FF
:1028000010200FE03B4928312068884201D1801513
:1028100008E038493C312068884201D1801401E049
:102820004FF480303349091F086051E0304978394E
:102830002068884201D1012047E02D496439206891
:10284000884201D1102040E029495039206888424F
:1028500001D1801539E026493C392068884201D1F0
:10286000801432E0224928392068884202D14FF48E
:1028700080302AE01E4914392068884202D14FF482
:10288000801022E01A492068884201D140041CE0EF
:1028900018492068884201D1012016E015491431F9
:1028A0002068884201D110200FE0124928312068A9
:1028B000884201D1801508E00E493C3120688842E9
:1028C00001D1801401E04FF480300949803948601B
:1028D000012084F8210000BF002084F8200000BF00
:1028E000606B10B12046616B8847284670BD0000C0
:1028F00080000240080402400146002209B901207C
:1029000070471E4B086898420BD21D4B0868C01ACE
:102910001423B0FBF3F08000086419480838C8633A
:102920000AE0164B0868C01A1423B0FBF3F08000CD
:10293000086412480838C863022081F8210008683A
:10294000026843F6F0708243D1E901031843CB6873
:1029500018430B6918434B6918438B691843CB69BB
:10296000184302430868026000208863012081F850
:102970002100002081F8200000BFC1E708040240C8
:10298000080002402DE9F04104460D4616461F4658
:102990004FF0000800BF94F82000012802D1022067
:1029A000BDE8F081012084F8200000BF94F82100E8
:1029B00001282CD1022084F821000020A063206887
:1029C000006820F00100216808603B463246294635
:1029D0002046FFF73DFBE06A30B12068006840F018
:1029E0000E00216808600BE02068006820F00400F9
:1029F000216808602068006840F00A0021680860CB
:102A00002068006840F001002168086006E000BF0F
:102A1000002084F8200000BF4FF002084046BFE7C6
:102A20002DE9F847024600239C467BE14FF0010860
:102A300008FA03F4D1F8008008EA0400A0427DD12E
:102A4000DFF8F4A2D1F80480A8EB0A09D0453AD007
:102A500014DCB8F1030F50D009DCB8F1000F31D00D
:102A6000B8F1010F1CD0B8F1020F49D120E0B8F144
:102A7000110F18D0B8F1120F42D11EE0B9F5881F1E
:102A800025D006DCB9F5803F20D0B9F5801F37D1BD
:102A90001AE0B9F5001F18D0B9F5041F30D117E0BE
:102AA000D1F80CC02DE0D1F80C8008F1040C28E01E
:102AB000D1F80C8008F1080C23E0D1F80C8008F163
:102AC0000C0C1EE000BF00BF00BF00BF00BF00BF76
:102AD000D1F80880B8F1000F02D14FF0040C0BE0E0
:102AE000D1F80880B8F1010F03D14FF0080C146140
:102AF00002E04FF0080C546103E04FF0000C00E0DE
:102B000000BF00BFFF2801D8904601E002F1040891
:102B10004646FF2802D84FEA830803E0A3F10808DD
:102B20004FEA88084746D6F800804FF00F0909FAA7
:102B300007F928EA09080CFA07F900E07AE048EA00
:102B40000908C6F80080D1F8048008F08058B8F170
:102B5000805F6FD100BFDFF8E481D8F8188048F0BB
:102B60000108DFF8D891C9F81880C846D8F818804D
:102B700008F00108CDF8008000BF00BF4FEAB93867
:102B80004FEA930958F829504FEA83784FEA1879A9
:102B90004FF00F0808FA09F825EA0805DFF8A081C8
:102BA000424502D14FF0000824E0DFF89881424509
:102BB00002D14FF001081DE0DFF88C81424502D1BF
:102BC0004FF0020816E0DFF88481424502D14FF051
:102BD00003080FE0DFF87881424502D14FF0040886
:102BE00008E0DFF87081424502D14FF0050801E0AE
:102BF0004FF006084FEA83794FEA197908FA09F885
:102C000048EA0505DFF850814FEA930948F8295052
:102C1000D1F8048008F48038B8F5803F0BD1DFF894
:102C20003C81D8F8008048EA0008DFF83091C9F804
:102C300000800AE075E0DFF82481D8F8008028EAF7
:102C40000008DFF81891C9F80080D1F8048008F472
:102C50000038B8F5003F0ED1DFF8008108F1040814
:102C6000D8F8008048EA0008DFF8F09009F104097C
:102C7000C9F800800DE0DFF8E48008F10408D8F816
:102C8000008028EA0008DFF8D49009F10409C9F8A7
:102C90000080D1F8048008F48018B8F5801F0ED1A8
:102CA000DFF8B88008F10808D8F8008048EA000882
:102CB000DFF8A89009F10809C9F800800DE0DFF8F5
:102CC0009C8008F10808D8F8008028EA0008DFF89E
:102CD0008C9009F10809C9F80080D1F8048008F443
:102CE0000018B8F5001F0ED1DFF8708008F10C084D
:102CF000D8F8008048EA0008DFF8609009F10C0974
:102D0000C9F800800DE0DFF8548008F10C08D8F80D
:102D1000008028EA0008DFF8449009F10C09C9F89E
:102D200000805B1CD1F8008028FA03F8B8F1000F8E
:102D30007FF47CAEBDE8F88700001110001002405F
:102D400000080140000C0140001001400014014047
:102D500000180140001C014008000140000401402F
:102D6000024693680B400BB1012000E00020704741
:102D70000AB1016101E00B0403617047014800687A
:102D800070470000A000002010B50848006840F01F
:102D9000100006490860052000F080F80F2000F0C0
:102DA00007F800F02BF8002010BD000000200240C2
:102DB00070B504460E4800784FF47A71B1FBF0F01C
:102DC0000C490968B1FBF0F5284600F0A5FD08B1F3
:102DD000012070BD102C07D200222146501E00F0A9
:102DE0001EF80548046001E00120F2E70020F0E74A
:102DF000A800002000000020A40000207047014629
:102E00000846002809DB00F01F0301229A4043090D
:102E10009B0003F1E023C3F8002100BF70472DE9B8
:102E2000F05F80460D461646002701F061FB07461D
:102E300039462A46334601F00700C0F1070ABAF1C5
:102E4000040F02D94FF0040A01E0C0F1070AD1468D
:102E500000F1040ABAF1070F02D24FF0000A01E0B4
:102E6000A0F1030AD4464FF0010A0AFA09FAAAF1BE
:102E7000010A0AEA020A0AFA0CFA4FF0010B0BFAED
:102E80000CFBABF1010B0BEA030B4AEA0B042146E6
:102E9000404601F035FBBDE8F09F000000BF00F0A8
:102EA0000702064B19684FF6FF031940044B0B430A
:102EB00043EA0221014B196000BF70470CED00E0AE
:102EC0000000FA052DE9F04385B0064642A30FCB7A
:102ED00001AC0FC444A0006800904FF0000800252A
:102EE00000270024A146042E36D004DC012E3BD05E
:102EF000022E6BD15FE0082E32D0102E66D13B48F7
:102F00004468006800F0807000B301A8C4F38341F6
:102F1000475C04F4803070B134484068C0F34040EE
:102F20001DF8008004F4803040B13148B0FBF8F067
:102F300000FB07F502E02F4807FB00F52B4840682F
:102F400000F48000B0F5800F01D1A94603E06800CD
:102F50000321B0FBF1F93AE000F0D2F9814636E006
:102F600000F0CEF9814632E02048046A04F4407053
:102F7000B0F5807F05D104F0020010B14FF4004994
:102F800018E004F44070B0F5007F07D11748406A9C
:102F900000F0020010B149F640490BE004F4407023
:102FA000B0F5407F06D11148006800F4003008B148
:102FB0004FF224490BE000F093F90C494968C1F342
:102FC0008131491C4900B0FBF1F900E000BF00BFAE
:102FD000484605B0BDE8F08302030405060708096A
:102FE0000A0B0C0D0E0F1010010200000010024021
:102FF00000127A0000093D00F8B5044600260025BD
:10300000207800F0010000286BD000274348C069F9
:1030100000F0805070B900BF4048C06940F0805057
:103020003E49C8610846C06900F08050009000BF6A
:1030300000BF01273A48006800F48070B0B93848F2
:10304000006840F4807036490860FFF797FE064636
:1030500006E0FFF793FE801B642801D90320F8BD2A
:103060002F48006800F480700028F2D02B48006AD6
:1030700000F440752DB3A08800F44070A84220D021
:103080002648006A20F44075012026490860002087
:1030900008602248056205F0010090B1FFF76EFE5E
:1030A000064608E0FFF76AFE801B41F2883188423D
:1030B00001D90320D3E71948006A00F00200002874
:1030C000F0D01648006A20F4407061680843134944
:1030D0000862012F04D10846C06920F08050C86101
:1030E00000BF207800F00200022807D10B4840689A
:1030F00020F44040A168084308494860207800F067
:103100001000102807D10548406820F4800061694C
:103110000843024948600020A1E700000010024077
:10312000007000404004424270B504460D460CB9A0
:10313000012070BD5A48006800F00700A8420ED276
:103140005748006820F007002843554908600846A2
:10315000006800F00700A84201D00120E9E72078CC
:1031600000F0020002281DD1207800F0040004289D
:1031700005D14C48406840F4E0604A4948602078F6
:1031800000F00800082805D14648406840F4605027
:10319000444948604348406820F0F000A168084373
:1031A00040494860207800F0010078B36068012849
:1031B00006D13C48006800F4003090B90120B8E71F
:1031C0006068022806D13748006800F0007040B9F6
:1031D0000120AEE73348006800F0020008B9012082
:1031E000A7E73048406820F00300616808432D4994
:1031F0004860FFF7C3FD064609E0FFF7BFFD801BEF
:1032000041F28831884202D9032092E707E025483D
:10321000406800F00C006168B0EB810FEDD12048F0
:10322000006800F00700A8420ED91D48006820F091
:10323000070028431A4908600846006800F00700A4
:10324000A84201D0012074E7207800F0040004288F
:1032500007D11448406820F4E060E1680843114950
:103260004860207800F00800082808D10D48406820
:1032700020F46050216940EAC1000A49486000F02A
:103280003FF808494968C1F30311074A515CC84037
:103290000649086006480068FFF78AFD002048E7F5
:1032A00000200240001002402EBD00080000002057
:1032B000A4000020014800687047000000000020C2
:1032C00000B5FFF7F7FF04494968C1F30221034A3B
:1032D000515CC84000BD0000001002403EBD000827
:1032E00000B5FFF7E7FF04494968C1F3C221034A6B
:1032F000515CC84000BD0000001002403EBD000807
:10330000F0B585B00FF26C0C9CE8E01001A8A0E8C5
:10331000E0101CA52D680095002100220023002448
:103320000020194D696801F00C05F5B1042D02D09B
:10333000082D19D101E0154819E001ADC1F383460C
:10334000AC5D01F4803555B10F4D6D68C5F3404556
:103350001DF805200D4D6543B5FBF2F302E00C4D61
:1033600004FB05F3184602E000BF084800BF00BF99
:1033700005B0F0BD02030405060708090A0B0C0D91
:103380000E0F1010010200000010024000127A001F
:1033900000093D00F8B504460CB90120F8BD2078BD
:1033A00000F00100002878D0F848406800F00C00D8
:1033B00004280CD0F548406800F00C00082811D112
:1033C000F248406800F48030B0F5803F0AD1EF4801
:1033D000006800F4003000285FD0606800285CD1ED
:1033E0000120DBE700BF6068B0F5803F06D1E74809
:1033F000006840F48030E549086028E0606858B90A
:10340000E248006820F48030E0490860084600681F
:1034100020F4802008601AE06068B0F5A02F0BD17E
:10342000DA48006840F48020D849086008460068FF
:1034300040F4803008600AE0D448006820F480300E
:10344000D24908600846006820F48020086000BF68
:10345000606888B1FFF792FC054606E0FFF78EFC36
:10346000401B642801D9032098E7C848006800F48D
:1034700000300028F2D010E0FFF780FC054606E09F
:10348000FFF77CFC401B642801D9032086E7BF4876
:10349000006800F400300028F2D1207800F002002B
:1034A000022857D1B948406800F00C0050B1B74825
:1034B000406800F00C00082818D1B448406800F4B7
:1034C000803098B9B148006800F0020020B120694E
:1034D000012801D0012061E7AC48006820F0F80025
:1034E000616940EAC100A949086033E02069E8B198
:1034F0000120A7490860FFF741FC054606E0FFF7F9
:103500003DFC401B022801D9032047E79F48006883
:1035100000F002000028F2D09C48006820F0F8007B
:10352000616940EAC1009949086013E000209849A8
:103530000860FFF723FC054606E0FFF71FFC401B71
:10354000022801D9032029E79048006800F0020012
:103550000028F2D1207800F0080008282DD1A069B9
:10356000B8B101208B490860FFF708FC054606E06A
:10357000FFF704FC401B022801D903200EE7834813
:10358000406A00F002000028F2D0012000F0ECFCBC
:1035900013E000207F490860FFF7F0FB054606E0D6
:1035A000FFF7ECFB401B022801D90320F6E6774821
:1035B000406A00F002000028F2D1207800F00400F8
:1035C000042873D100277148C06900F0805070B999
:1035D00000BF6E48C06940F080506C49C861084621
:1035E000C06900F08050009000BF00BF01276A480A
:1035F000006800F48070B0B96748006840F48070DB
:1036000065490860FFF7BAFB054606E0FFF7B6FB21
:10361000401B642801D90320C0E65F48006800F41D
:1036200080700028F2D000BFE068012806D157481A
:10363000006A40F001005549086227E0E06858B987
:103640005248006A20F00100504908620846006AAA
:1036500020F00400086219E0E06805280BD14B480F
:10366000006A40F00400494908620846006A40F0D8
:10367000010008620AE04548006A20F00100434961
:1036800008620846006A20F00400086200BFE06893
:10369000A0B1FFF773FB054609E0FFF76FFB401B86
:1036A00041F28831884202D9032077E622E0374888
:1036B000006A00F002000028EFD012E0FFF75EFB86
:1036C000054608E0FFF75AFB401B41F2883188426B
:1036D00001D9032062E62D48006A00F002000028AC
:1036E000F0D1012F05D12948C06920F08050274929
:1036F000C86100BFE069C8B32448406800F00C000E
:10370000082860D0E069022848D1002020490866D6
:10371000FFF734FB054606E0FFF730FB401B0228AD
:1037200001D903203AE61948006800F0007000282B
:10373000F2D1206AB0F5803F07D11448406820F4E8
:103740000030A168084311494860D4E908010843E2
:103750000E49496821F4741108430C49486001205E
:103760000B490866FFF70AFB054607E03DE0FFF757
:1037700005FB401B022801D903200FE6034800681F
:1037800000F000700028F2D02FE00000001002408E
:103790000000424280044242007000400020144970
:1037A0000866FFF7EBFA054606E0FFF7E7FA401B6D
:1037B000022801D90320F1E50E48006800F00070EE
:1037C0000028F2D111E0E069012800D1E6E50948BE
:1037D000466806F48031206A814204D106F47011F3
:1037E000606A814201D00120D8E50020D6E50000C2
:1037F000000042420010024070B504460E461546D5
:103800001CB1A069B0F5807F01D1012070BD94F892
:10381000410028B9002084F84000204600F020F83C
:1038200004F108012068FEF74DFC3146A2682068CB
:10383000FEF784FC2946236BD4E90102FEF720FC45
:10384000A168206850F8210040F00100A2682168BA
:1038500041F82200012084F841000020D6E7000052
:1038600010B586B0044600BF1E48406940F4807021
:103870001C4948610846406900F48070019000BF0F
:1038800000BF00BF0846806940F0200088610846FC
:10389000806900F02000019000BF00BF00BF084613
:1038A000806940F0400088610846806900F040006F
:1038B000019000BF00BF4CF2037002900220039001
:1038C000012004900320059002A90748FFF7A8F8FB
:1038D0004FF68070029002A90448FFF7A1F806B0E5
:1038E00010BD00000010024000140140001801400B
:1038F000042808D14FF0E021096941F004014FF09C
:10390000E022116107E04FF0E021096921F0040194
:103910004FF0E0221161704770B504462546681EDD
:10392000B0F1807F01D301200FE0681E4FF0E0214D
:1039300048610F214FF0FF3000F0E2FD00204FF012
:10394000E021886107200861002070BD10B50446A1
:103950000CB9012010BD94F83D0028B9002084F86E
:103960003C00204600F025F8022084F83D00211D8F
:10397000206800F067FB012084F8460000BF84F84F
:103980003E0001213F2001554020015541200155B5
:1039900000BF00BF012084F84200432001554420AD
:1039A00001554520015500BF012084F83D0000204D
:1039B000D0E77047014691F83D00012801D0012071
:1039C0007047022081F83D000868C06840F001009F
:1039D0000B68D860164B0868984213D0154B0868DE
:1039E00098420FD00868B0F1804F0BD0124B086896
:1039F000984207D0114B0868984203D0104B0868D2
:103A000098420CD10868806800F00702062A0CD0A2
:103A10000868006840F001000B68186005E008685D
:103A2000006840F001000B6818600020C8E7000043
:103A3000002C014000340140000400400008004018
:103A4000000C0040704700002DE9F0470446206854
:103A500005682068C668206847694FF00008C146BD
:103A600005F00F08B8F1000F0AD105F0200038B1B9
:103A700006F0200020B1204600F05CFBBDE8F08796
:103A8000B8F1000F71D007F0010018B906F490707A
:103A900000286AD005F0010030B106F4807018B13A
:103AA000E06B40F00100E06305F0040030B107F086
:103AB000010018B1E06B40F00200E06305F0020085
:103AC00030B107F0010018B1E06B40F00400E06392
:103AD00005F0080048B106F0200010B907F0010019
:103AE00018B1E06B40F00800E063E06B68B305F0EC
:103AF000200028B106F0200010B1204600F01AFB8B
:103B000020684069C0F38019E06B00F0080010B92C
:103B1000B9F1000F22D0204600F0ECFA206840698D
:103B200000F04000B0B12068406920F040002168FA
:103B30004861606B50B11848616B4863606BFEF779
:103B400007FE10B1606B416B88470CE02046FFF721
:103B500079FF08E02046FFF775FF04E02046FFF7F5
:103B600071FF0020E06389E7FFE705F0800030B1D6
:103B700006F0800018B1204600F0AAFB7EE705F0B1
:103B8000400030B106F0400018B1204600F0C2FA03
:103B900074E700BF72E70000E140000810B504467A
:103BA0000CB9012010BDA06900B100E000BF94F87D
:103BB000390028B9002084F83800204600F028F8A1
:103BC000242084F839002068C06820F4005021685F
:103BD000C860204600F0FEFA2068006920F490409A
:103BE000216808612068406920F02A002168486146
:103BF0002068C06840F400502168C8600020E0637D
:103C0000202084F8390084F83A000020CAE7000038
:103C100010B586B004465849206888424BD100BF91
:103C200000BF5648806940F0040054498861084646
:103C3000806900F00400019000BF00BF00BF00BF1A
:103C400000BF0846806940F004008861084680692A
:103C500000F00400019000BF00BF00BF00BF00BF24
:103C60000846806940F4804088610846806900F415
:103C70008040019000BF00BF00BF481502900220A5
:103C80000390012004900320059002A93C48FEF710
:103C9000C7FE4FF4806002900020039002A93848CC
:103CA000FEF7BEFE2520FFF7AAF8032211462520C5
:103CB000FFF7B5F85DE033492068884259D100BF6D
:103CC00000BF2E48806940F008002C4988610846F2
:103CD000806900F00800019000BF00BF00BF00BF76
:103CE00000BF0846806940F0080088610846806986
:103CF00000F00800019000BF00BF00BF00BF00BF80
:103D00000846C06940F48020C8610846C06900F4D4
:103D10008020019000BF00BF00BF08150290022064
:103D20000390002004900320059002A91648FEF796
:103D300077FE4FF40060029000200390049003206F
:103D4000059002A91048FEF76BFE002211462720BD
:103D5000FFF765F82720FFF752F82068C06840F0A9
:103D600020002168C8602068C06840F01000216809
:103D7000C86006B010BD00000038014000100240CD
:103D80000008014000480040000C01402DE9F84FB8
:103D900004460E46174699464FF0000A94F83A003A
:103DA00020285DD106B117B90120BDE8F88F00BF0A
:103DB00094F83800012801D10220F6E7012084F8A8
:103DC000380000BF0020E063222084F83A00FEF7AC
:103DD000D5FF8246A785E785A068B0F5805F04D14E
:103DE000206910B90025B04602E035464FF00008C2
:103DF00000BF002084F8380000BF29E053460022AD
:103E000020212046CDF8009000F092FA08B103205E
:103E1000CBE745B920684068C0F30800A8F8000067
:103E200008F1020811E0A068B0F5805F03D0A06837
:103E300028B9206918B920684068287004E0206813
:103E4000406800F07F0028706D1CE08D401EE0850A
:103E5000E08D0028D2D1202084F83A000020A4E789
:103E60000220A2E710B5034693F83A0020282FD18C
:103E700001B10AB9012010BD00BF93F83800012834
:103E800001D10220F7E7012083F8380000BF9962D2
:103E90009A85DA850020D863222083F83A0000BF93
:103EA000002083F8380000BF1868C06840F48070B4
:103EB0001C68E0601868406940F001001C6860619F
:103EC0001868C06840F020001C68E0600020D2E75D
:103ED0000220D0E71D4A0168914236D11C49098869
:103EE00001F4004189BB1A49098801F4804171B18C
:103EF000184909780A2903D00021154A118024E0C5
:103F00001349098841F40041114A11801DE011490B
:103F100009780D2906D10E49098841F480410C4ADF
:103F2000118012E00B490978094A1288C2F30D0288
:103F3000094B995406490988491C054A11801146C4
:103F40000988C72901DD0021118070470038014030
:103F50009C0000209E0000206C1A0020704700BFCB
:103F6000FEE700BFFEE7704708B508490968C908C1
:103F70004FF47A72B1FBF2F14143009100BF00BFF0
:103F800000994A1E00920029F9D108BD00000020C6
:103F9000704770472DE9F04723480068006900F03A
:103FA000010000283DD06FF001001F490968086139
:103FB0001E48B0F800A000201D490870012000F044
:103FC000BDFA1C48006800282ADB1A480068B0F5D2
:103FD000806F25DA504606F080FF80464FF066324B
:103FE000154B06F0E1FF06464FF06632134B07F023
:103FF000F5F9044606F006FD0E4909684900104A25
:1040000042F8210000210B480068012202EB400029
:104010000B4A42F8201007480068401C0549086018
:1040200000BFBDE8F0870000741D0020AC00002038
:10403000A9000020B000002066664A3F6666FA3F8D
:10404000BC1D002010B50268204B98420ED0204BBA
:1040500098420BD0B0F1804F08D01E4B984205D04B
:104060001D4B984202D01D4B984203D122F07002A2
:104070004B681A43154B98420ED0154B98420BD003
:10408000B0F1804F08D0134B984205D0124B9842A4
:1040900002D0124B984203D122F44072CB681A43EB
:1040A00022F080034C6943EA040202608B68C36219
:1040B0000B688362054B984202D0054B984201D1B0
:1040C0000B6903630123436110BD0000002C014014
:1040D000003401400004004000080040000C004093
:1040E00070B505466C6A0020E085E0842046FFF745
:1040F000A9FC70BD0168C96821F490710268D160A3
:104100000168496921F0010102685161202180F8AC
:104110003A10704710B504462068C06820F040008F
:104120002168C860202084F839002046FFF716FF78
:10413000002010BD70B5044694F83A00222847D1FB
:10414000A068B0F5805F0CD1206950B90025A66A3F
:1041500020684068C0F308003080A06A801CA0621C
:1041600015E0A56A0026A068B0F5805F03D0A068BE
:1041700028B9206918B920684068287004E02068D0
:10418000406800F07F002870A06A401CA062E08DAB
:10419000401E80B2E085C8B92068C06820F02000C9
:1041A0002168C8602068C06820F480702168C860F9
:1041B0002068406920F0010021684861202084F8CF
:1041C0003A002046FFF786FE002070BD0020FCE785
:1041D0000220FAE770B504462168096921F44051CC
:1041E000E2681143226811612269A1681143626982
:1041F00041EA02052168C96841F20C6291432943F2
:104200002268D1602168496921F44071A269114393
:10421000226851612D4A2168914202D1FFF760F86E
:1042200001E0FFF74DF800EBC00101EB00116268FF
:104230009200B1FBF2F100EBC00202EB00126368E6
:104240009B00B2FBF3F26423B2FBF3F202EBC20376
:1042500003EB0212A1EB8201322202EB0111642274
:10426000B1FBF2F101F0F00100EBC00202EB001231
:1042700063689B00B2FBF3F26423B2FBF3F201EB41
:10428000021200EBC00101EB001163689B00B1FB5F
:10429000F3F100EBC00303EB00136668B600B3FB59
:1042A000F6F36426B3FBF6F303EBC30606EB031346
:1042B000A1EB8301322303EB01116423B1FBF3F182
:1042C00001F00F0111442268916070BD0038014077
:1042D000014691F83900212828D18868B0F5805F1F
:1042E0000BD1086948B90A6A1088C0F308000B6846
:1042F0005860086A801C086205E00B6A581C086256
:1043000018780B685860C88C401E80B2C88458B9B1
:104310000868C06820F080000B68D8600868C06832
:1043200040F040000B68D860002070470220FCE796
:104330002DE9F04104460D4617469846069E21E0B9
:10434000701CF8B12EB1FEF719FDA0EB0800B042C9
:1043500018D92068C06820F4D0702168C86020682F
:10436000406920F0010021684861202084F839006C
:1043700084F83A0000BF002084F8380000BF032012
:10438000BDE8F081206800682840A84201D10120E2
:1043900000E00020B842D3D00020F1E710B5064875
:1043A000FFF752FB00BF012204490348FFF75AFD03
:1043B0000028F8D110BD0000341B00209E00002012
:1043C0001CB53E4800680068C0F3C00090B100BF53
:1043D0000020009039480068006800903748006865
:1043E0004068009000BF00BF344800680068334850
:1043F00000684068314800680068C0F3401010B39E
:104400004FF0FF33012201A92C48FFF7BFFC2C48D5
:10441000B0F88000C0F30E007F2815DA9DF8040084
:104420002749B1F88010C1F30E01254A50541046B7
:10443000B0F88000401C1146B1F8801060F30E0106
:104440001046A0F880101BE01D48B0F880006FF304
:104450000E001B49A1F880009DF80400B1F88010FF
:10446000C1F30E01164A50541046B0F88000401CAB
:104470001146B1F8801060F30E011046A0F88010CC
:104480000E4800680068C0F30010B0B10C48B0F8E6
:10449000800020F4004000F500400949A1F88000A8
:1044A00000BF0020009005480068006800900348A5
:1044B00000684068009000BF00BF1CBDCC1B0020FE
:1044C0000C1C002000BFFEE7490050EAC12018BFC5
:1044D00004204A0D18BF40F0010040F2FF72B2EB19
:1044E000515F08BF40F00200012808BF0520704757
:1044F00002480068C0F30220704700000CED00E0A5
:1045000010B5002804DB0A07130E054A135406E011
:104510000A07140E034A00F00F031B1FD45410BDEA
:1045200000E400E018ED00E030380A2801D2012054
:1045300070470020704700BF7047000012490968AB
:1045400021F00101104A11601049896821F0010130
:104550000E4A916000BF0D49896801F001010029F0
:10456000F9D10A49C860896841F00101074A9160A0
:104570000549096841F00101034A116011460968C3
:1045800041F480011160704708240140000002409E
:1045900001B58EB0182104A8FCF774FC002001902E
:1045A0000290039000BF00BF4448806940F400704F
:1045B000424988610846806900F40070009000BF9D
:1045C00000BF00BF00BF00BF0846806940F0040084
:1045D00088610846806900F00400009000BF00BFB9
:1045E00000BF00BF0846406940F00100486108462E
:1045F000406900F00100009000BF00BF022004905D
:104600008003069004A8FEF7F7FC02200A9003201E
:104610000B900AA92A48FEF703FA2A482A4908609B
:10462000002048600021284881608021C160490045
:10463000016189004161002181614FF48051C161B4
:10464000FEF75AF900BF20482049086208461E4973
:10465000486200BF1E481D490860002048600021D4
:104660001A48816001210173016100210175816196
:104670004FF46021C161FDF7B9FE1448FDF780FDDC
:10468000012001900290039001A91048FDF7FAFD66
:10469000032211460B20FEF7C2FB0B20FEF7AFFBF7
:1046A00000230B494C3108480E9AFEF76BF90022A3
:1046B0000EA90648FDF78CFF0FB000BD00100240A8
:1046C0000008014008000240001D0020441D002099
:1046D0000024014010B500F0BDFF10BD70B50546C7
:1046E0000C46164606E028466A1C95B200F008F80B
:1046F00004F8010B301EA6F101018EB2F3D170BD9A
:1047000070B50446002601F065F82112A02202EBE4
:104710004101C8B201F028F801F0A2F82546E117DE
:1047200004EB11610912A4EB0121C8B201F01CF8DD
:1047300001F096F801F04EF8A12001F015F801F013
:104740008FF8002000F0E2FF064601F069F83046DD
:1047500070BD70B505460C46164606E02178284621
:1047600000F009F8681C85B2641C301EA6F1010136
:104770008EB2F3D170BD70B504460E4601F02AF832
:104780002112A02202EB4101C8B200F0EDFF01F0BE
:1047900067F82546E11704EB11610912A4EB01212A
:1047A000C8B200F0E1FF01F05BF8304600F0DCFF3A
:1047B00001F056F801F034F80A2000F02DFA70BD2F
:1047C00070B500241DE0012514E000222946204692
:1047D00004F028FF0020C4EB041101EB81010C4A16
:1047E00011444855C4EB041101EB8101094A1144FD
:1047F00048556D1C4B2DE8DB0021204604F0FEFAE5
:10480000641C0D2CDFDB00210D2004F0F7FA70BDD5
:1048100010120020DF15002010B500BF00224FF459
:1048200000711148FEF7A4FA00BF00F021F800BFA4
:10483000012202210D48FEF79BFA00BF00F018F894
:1048400000BF002202210948FEF792FA00BF00F0E3
:104850000FF800BF012251020348FEF789FA00BF9A
:1048600000F006F810BD0000001C0140000C0140E3
:1048700010B5022000F0ECF910BD000000B585B0C5
:1048800000BF00BF1A48806940F0080018498861DD
:104890000846806900F00800009000BF00BF00BF1C
:1048A00000BF00BF0846806940F08000886108466C
:1048B000806900F08000009000BF00BF00BF0220B0
:1048C00001900120029003900320049001A909485F
:1048D000FEF7A6F84FF4007001901120029001A994
:1048E0000548FEF79DF800F0BFF805B000BD0000D8
:1048F00000100240000C0140001C014010B500BF38
:10490000012251020C48FEF733FA00BFFFF7B0FF57
:1049100000BF012202210948FEF72AFA00BFFFF773
:10492000A7FF00BF002202210448FEF721FA00BFC2
:10493000FFF79EFF10BD0000001C0140000C01406D
:1049400070B50546002400261DE06006040E00BF79
:10495000012202211148FEF70BFA00BFFFF788FF82
:104960004FF400710E48FEF7FBF908B1601CC4B2A9
:1049700000BF002202210948FEF7FAF900BFFFF745
:1049800077FF701CC6B2082EDFDB15B9FFF7B6FF44
:1049900001E0FFF741FF204670BD0000000C014020
:1049A000001C014070B50446002525E000BFE00969
:1049B00028B1012251021548FEF7DAF905E000227C
:1049C0004FF400711148FEF7D3F900BFFFF750FF15
:1049D00000BF012202210E48FEF7CAF900BFFFF70F
:1049E00047FF00BF002202210948FEF7C1F900BFBE
:1049F0006006040E681CC5B2082DD7DB00BF01227B
:104A000051020248FEF7B4F900BF70BD001C01401E
:104A1000000C014010B500BF012251021048FEF702
:104A2000A7F900BF00BF012202210E48FEF7A0F93E
:104A300000BFFFF71DFF00BF00224FF400710848C0
:104A4000FEF796F900BFFFF713FF00BF0022022117
:104A50000448FEF78DF900BFFFF70AFF10BD000004
:104A6000001C0140000C014010B500BF00224FF4B3
:104A700000710C48FEF77CF900BFFFF7F9FE00BF9C
:104A8000012202210848FEF773F900BFFFF7F0FE8C
:104A900000BF012251020348FEF76AF900BFFFF789
:104AA000E7FE10BD001C0140000C014070B5002461
:104AB000002500BF012251021648FEF759F900BF38
:104AC000FFF7D6FE00BF012202211348FEF750F97E
:104AD00000BFFFF7CDFE09E0601CC4B2FA2C03DD75
:104AE000FFF7C2FF012508E0FFF7C2FE4FF4007197
:104AF0000848FEF735F90028EED100BF00BF0022BC
:104B000002210548FEF734F900BFFFF7B1FE284641
:104B100070BD0000001C0140000C014010B50249AE
:104B20000868804710BD0000B80000202DE9F04162
:104B30002B4841680020884700244CE02848808E9C
:104B40000121A1400840002844D025480C3030F80D
:104B50001450143030F8148022480088A84238DD00
:104B600020484088404534DDB92346224146284646
:104B700000F094F8064600221B4B06F0D9F904D841
:104B800001201A49086005F0A7F85A234622414639
:104B9000284600F083F806460022134B06F0C8F9B9
:104BA00004D800201149086005F0BCF8B923AF22F1
:104BB0004146284600F072F8064600220A4B06F0ED
:104BC000B7F906D8002009490860FFF7F9FD05F09C
:104BD000A9F800BF641C052CB0DBBDE8F081000023
:104BE000B8000020BC1B00200000444090000020C2
:104BF00010B5044600204FF0E0210861FEF778FE72
:104C00002046E11704EB5171C1F3CF01014A118035
:104C100010BD00009400002070B504464FF47A7077
:104C200094FBF0F594FBF0F100FB114603E007481C
:104C300000F00EF86D1E002DF9D12EB14FF47A71EF
:104C400006FB01F000F004F870BD000040420F00C8
:104C50000146114A12884A434FF0E0235A6100226C
:104C60009A611A46126942F001021A6100BF4FF0C0
:104C7000E022106900F001021AB100F48032002A2B
:104C8000F5D04FF0E022126922F001024FF0E0234C
:104C90001A6100229A617047940000202DE9F047C4
:104CA00006460C4691461D46A6EB09014943621B88
:104CB000631B02FB031006F010F9074604F0D0FF57
:104CC000BDE8F08700BF054A126802F04002002AE2
:104CD000F9D0C2B2014B1B1D1A6070470038014069
:104CE00000B587B000BF00BF4848806940F0800031
:104CF000464988610846806900F08000019000BF45
:104D000000BF00BF00BF00BF0846806940F08000C0
:104D100088610846806900F08000019000BF00BFF4
:104D200000BFC81403900120049005900320069052
:104D300003A93748FDF774FE4FF48060039000200C
:104D40000490012005900320069003A93048FDF748
:104D500067FEFFF793FD00BF00224FF400612C486F
:104D6000FEF706F800BF1420FFF756FF00BF012230
:104D7000D1022748FDF7FCFF00BF3220FFF74CFFB0
:104D800000208DF80800012202A900F047F9012255
:104D900002A9A42000F042F916208DF80800012293
:104DA00002A9802000F03AF90C208DF808000122B9
:104DB00002A9882000F032F9022202A9A12000F005
:104DC0002FF89DF80800302803D19DF8090003282A
:104DD0000DD09DF80900012809D09DF8090002288E
:104DE00005D09DF8080070B99DF8090058B99DF8E4
:104DF00009009DF8082000EB022106A0FBF77AFECF
:104E0000002007B000BD0120FBE7000000100240B9
:104E1000001C01404354502049443A25780D0A00B3
:104E20002DE9F04106460F461546FFF7F3FD7020C9
:104E3000FFF7B8FDFFF73AFEF0B2FFF7B3FDFFF75B
:104E400035FEFFF7E7FD7120FFF7ACFDFFF72EFE03
:104E500000240BE0691EA14201D0012100E00021E5
:104E60000846FFF76DFD3855601CC4B2AC42F1DB5B
:104E7000FFF7FAFDBDE8F0812DE9FC41074600206F
:104E800001900024002661480078401C5F490870AA
:104E9000084600780A2190FBF1F201FB120018B1DC
:104EA0005A4800780A2867DA012201A90220FFF790
:104EB000B7FF9DF8040000F00F0000285CD09DF8BB
:104EC000040000F00F0006287BDA9DF8040000F0D3
:104ED0000F014FF6FF70884085B2E84380B240F47E
:104EE00040404B4988860420FFF796FE00245AE094
:104EF0004748808E0121A1400840E0B3454931F880
:104F0000140004226946FFF78BFF414890F84400E3
:104F100000F00100C0B19DF801009DF8001001F003
:104F20000F0100EB01203A49203121F814009DF8CF
:104F300003009DF8021001F00F0100EB012134483D
:104F40000C3020F814101EE09DF801009DF80010B0
:104F500001F00F0100EB01202F490988081A81B2E6
:104F60002B480C3020F814109DF803009DF8021017
:104F700001F00F0101E014E023E000EB01202449DF
:104F8000203121F814009DF8000000F0F000802886
:104F900007D000211E48203020F81410143820F8C3
:104FA0001410601CC4B2052CA2DB012618488089AD
:104FB00020B91748008C08B900200190002013493F
:104FC00008709DF8040000F01F00A8B91048808EFA
:104FD00000F4004030B10E48808E20F400400C49AF
:104FE000888609E04FF6FF700949888108840846E1
:104FF000808E00F46040888604480078F02802DD46
:105000000A20024908703046BDE8FC81B400002047
:10501000B800002058F00008BC1B00202DE9F0412A
:1050200005460E4617464FF00008FFF7F3FC7020C8
:10503000FFF7B8FCFFF73AFDE8B2FFF7B3FCFFF764
:1050400035FD00240BE0305DFFF7ACFCFFF72EFDD3
:105050008046B8F1000F00D003E0601CC4B2BC422F
:10506000F1DB00BFFFF700FD4046BDE8F081000026
:1050700000B587B000BF00BF4E48806940F0800097
:105080004C4988610846806900F08000009000BFAC
:1050900000BF00BF00BF00BF0846806940F080002D
:1050A00088610846806900F08000009000BF00BF62
:1050B00000BFC814039001200490059003200690BF
:1050C00003A93D48FDF7ACFC4FF48060039000203D
:1050D0000490012005900320069003A93648FDF7AF
:1050E0009FFCFFF7CBFB00BF00224FF4006132486A
:1050F000FDF73EFE00BF0A20FFF78EFD00BF012234
:10510000D1022D48FDF734FE00BF0A20FFF784FDD1
:105110004FF48060039000200490059003200690D7
:1051200003A92548FDF77CFC6420FFF775FD0422E8
:1051300001A948F2401000F057F800208DF808004F
:105140001EA101A8FBF7C6FE88B11DA101A8FBF7AF
:10515000C1FE60B11CA101A8FBF7BCFE38B11CA1C7
:1051600001A8FBF7B7FE10B1012007B000BD01A9EF
:1051700019A0FBF7BFFC16A101A8FBF7ABFE10B905
:105180000A201849087002208DF80400012201A9A4
:1051900048F2400000F0D2F90A20FFF73DFD002060
:1051A0008DF80400012201A948F2400000F0C6F980
:1051B0000020DAE700100240001C014039313100C4
:1051C000393134370000000031313538000000003B
:1051D00039323731000000004354502049443A2509
:1051E000730D0A00B50000202DE9F04105460F4679
:1051F0001646FFF70FFC2820FFF7D4FBFFF756FCFD
:105200002812FFF7CFFBFFF751FCE8B2FFF7CAFB0C
:10521000FFF74CFCFFF7FEFB2920FFF7C3FBFFF76E
:1052200045FC00240BE0711EA14201D0012100E0E9
:1052300000210846FFF784FB3855601CC4B2B44215
:10524000F1DBFFF711FCBDE8F081000071B583B020
:10525000002001900026B4480078401CB249087034
:10526000084601780A2091FBF0F200FB121018B1F9
:10527000AD4800780A287DDA012203A948F24E10D1
:10528000FFF7B2FF9DF80C0000F0800078B19DF8A8
:105290000C0000F00F00A5490978884207DC0020C7
:1052A0000190012201A948F24E1000F047F99DF843
:1052B0000C0000F00F0000285CD09DF80C0000F0FE
:1052C0000F009A490978884254DC9DF80C0000F0E0
:1052D0000F014FF6FF70884084B29548858EE043F9
:1052E00080B240F4404092498886084682898F48BF
:1052F0000078401E0C3121F810208D48028C8B481C
:105300000078401E143121F8102000200190A7E001
:105310008748808E9DF80420012191400840002894
:105320003FD084499DF8042031F81200042202A9DC
:10533000FFF75AFF8048808845F2105188420BD011
:105340007D48808849F60601884205D07A488088E1
:1053500047F29671884240D1754890F8440000F0B9
:105360000100F8B19DF80A009DF80B1000EB012038
:10537000714900E0B2E00988081A81B26C480C302B
:105380009DF8042020F812109DF808009DF80910DF
:1053900000EB012081B2664820309DF8042020F8FF
:1053A000121058E09DF808009DF8091000EB01204C
:1053B00081B25F480C309DF8042020F812109DF84F
:1053C0000A009DF80B1000EB012081B258482030F4
:1053D0009DF8042020F812103DE0554890F8440054
:1053E00000F00100D0B19DF808009DF8091000EB15
:1053F000012081B24E480C309DF8042020F8121094
:105400009DF80A009DF80B1000EB012081B248487E
:1054100020309DF8042020F812101CE09DF80A00AE
:105420009DF80B1000EB012043490988081A81B24E
:105430003F480C309DF8042020F812109DF8080019
:105440009DF8091000EB012081B2394820309DF809
:10545000042020F812109DF80400401CC0B20190F6
:105460009DF80400314909788842FFF651AF0126C2
:105470002F48808930490988884205DC2C48008CF7
:105480002D494988884226DD9DF80C0000F00F0068
:1054900001280ADD2648C089254988810846408CB4
:1054A000088400202049087018E020480078401E39
:1054B0001F490C3131F810000C3988811B480078E5
:1054C000401E203131F810002039088480200390DC
:1054D0000846858602E00020134908709DF80C00FC
:1054E00000F08F00802815D11148808E00F4004014
:1054F00030B10F48808E20F400400D49888609E0C5
:105500004FF6FF700A49888108840846808E00F4AF
:105510006040888604480078F02802DD0A200249AD
:105520000870304604B070BDB6000020B500002001
:10553000B800002062F00008BC1B00202DE9F041FB
:1055400004460E4617464FF00008FFF763FA28207E
:10555000FFF728FAFFF7AAFA2012FFF723FAFFF75E
:10556000A5FAE0B2FFF71EFAFFF7A0FA00250BE05C
:10557000705DFFF717FAFFF799FA8046B8F1000F50
:1055800000D003E0681CC5B2BD42F1DB00BFFFF7ED
:105590006BFA4046BDE8F08138B504460D4600BFC1
:1055A00000BF1248C06940F002001049C8610846B7
:1055B000C06900F00200009000BF00BF00BF0C48AF
:1055C0000C4908600846456000218160C460FEF710
:1055D000BDF9032201211D20FDF721FC1D20FDF74F
:1055E0000EFC0448FEF7E6F938BD0000001002404A
:1055F00000040040741D002010B500BF002280216F
:105600001048FDF7B5FB00BF00F01EF800BF0122F7
:1056100040210C48FDF7ACFB00BF00F015F800BFBF
:10562000002240210748FDF7A3FB00BF00F00CF863
:1056300000BF012280210348FDF79AFB00BF00F064
:1056400003F810BD000C014010B50220FFF700FB6D
:1056500010BD000000B585B000BF00BF19488069CB
:1056600040F00800174988610846806900F008008A
:10567000009000BF00BF00BF00BF00BF08468069A8
:1056800040F0080088610846806900F0080000903A
:1056900000BF00BF00BF4020019001200290039096
:1056A0000320049001A90848FDF7BAF98020019071
:1056B0001120029001A90448FDF7B2F900F0B0F8FA
:1056C00005B000BD00100240000C014010B500BF45
:1056D000012280210C48FDF74BFB00BFFFF7B4FF10
:1056E00000BF012240210848FDF742FB00BFFFF741
:1056F000ABFF00BF002240210348FDF739FB00BF8C
:10570000FFF7A2FF10BD0000000C014070B5054678
:10571000002400261CE06006040E00BF0122402188
:105720001048FDF725FB00BFFFF78EFF80210D48D5
:10573000FDF716FB08B1601CC4B200BF0022402177
:105740000848FDF715FB00BFFFF77EFF701CC6B2CF
:10575000082EE0DB15B9FFF7B9FF01E0FFF74CFFBA
:10576000204670BD000C014070B50446002524E0C1
:1057700000BFE00928B1012280211548FDF7F8FAA1
:1057800004E0002280211248FDF7F2FA00BFFFF783
:105790005BFF00BF012240210D48FDF7E9FA00BF81
:1057A000FFF752FF00BF002240210948FDF7E0FA51
:1057B00000BF6006040E681CC5B2082DD8DB00BF10
:1057C000012280210248FDF7D3FA00BF70BD00001E
:1057D000000C014010B500BF012280210F48FDF7E9
:1057E000C7FA00BF00BF012240210C48FDF7C0FAF4
:1057F00000BFFFF729FF00BF002280210748FDF707
:10580000B7FA00BFFFF720FF00BF00224021034886
:10581000FDF7AEFA00BFFFF717FF10BD000C014007
:1058200010B500BF002280210C48FDF7A1FA00BF8F
:10583000FFF70AFF00BF012240210848FDF798FA50
:1058400000BFFFF701FF00BF012280210348FDF7E1
:105850008FFA00BFFFF7F8FE10BD0000000C0140FA
:1058600070B50024002500BF012280211448FDF7F7
:105870007FFA00BFFFF7E8FE00BF01224021104879
:10588000FDF776FA00BFFFF7DFFE07E0601CC4B249
:10589000FA2C03DDFFF7C4FF012505E0802108484D
:1058A000FDF75EFA0028F1D100BF00BF00224021C1
:1058B0000348FDF75DFA00BFFFF7C6FE284670BD3E
:1058C000000C0140F8B54BF286632822B92146202E
:1058D00000F0AAFA44F2CF532322B921462000F067
:1058E000A3FA6FF0130417E004F1140000EBD07179
:1058F00049104D1C47F6C15004F1B406B3B205F18E
:105900004606B2B204F1B406B1B2C5F14606009043
:10591000B0B200F0BEFA641C142CE5DD4FF6625301
:1059200028225A21462000F07FFA4EF223432322F8
:105930005A21462000F078FA4FF6E07055235A229B
:105940004B210090322000F00BFB4FF6E0706923F2
:105950005A225F210090322000F002FB4FF478437E
:105960002822B921AF2000F05FFA4AF289132322DE
:10597000B921AF2000F058FA49F26500C823BE22D1
:10598000AA210090A02000F0EBFAF8BD70B5ADF5AB
:10599000BE5DF422A74941F2CC606844FBF740FAAF
:1059A000F422A54941F2D8506844FBF739FAF422B1
:1059B000A24941F2E4406844FBF732FA002419E0BE
:1059C00041F2E4406844005DC0F5167544F69F302E
:1059D0002B4641F2D8566E440090365D06F1230204
:1059E000294641F2CC666E44365D06F1230000F094
:1059F00050FA641CF22CE3DBD822914941F20C40AE
:105A00006844FBF70DFAD8228E4941F234306844DD
:105A1000FBF706FAD8228C4941F25C206844FBF778
:105A2000FFF9002419E041F25C206844005D00F1B8
:105A30004B054FF66F2041F234366E440090365DD0
:105A400006F20D232A4641F20C466E44365D06F2FC
:105A50000D21284600F01DFA641CD72CE3DBEC2254
:105A60007A4941F270106844FBF7DAF9EC22784980
:105A700041F284006844FBF7D3F9EC2275490DF636
:105A80009870FBF7CDF9002418E00DF69870005DD2
:105A9000C0F519754CF6E0702B4641F284066E4451
:105AA0000090365D06F21312294641F270166E44DC
:105AB000365D06F2131000F0ECF9641CE92CE4DB0F
:105AC000782265490DF57260FBF7AAF978226349DF
:105AD0000DF6A860FBF7A4F9782261490DF5636023
